{
  "data": {
    "bytecode": {
      "linkReferences": {},
      "object": "608060405234801561000f575f80fd5b5060405161577f38038061577f833981810160405281019061003191906101d4565b335f73ffffffffffffffffffffffffffffffffffffffff168173ffffffffffffffffffffffffffffffffffffffff16036100a2575f6040517f1e4fbdf70000000000000000000000000000000000000000000000000000000081526004016100999190610251565b60405180910390fd5b6100b1816100dc60201b60201c565b506001808190555081600281905550806003819055505f6004819055505f600781905550505061026a565b5f805f9054906101000a900473ffffffffffffffffffffffffffffffffffffffff169050815f806101000a81548173ffffffffffffffffffffffffffffffffffffffff021916908373ffffffffffffffffffffffffffffffffffffffff1602179055508173ffffffffffffffffffffffffffffffffffffffff168173ffffffffffffffffffffffffffffffffffffffff167f8be0079c531659141344cd1fd0a4f28419497f9722a3daafe3b4186f6b6457e060405160405180910390a35050565b5f80fd5b5f819050919050565b6101b3816101a1565b81146101bd575f80fd5b50565b5f815190506101ce816101aa565b92915050565b5f80604083850312156101ea576101e961019d565b5b5f6101f7858286016101c0565b9250506020610208858286016101c0565b9150509250929050565b5f73ffffffffffffffffffffffffffffffffffffffff82169050919050565b5f61023b82610212565b9050919050565b61024b81610231565b82525050565b5f6020820190506102645f830184610242565b92915050565b615508806102775f395ff3fe6080604052600436106101ed575f3560e01c8063715018a61161010c578063b5c604ff1161009f578063e086e5ec1161006e578063e086e5ec14610759578063f2fde38b1461076f578063f4f3b20014610797578063f79d91ae146107bf578063f7b10808146107e7576101ed565b8063b5c604ff1461069d578063b77bf600146106c7578063bafadc3c146106f1578063c361a3351461072f576101ed565b80639ace38c2116100db5780639ace38c2146105db5780639ca1f3631461061d578063a9059be514610645578063b3cdcf211461066d576101ed565b8063715018a6146105235780637eff2769146105395780638da5cb5b1461057557806390cad32f1461059f576101ed565b80633e3ea54711610184578063572f5eed11610153578063572f5eed14610442578063635e49e51461047e5780636a1b7ecc146104ba57806370e14734146104e4576101ed565b80633e3ea547146103785780634e9798c3146103a057806353bcb3db146103c8578063547ee4ac14610404576101ed565b806317aaf5ed116101c057806317aaf5ed146102bd57806318089a0c146102e757806327cc8b5d14610314578063305a67a814610350576101ed565b806306ea4e6a146101f15780630fa683d31461020d578063126dbe431461024f57806314b5e98114610293575b5f80fd5b61020b600480360381019061020691906138e0565b61082b565b005b348015610218575f80fd5b50610233600480360381019061022e91906138e0565b61108a565b60405161024697969594939291906139c9565b60405180910390f35b34801561025a575f80fd5b50610275600480360381019061027091906138e0565b6111ee565b60405161028a99989796959493929190613ab0565b60405180910390f35b34801561029e575f80fd5b506102a761130c565b6040516102b49190613b42565b60405180910390f35b3480156102c8575f80fd5b506102d1611312565b6040516102de9190613b42565b60405180910390f35b3480156102f2575f80fd5b506102fb61131b565b60405161030b9493929190613b5b565b60405180910390f35b34801561031f575f80fd5b5061033a600480360381019061033591906138e0565b611416565b6040516103479190613c55565b60405180910390f35b34801561035b575f80fd5b50610376600480360381019061037191906138e0565b6114f4565b005b348015610383575f80fd5b5061039e600480360381019061039991906138e0565b611752565b005b3480156103ab575f80fd5b506103c660048036038101906103c19190613cb0565b6119b5565b005b3480156103d3575f80fd5b506103ee60048036038101906103e99190613d2a565b611d25565b6040516103fb9190613c55565b60405180910390f35b34801561040f575f80fd5b5061042a60048036038101906104259190613d7a565b612021565b60405161043993929190613dd2565b60405180910390f35b34801561044d575f80fd5b50610468600480360381019061046391906138e0565b6120dc565b6040516104759190613e07565b60405180910390f35b348015610489575f80fd5b506104a4600480360381019061049f9190613d2a565b612149565b6040516104b19190613c55565b60405180910390f35b3480156104c5575f80fd5b506104ce6123cc565b6040516104db9190613b42565b60405180910390f35b3480156104ef575f80fd5b5061050a60048036038101906105059190613d7a565b6123d2565b60405161051a9493929190613e20565b60405180910390f35b34801561052e575f80fd5b50610537612497565b005b348015610544575f80fd5b5061055f600480360381019061055a9190613e63565b6124aa565b60405161056c9190613c55565b60405180910390f35b348015610580575f80fd5b50610589612697565b6040516105969190613eb3565b60405180910390f35b3480156105aa575f80fd5b506105c560048036038101906105c09190613eef565b6126be565b6040516105d29190613c55565b60405180910390f35b3480156105e6575f80fd5b5061060160048036038101906105fc91906138e0565b61290b565b60405161061497969594939291906139c9565b60405180910390f35b348015610628575f80fd5b50610643600480360381019061063e91906138e0565b612a0d565b005b348015610650575f80fd5b5061066b6004803603810190610666919061406b565b612a9b565b005b6106876004803603810190610682919061425b565b612c2a565b6040516106949190613b42565b60405180910390f35b3480156106a8575f80fd5b506106b1613054565b6040516106be9190613b42565b60405180910390f35b3480156106d2575f80fd5b506106db61305d565b6040516106e89190613b42565b60405180910390f35b3480156106fc575f80fd5b5061071760048036038101906107129190613d7a565b613063565b60405161072693929190614313565b60405180910390f35b34801561073a575f80fd5b5061074361312d565b6040516107509190613b42565b60405180910390f35b348015610764575f80fd5b5061076d613133565b005b34801561077a575f80fd5b5061079560048036038101906107909190614348565b6131cf565b005b3480156107a2575f80fd5b506107bd60048036038101906107b89190614348565b613253565b005b3480156107ca575f80fd5b506107e560048036038101906107e091906138e0565b6133a4565b005b3480156107f2575f80fd5b5061080d600480360381019061080891906138e0565b6133ed565b60405161082299989796959493929190614382565b60405180910390f35b6108336134e8565b5f60055f8381526020019081526020015f2090505f600381111561085a57610859613a3d565b5b816004015f9054906101000a900460ff16600381111561087d5761087c613a3d565b5b14806108bd57506001600381111561089857610897613a3d565b5b816004015f9054906101000a900460ff1660038111156108bb576108ba613a3d565b5b145b6108fc576040517f08c379a00000000000000000000000000000000000000000000000000000000081526004016108f390614484565b60405180910390fd5b5f80805f90505b836007015481101561098f573373ffffffffffffffffffffffffffffffffffffffff16846008015f8381526020019081526020015f205f015f9054906101000a900473ffffffffffffffffffffffffffffffffffffffff1673ffffffffffffffffffffffffffffffffffffffff1603610982576001925080915061098f565b8080600101915050610903565b50816109d0576040517f08c379a00000000000000000000000000000000000000000000000000000000081526004016109c7906144ec565b60405180910390fd5b826008015f8281526020019081526020015f206003015f9054906101000a900460ff1615610a33576040517f08c379a0000000000000000000000000000000000000000000000000000000008152600401610a2a90614554565b60405180910390fd5b5f5b8360050154811015610ab057836006015f8281526020019081526020015f206002015f9054906101000a900460ff16610aa3576040517f08c379a0000000000000000000000000000000000000000000000000000000008152600401610a9a906145e2565b60405180910390fd5b8080600101915050610a35565b505f612710846008015f8481526020019081526020015f20600101548560030154610adb919061462d565b610ae5919061469b565b90505f61271060035483610af9919061462d565b610b03919061469b565b90505f8183610b1291906146cb565b905080341015610b57576040517f08c379a0000000000000000000000000000000000000000000000000000000008152600401610b4e90614748565b60405180910390fd5b610b5f612697565b73ffffffffffffffffffffffffffffffffffffffff166108fc8390811502906040515f60405180830381858888f19350505050158015610ba1573d5f803e3d5ffd5b505f805b8760050154811015610d70575f612710896006015f8481526020019081526020015f206001015487610bd7919061462d565b610be1919061469b565b9050886006015f8381526020019081526020015f205f015f9054906101000a900473ffffffffffffffffffffffffffffffffffffffff1673ffffffffffffffffffffffffffffffffffffffff166108fc8290811502906040515f60405180830381858888f19350505050158015610c5a573d5f803e3d5ffd5b508083610c6791906146cb565b9250610cdf8a338b6006015f8681526020019081526020015f205f015f9054906101000a900473ffffffffffffffffffffffffffffffffffffffff16846040518060400160405280600e81526020017f526f79616c74795061796d656e74000000000000000000000000000000000000815250613537565b886006015f8381526020019081526020015f205f015f9054906101000a900473ffffffffffffffffffffffffffffffffffffffff1673ffffffffffffffffffffffffffffffffffffffff168a7ff670029fc6f5302baba881b4ae845d1453acdf752b4c19ed81fe0fa6a686409b83604051610d5a9190613b42565b60405180910390a3508080600101915050610ba5565b505f8185610d7e9190614766565b9050876002015f9054906101000a900473ffffffffffffffffffffffffffffffffffffffff1673ffffffffffffffffffffffffffffffffffffffff166108fc8290811502906040515f60405180830381858888f19350505050158015610de6573d5f803e3d5ffd5b5084886008015f8881526020019081526020015f20600201819055506001886008015f8881526020019081526020015f206003015f6101000a81548160ff021916908315150217905550610e9589338a6002015f9054906101000a900473ffffffffffffffffffffffffffffffffffffffff16886040518060400160405280600881526020017f5075726368617365000000000000000000000000000000000000000000000000815250613537565b5f600190505f5b8960070154811015610ee457896008015f8281526020019081526020015f206003015f9054906101000a900460ff16610ed7575f9150610ee4565b8080600101915050610e9c565b50808015610ef75750610ef6896136c9565b5b15610f77576002896004015f6101000a81548160ff02191690836003811115610f2357610f22613a3d565b5b0217905550897f2029ff33a5cefa752541f9dd453384df0d463d7c42b66cf937f5112f76d4f5458a600301548b6004015f9054906101000a900460ff16604051610f6e929190614799565b60405180910390a25b4289600a01819055503373ffffffffffffffffffffffffffffffffffffffff168a7f7ddf640afb9f39f7902a7c2b643b23933a73341268a396d5217d82dd7230f6e888604051610fc79190613b42565b60405180910390a33373ffffffffffffffffffffffffffffffffffffffff168a7ff447ba1e674406290752c644bdc71e4be50aa21042f65ed5e9a0b140a3835e26886040516110169190613b42565b60405180910390a383341115611076573373ffffffffffffffffffffffffffffffffffffffff166108fc853461104c9190614766565b90811502906040515f60405180830381858888f19350505050158015611074573d5f803e3d5ffd5b505b505050505050505050611087613744565b50565b5f805f805f8060605f60065f8a81526020019081526020015f20905088815f0154146110eb576040517f08c379a00000000000000000000000000000000000000000000000000000000081526004016110e29061480a565b60405180910390fd5b805f01548160010154826002015f9054906101000a900473ffffffffffffffffffffffffffffffffffffffff16836003015f9054906101000a900473ffffffffffffffffffffffffffffffffffffffff16846004015485600501548660060180805461115690614855565b80601f016020809104026020016040519081016040528092919081815260200182805461118290614855565b80156111cd5780601f106111a4576101008083540402835291602001916111cd565b820191905f5260205f20905b8154815290600101906020018083116111b057829003601f168201915b50505050509050975097509750975097509750975050919395979092949650565b5f60605f805f805f805f8060055f8c81526020019081526020015f209050805f015481600101826002015f9054906101000a900473ffffffffffffffffffffffffffffffffffffffff168360030154846004015f9054906101000a900460ff1685600501548660070154876009015488600a015487805461126e90614855565b80601f016020809104026020016040519081016040528092919081815260200182805461129a90614855565b80156112e55780601f106112bc576101008083540402835291602001916112e5565b820191905f5260205f20905b8154815290600101906020018083116112c857829003601f168201915b50505050509750995099509950995099509950995099509950509193959799909294969850565b60035481565b5f600454905090565b5f805f805f805f600190505b60045481116113fd575f600381111561134357611342613a3d565b5b60055f8381526020019081526020015f206004015f9054906101000a900460ff16600381111561137657611375613a3d565b5b0361138e57828061138690614885565b9350506113ea565b600260038111156113a2576113a1613a3d565b5b60055f8381526020019081526020015f206004015f9054906101000a900460ff1660038111156113d5576113d4613a3d565b5b036113e95781806113e590614885565b9250505b5b80806113f590614885565b915050611327565b5060045460075483839550955095509550505090919293565b60605f60055f8481526020019081526020015f2090505f816005015467ffffffffffffffff81111561144b5761144a613f47565b5b6040519080825280602002602001820160405280156114795781602001602082028036833780820191505090505b5090505f5b82600501548110156114e957612710836006015f8381526020019081526020015f206001015484600301546114b3919061462d565b6114bd919061469b565b8282815181106114d0576114cf6148cc565b5b602002602001018181525050808060010191505061147e565b508092505050919050565b5f60055f8381526020019081526020015f209050806002015f9054906101000a900473ffffffffffffffffffffffffffffffffffffffff1673ffffffffffffffffffffffffffffffffffffffff163373ffffffffffffffffffffffffffffffffffffffff1614806115975750611568612697565b73ffffffffffffffffffffffffffffffffffffffff163373ffffffffffffffffffffffffffffffffffffffff16145b6115d6576040517f08c379a00000000000000000000000000000000000000000000000000000000081526004016115cd90614943565b60405180910390fd5b5f60038111156115e9576115e8613a3d565b5b816004015f9054906101000a900460ff16600381111561160c5761160b613a3d565b5b1461164c576040517f08c379a0000000000000000000000000000000000000000000000000000000008152600401611643906149ab565b60405180910390fd5b5f5b81600701548110156116ca57816008015f8281526020019081526020015f206003015f9054906101000a900460ff16156116bd576040517f08c379a00000000000000000000000000000000000000000000000000000000081526004016116b490614a39565b60405180910390fd5b808060010191505061164e565b506003816004015f6101000a81548160ff021916908360038111156116f2576116f1613a3d565b5b02179055504281600a0181905550817f2029ff33a5cefa752541f9dd453384df0d463d7c42b66cf937f5112f76d4f5458260030154836004015f9054906101000a900460ff16604051611746929190614799565b60405180910390a25050565b5f60055f8381526020019081526020015f2090505f600381111561177957611778613a3d565b5b816004015f9054906101000a900460ff16600381111561179c5761179b613a3d565b5b146117dc576040517f08c379a00000000000000000000000000000000000000000000000000000000081526004016117d390614aa1565b60405180910390fd5b5f80805f90505b836005015481101561186f573373ffffffffffffffffffffffffffffffffffffffff16846006015f8381526020019081526020015f205f015f9054906101000a900473ffffffffffffffffffffffffffffffffffffffff1673ffffffffffffffffffffffffffffffffffffffff1603611862576001925080915061186f565b80806001019150506117e3565b50816118b0576040517f08c379a00000000000000000000000000000000000000000000000000000000081526004016118a790614b2f565b60405180910390fd5b826006015f8281526020019081526020015f206002015f9054906101000a900460ff1615611913576040517f08c379a000000000000000000000000000000000000000000000000000000000815260040161190a90614b97565b60405180910390fd5b6001836006015f8381526020019081526020015f206002015f6101000a81548160ff0219169083151502179055504283600a01819055503373ffffffffffffffffffffffffffffffffffffffff16847ff7a652de63da46d087a8ab25d4a13102e7a74085819fa17527271f9e5e7f9a5c856006015f8581526020019081526020015f20600101546040516119a79190613b42565b60405180910390a350505050565b5f60055f8581526020019081526020015f2090505f60038111156119dc576119db613a3d565b5b816004015f9054906101000a900460ff1660038111156119ff576119fe613a3d565b5b14611a3f576040517f08c379a0000000000000000000000000000000000000000000000000000000008152600401611a3690614aa1565b60405180910390fd5b6003816007015410611a86576040517f08c379a0000000000000000000000000000000000000000000000000000000008152600401611a7d90614bff565b60405180910390fd5b5f82118015611a9757506127108211155b611ad6576040517f08c379a0000000000000000000000000000000000000000000000000000000008152600401611acd90614c67565b60405180910390fd5b5f8290505f5b8260070154811015611b1957826008015f8281526020019081526020015f206001015482611b0a91906146cb565b91508080600101915050611adc565b50612710811115611b5f576040517f08c379a0000000000000000000000000000000000000000000000000000000008152600401611b5690614ccf565b60405180910390fd5b60405180608001604052808573ffffffffffffffffffffffffffffffffffffffff1681526020018481526020015f81526020015f1515815250826008015f846007015481526020019081526020015f205f820151815f015f6101000a81548173ffffffffffffffffffffffffffffffffffffffff021916908373ffffffffffffffffffffffffffffffffffffffff16021790555060208201518160010155604082015181600201556060820151816003015f6101000a81548160ff021916908315150217905550905050816007015f815480929190611c3d90614885565b91905055504282600a01819055506127108103611ccf576001826004015f6101000a81548160ff02191690836003811115611c7b57611c7a613a3d565b5b0217905550847f2029ff33a5cefa752541f9dd453384df0d463d7c42b66cf937f5112f76d4f5458360030154846004015f9054906101000a900460ff16604051611cc6929190614799565b60405180910390a25b8373ffffffffffffffffffffffffffffffffffffffff16857fc6a942827ee49928926ecf863df111a88a435f513d60ff6c606bbe1c39b5e4e185604051611d169190613b42565b60405180910390a35050505050565b60605f80600190505b6004548111611df5575f60055f8381526020019081526020015f2090505f5b8160070154811015611de0578773ffffffffffffffffffffffffffffffffffffffff16826008015f8381526020019081526020015f205f015f9054906101000a900473ffffffffffffffffffffffffffffffffffffffff1673ffffffffffffffffffffffffffffffffffffffff1603611dd3578380611dcb90614885565b945050611de0565b8080600101915050611d4d565b50508080611ded90614885565b915050611d2e565b505f8103611e4e575f67ffffffffffffffff811115611e1757611e16613f47565b5b604051908082528060200260200182016040528015611e455781602001602082028036833780820191505090505b5091505061201a565b5f8490508382611e5e9190614766565b811115611e8d575f8483611e729190614766565b11611e7d575f611e8a565b8382611e899190614766565b5b90505b5f8167ffffffffffffffff811115611ea857611ea7613f47565b5b604051908082528060200260200182016040528015611ed65781602001602082028036833780820191505090505b5090505f8203611eeb5780935050505061201a565b5f805f600190505b6004548111158015611f0457508483105b15612010575f60055f8381526020019081526020015f2090505f805b8260070154811015611fa9578c73ffffffffffffffffffffffffffffffffffffffff16836008015f8381526020019081526020015f205f015f9054906101000a900473ffffffffffffffffffffffffffffffffffffffff1673ffffffffffffffffffffffffffffffffffffffff1603611f9c5760019150611fa9565b8080600101915050611f20565b508015611ffb5789841015611fcb578380611fc390614885565b945050611ffa565b82868681518110611fdf57611fde6148cc565b5b6020026020010181815250508480611ff690614885565b9550505b5b5050808061200890614885565b915050611ef3565b5082955050505050505b9392505050565b5f805f8060055f8781526020019081526020015f2090508060050154851061207e576040517f08c379a000000000000000000000000000000000000000000000000000000000815260040161207590614d37565b60405180910390fd5b5f816006015f8781526020019081526020015f209050805f015f9054906101000a900473ffffffffffffffffffffffffffffffffffffffff168160010154826002015f9054906101000a900460ff1694509450945050509250925092565b5f8060055f8481526020019081526020015f2090505f5b816005015481101561213d57816006015f8281526020019081526020015f206002015f9054906101000a900460ff16612130575f92505050612144565b80806001019150506120f3565b5060019150505b919050565b60605f80600190505b60045481116121e3578573ffffffffffffffffffffffffffffffffffffffff1660055f8381526020019081526020015f206002015f9054906101000a900473ffffffffffffffffffffffffffffffffffffffff1673ffffffffffffffffffffffffffffffffffffffff16036121d05781806121cc90614885565b9250505b80806121db90614885565b915050612152565b505f810361223c575f67ffffffffffffffff81111561220557612204613f47565b5b6040519080825280602002602001820160405280156122335781602001602082028036833780820191505090505b509150506123c5565b5f849050838261224c9190614766565b81111561227b575f84836122609190614766565b1161226b575f612278565b83826122779190614766565b5b90505b5f8167ffffffffffffffff81111561229657612295613f47565b5b6040519080825280602002602001820160405280156122c45781602001602082028036833780820191505090505b5090505f82036122d9578093505050506123c5565b5f805f600190505b60045481111580156122f257508483105b156123bb578973ffffffffffffffffffffffffffffffffffffffff1660055f8381526020019081526020015f206002015f9054906101000a900473ffffffffffffffffffffffffffffffffffffffff1673ffffffffffffffffffffffffffffffffffffffff16036123a8578782101561237857818061237090614885565b9250506123a7565b8084848151811061238c5761238b6148cc565b5b60200260200101818152505082806123a390614885565b9350505b5b80806123b390614885565b9150506122e1565b5082955050505050505b9392505050565b60025481565b5f805f805f60055f8881526020019081526020015f20905080600701548610612430576040517f08c379a000000000000000000000000000000000000000000000000000000000815260040161242790614d9f565b60405180910390fd5b5f816008015f8881526020019081526020015f209050805f015f9054906101000a900473ffffffffffffffffffffffffffffffffffffffff1681600101548260020154836003015f9054906101000a900460ff169550955095509550505092959194509250565b61249f61374d565b6124a85f6137d4565b565b60605f80600190505b60075481116124f9578560065f8381526020019081526020015f2060010154036124e65781806124e290614885565b9250505b80806124f190614885565b9150506124b3565b505f8103612552575f67ffffffffffffffff81111561251b5761251a613f47565b5b6040519080825280602002602001820160405280156125495781602001602082028036833780820191505090505b50915050612690565b5f84905083826125629190614766565b811115612591575f84836125769190614766565b11612581575f61258e565b838261258d9190614766565b5b90505b5f8167ffffffffffffffff8111156125ac576125ab613f47565b5b6040519080825280602002602001820160405280156125da5781602001602082028036833780820191505090505b5090505f82036125ef57809350505050612690565b5f805f600190505b600754811115801561260857508483105b15612686578960065f8381526020019081526020015f206001015403612673578782101561264357818061263b90614885565b925050612672565b80848481518110612657576126566148cc565b5b602002602001018181525050828061266e90614885565b9350505b5b808061267e90614885565b9150506125f7565b5082955050505050505b9392505050565b5f805f9054906101000a900473ffffffffffffffffffffffffffffffffffffffff16905090565b60605f80600190505b600454811161273d578560038111156126e3576126e2613a3d565b5b60055f8381526020019081526020015f206004015f9054906101000a900460ff16600381111561271657612715613a3d565b5b0361272a57818061272690614885565b9250505b808061273590614885565b9150506126c7565b505f8103612796575f67ffffffffffffffff81111561275f5761275e613f47565b5b60405190808252806020026020018201604052801561278d5781602001602082028036833780820191505090505b50915050612904565b5f84905083826127a69190614766565b8111156127d5575f84836127ba9190614766565b116127c5575f6127d2565b83826127d19190614766565b5b90505b5f8167ffffffffffffffff8111156127f0576127ef613f47565b5b60405190808252806020026020018201604052801561281e5781602001602082028036833780820191505090505b5090505f820361283357809350505050612904565b5f805f600190505b600454811115801561284c57508483105b156128fa5789600381111561286457612863613a3d565b5b60055f8381526020019081526020015f206004015f9054906101000a900460ff16600381111561289757612896613a3d565b5b036128e757878210156128b75781806128af90614885565b9250506128e6565b808484815181106128cb576128ca6148cc565b5b60200260200101818152505082806128e290614885565b9350505b5b80806128f290614885565b91505061283b565b5082955050505050505b9392505050565b6006602052805f5260405f205f91509050805f015490806001015490806002015f9054906101000a900473ffffffffffffffffffffffffffffffffffffffff1690806003015f9054906101000a900473ffffffffffffffffffffffffffffffffffffffff169080600401549080600501549080600601805461298c90614855565b80601f01602080910402602001604051908101604052809291908181526020018280546129b890614855565b8015612a035780601f106129da57610100808354040283529160200191612a03565b820191905f5260205f20905b8154815290600101906020018083116129e657829003601f168201915b5050505050905087565b612a1561374d565b6103e8811115612a5a576040517f08c379a0000000000000000000000000000000000000000000000000000000008152600401612a5190614e07565b60405180910390fd5b806003819055507f14960ebff9e4fbc7ead924642e621a388c55e6db3d20028e92770a29f9a6ac7c81604051612a909190613b42565b60405180910390a150565b5f60055f8581526020019081526020015f209050806002015f9054906101000a900473ffffffffffffffffffffffffffffffffffffffff1673ffffffffffffffffffffffffffffffffffffffff163373ffffffffffffffffffffffffffffffffffffffff1614612b40576040517f08c379a0000000000000000000000000000000000000000000000000000000008152600401612b3790614e6f565b60405180910390fd5b5f6003811115612b5357612b52613a3d565b5b816004015f9054906101000a900460ff166003811115612b7657612b75613a3d565b5b14612bb6576040517f08c379a0000000000000000000000000000000000000000000000000000000008152600401612bad90614aa1565b60405180910390fd5b82816003018190555081816001019081612bd0919061502a565b504281600a0181905550837f2029ff33a5cefa752541f9dd453384df0d463d7c42b66cf937f5112f76d4f54584836004015f9054906101000a900460ff16604051612c1c929190614799565b60405180910390a250505050565b5f612c336134e8565b600254341015612c78576040517f08c379a0000000000000000000000000000000000000000000000000000000008152600401612c6f90615143565b60405180910390fd5b600383511115612cbd576040517f08c379a0000000000000000000000000000000000000000000000000000000008152600401612cb4906151d1565b60405180910390fd5b8151835114612d01576040517f08c379a0000000000000000000000000000000000000000000000000000000008152600401612cf890615239565b60405180910390fd5b5f805b8351811015612d4257838181518110612d2057612d1f6148cc565b5b602002602001015182612d3391906146cb565b91508080600101915050612d04565b50611388811115612d88576040517f08c379a0000000000000000000000000000000000000000000000000000000008152600401612d7f906152a1565b60405180910390fd5b612d90612697565b73ffffffffffffffffffffffffffffffffffffffff166108fc3490811502906040515f60405180830381858888f19350505050158015612dd2573d5f803e3d5ffd5b505f60045f8154612de290614885565b91905081905590505f60055f8381526020019081526020015f20905081815f018190555087816001019081612e17919061502a565b5033816002015f6101000a81548173ffffffffffffffffffffffffffffffffffffffff021916908373ffffffffffffffffffffffffffffffffffffffff1602179055508681600301819055505f816004015f6101000a81548160ff02191690836003811115612e8957612e88613a3d565b5b0217905550855181600501819055504281600901819055504281600a01819055505f5b8651811015612fac576040518060600160405280888381518110612ed357612ed26148cc565b5b602002602001015173ffffffffffffffffffffffffffffffffffffffff168152602001878381518110612f0957612f086148cc565b5b602002602001015181526020015f1515815250826006015f8381526020019081526020015f205f820151815f015f6101000a81548173ffffffffffffffffffffffffffffffffffffffff021916908373ffffffffffffffffffffffffffffffffffffffff160217905550602082015181600101556040820151816002015f6101000a81548160ff0219169083151502179055509050508080600101915050612eac565b50612fef823330346040518060400160405280600781526020017f4c697374696e6700000000000000000000000000000000000000000000000000815250613537565b3373ffffffffffffffffffffffffffffffffffffffff16827f23fb658c1698b92f5fe511a079c17ecf7965cbc3f1b873328c67e2c3c0820f1f896040516130369190613b42565b60405180910390a381935050505061304c613744565b949350505050565b5f600754905090565b60075481565b5f805f8060055f8781526020019081526020015f209050806007015485106130c0576040517f08c379a00000000000000000000000000000000000000000000000000000000081526004016130b790614d9f565b60405180910390fd5b5f816008015f8781526020019081526020015f209050612710816001015483600301546130ed919061462d565b6130f7919061469b565b94506127106003548661310a919061462d565b613114919061469b565b9350838561312291906146cb565b925050509250925092565b60045481565b61313b61374d565b5f4790505f8111613181576040517f08c379a000000000000000000000000000000000000000000000000000000000815260040161317890615309565b60405180910390fd5b613189612697565b73ffffffffffffffffffffffffffffffffffffffff166108fc8290811502906040515f60405180830381858888f193505050501580156131cb573d5f803e3d5ffd5b5050565b6131d761374d565b5f73ffffffffffffffffffffffffffffffffffffffff168173ffffffffffffffffffffffffffffffffffffffff1603613247575f6040517f1e4fbdf700000000000000000000000000000000000000000000000000000000815260040161323e9190613eb3565b60405180910390fd5b613250816137d4565b50565b61325b61374d565b5f8190505f8173ffffffffffffffffffffffffffffffffffffffff166370a08231306040518263ffffffff1660e01b81526004016132999190613eb3565b602060405180830381865afa1580156132b4573d5f803e3d5ffd5b505050506040513d601f19601f820116820180604052508101906132d8919061533b565b90505f811161331c576040517f08c379a0000000000000000000000000000000000000000000000000000000008152600401613313906153b0565b60405180910390fd5b8173ffffffffffffffffffffffffffffffffffffffff1663a9059cbb613340612697565b836040518363ffffffff1660e01b815260040161335e9291906153ce565b6020604051808303815f875af115801561337a573d5f803e3d5ffd5b505050506040513d601f19601f8201168201806040525081019061339e919061541f565b50505050565b6133ac61374d565b806002819055507f5fb4654f1efe30c6141eaa6855ffcb27e0b361d899b05e21b1a4d0b3e71e14db816040516133e29190613b42565b60405180910390a150565b6005602052805f5260405f205f91509050805f01549080600101805461341290614855565b80601f016020809104026020016040519081016040528092919081815260200182805461343e90614855565b80156134895780601f1061346057610100808354040283529160200191613489565b820191905f5260205f20905b81548152906001019060200180831161346c57829003601f168201915b505050505090806002015f9054906101000a900473ffffffffffffffffffffffffffffffffffffffff1690806003015490806004015f9054906101000a900460ff169080600501549080600701549080600901549080600a0154905089565b60026001540361352d576040517f08c379a000000000000000000000000000000000000000000000000000000000815260040161352490615494565b60405180910390fd5b6002600181905550565b5f60075f815461354690614885565b91905081905590506040518060e001604052808281526020018781526020018673ffffffffffffffffffffffffffffffffffffffff1681526020018573ffffffffffffffffffffffffffffffffffffffff1681526020018481526020014281526020018381525060065f8381526020019081526020015f205f820151815f0155602082015181600101556040820151816002015f6101000a81548173ffffffffffffffffffffffffffffffffffffffff021916908373ffffffffffffffffffffffffffffffffffffffff1602179055506060820151816003015f6101000a81548173ffffffffffffffffffffffffffffffffffffffff021916908373ffffffffffffffffffffffffffffffffffffffff1602179055506080820151816004015560a0820151816005015560c0820151816006019081613685919061502a565b50905050807ffda02462c610e439ab97d0498c3c469e7c643692b25df1b7ea76fe26f702bd19836040516136b991906154b2565b60405180910390a2505050505050565b5f805f90505f5b836007015481101561373657836008015f8281526020019081526020015f206003015f9054906101000a900460ff161561372957836008015f8281526020019081526020015f20600101548261372691906146cb565b91505b80806001019150506136d0565b506127108114915050919050565b60018081905550565b613755613895565b73ffffffffffffffffffffffffffffffffffffffff16613773612697565b73ffffffffffffffffffffffffffffffffffffffff16146137d257613796613895565b6040517f118cdaa70000000000000000000000000000000000000000000000000000000081526004016137c99190613eb3565b60405180910390fd5b565b5f805f9054906101000a900473ffffffffffffffffffffffffffffffffffffffff169050815f806101000a81548173ffffffffffffffffffffffffffffffffffffffff021916908373ffffffffffffffffffffffffffffffffffffffff1602179055508173ffffffffffffffffffffffffffffffffffffffff168173ffffffffffffffffffffffffffffffffffffffff167f8be0079c531659141344cd1fd0a4f28419497f9722a3daafe3b4186f6b6457e060405160405180910390a35050565b5f33905090565b5f604051905090565b5f80fd5b5f80fd5b5f819050919050565b6138bf816138ad565b81146138c9575f80fd5b50565b5f813590506138da816138b6565b92915050565b5f602082840312156138f5576138f46138a5565b5b5f613902848285016138cc565b91505092915050565b613914816138ad565b82525050565b5f73ffffffffffffffffffffffffffffffffffffffff82169050919050565b5f6139438261391a565b9050919050565b61395381613939565b82525050565b5f81519050919050565b5f82825260208201905092915050565b8281835e5f83830152505050565b5f601f19601f8301169050919050565b5f61399b82613959565b6139a58185613963565b93506139b5818560208601613973565b6139be81613981565b840191505092915050565b5f60e0820190506139dc5f83018a61390b565b6139e9602083018961390b565b6139f6604083018861394a565b613a03606083018761394a565b613a10608083018661390b565b613a1d60a083018561390b565b81810360c0830152613a2f8184613991565b905098975050505050505050565b7f4e487b71000000000000000000000000000000000000000000000000000000005f52602160045260245ffd5b60048110613a7b57613a7a613a3d565b5b50565b5f819050613a8b82613a6a565b919050565b5f613a9a82613a7e565b9050919050565b613aaa81613a90565b82525050565b5f61012082019050613ac45f83018c61390b565b8181036020830152613ad6818b613991565b9050613ae5604083018a61394a565b613af2606083018961390b565b613aff6080830188613aa1565b613b0c60a083018761390b565b613b1960c083018661390b565b613b2660e083018561390b565b613b3461010083018461390b565b9a9950505050505050505050565b5f602082019050613b555f83018461390b565b92915050565b5f608082019050613b6e5f83018761390b565b613b7b602083018661390b565b613b88604083018561390b565b613b95606083018461390b565b95945050505050565b5f81519050919050565b5f82825260208201905092915050565b5f819050602082019050919050565b613bd0816138ad565b82525050565b5f613be18383613bc7565b60208301905092915050565b5f602082019050919050565b5f613c0382613b9e565b613c0d8185613ba8565b9350613c1883613bb8565b805f5b83811015613c48578151613c2f8882613bd6565b9750613c3a83613bed565b925050600181019050613c1b565b5085935050505092915050565b5f6020820190508181035f830152613c6d8184613bf9565b905092915050565b5f613c7f8261391a565b9050919050565b613c8f81613c75565b8114613c99575f80fd5b50565b5f81359050613caa81613c86565b92915050565b5f805f60608486031215613cc757613cc66138a5565b5b5f613cd4868287016138cc565b9350506020613ce586828701613c9c565b9250506040613cf6868287016138cc565b9150509250925092565b613d0981613939565b8114613d13575f80fd5b50565b5f81359050613d2481613d00565b92915050565b5f805f60608486031215613d4157613d406138a5565b5b5f613d4e86828701613d16565b9350506020613d5f868287016138cc565b9250506040613d70868287016138cc565b9150509250925092565b5f8060408385031215613d9057613d8f6138a5565b5b5f613d9d858286016138cc565b9250506020613dae858286016138cc565b9150509250929050565b5f8115159050919050565b613dcc81613db8565b82525050565b5f606082019050613de55f83018661394a565b613df2602083018561390b565b613dff6040830184613dc3565b949350505050565b5f602082019050613e1a5f830184613dc3565b92915050565b5f608082019050613e335f83018761394a565b613e40602083018661390b565b613e4d604083018561390b565b613e5a6060830184613dc3565b95945050505050565b5f805f60608486031215613e7a57613e796138a5565b5b5f613e87868287016138cc565b9350506020613e98868287016138cc565b9250506040613ea9868287016138cc565b9150509250925092565b5f602082019050613ec65f83018461394a565b92915050565b60048110613ed8575f80fd5b50565b5f81359050613ee981613ecc565b92915050565b5f805f60608486031215613f0657613f056138a5565b5b5f613f1386828701613edb565b9350506020613f24868287016138cc565b9250506040613f35868287016138cc565b9150509250925092565b5f80fd5b5f80fd5b7f4e487b71000000000000000000000000000000000000000000000000000000005f52604160045260245ffd5b613f7d82613981565b810181811067ffffffffffffffff82111715613f9c57613f9b613f47565b5b80604052505050565b5f613fae61389c565b9050613fba8282613f74565b919050565b5f67ffffffffffffffff821115613fd957613fd8613f47565b5b613fe282613981565b9050602081019050919050565b828183375f83830152505050565b5f61400f61400a84613fbf565b613fa5565b90508281526020810184848401111561402b5761402a613f43565b5b614036848285613fef565b509392505050565b5f82601f83011261405257614051613f3f565b5b8135614062848260208601613ffd565b91505092915050565b5f805f60608486031215614082576140816138a5565b5b5f61408f868287016138cc565b93505060206140a0868287016138cc565b925050604084013567ffffffffffffffff8111156140c1576140c06138a9565b5b6140cd8682870161403e565b9150509250925092565b5f67ffffffffffffffff8211156140f1576140f0613f47565b5b602082029050602081019050919050565b5f80fd5b5f614118614113846140d7565b613fa5565b9050808382526020820190506020840283018581111561413b5761413a614102565b5b835b8181101561416457806141508882613c9c565b84526020840193505060208101905061413d565b5050509392505050565b5f82601f83011261418257614181613f3f565b5b8135614192848260208601614106565b91505092915050565b5f67ffffffffffffffff8211156141b5576141b4613f47565b5b602082029050602081019050919050565b5f6141d86141d38461419b565b613fa5565b905080838252602082019050602084028301858111156141fb576141fa614102565b5b835b81811015614224578061421088826138cc565b8452602084019350506020810190506141fd565b5050509392505050565b5f82601f83011261424257614241613f3f565b5b81356142528482602086016141c6565b91505092915050565b5f805f8060808587031215614273576142726138a5565b5b5f85013567ffffffffffffffff8111156142905761428f6138a9565b5b61429c8782880161403e565b94505060206142ad878288016138cc565b935050604085013567ffffffffffffffff8111156142ce576142cd6138a9565b5b6142da8782880161416e565b925050606085013567ffffffffffffffff8111156142fb576142fa6138a9565b5b6143078782880161422e565b91505092959194509250565b5f6060820190506143265f83018661390b565b614333602083018561390b565b614340604083018461390b565b949350505050565b5f6020828403121561435d5761435c6138a5565b5b5f61436a84828501613d16565b91505092915050565b61437c81613c75565b82525050565b5f610120820190506143965f83018c61390b565b81810360208301526143a8818b613991565b90506143b7604083018a614373565b6143c4606083018961390b565b6143d16080830188613aa1565b6143de60a083018761390b565b6143eb60c083018661390b565b6143f860e083018561390b565b61440661010083018461390b565b9a9950505050505050505050565b7f50726f7065727479206e6f7420617661696c61626c6520666f722070757263685f8201527f6173650000000000000000000000000000000000000000000000000000000000602082015250565b5f61446e602383613963565b915061447982614414565b604082019050919050565b5f6020820190508181035f83015261449b81614462565b9050919050565b7f4e6f74206120627579657220666f7220746869732070726f70657274790000005f82015250565b5f6144d6601d83613963565b91506144e1826144a2565b602082019050919050565b5f6020820190508181035f830152614503816144ca565b9050919050565b7f416c7265616479207061696400000000000000000000000000000000000000005f82015250565b5f61453e600c83613963565b91506145498261450a565b602082019050919050565b5f6020820190508181035f83015261456b81614532565b9050919050565b7f4e6f7420616c6c20726f79616c747920686f6c646572732068617665206170705f8201527f726f766564000000000000000000000000000000000000000000000000000000602082015250565b5f6145cc602583613963565b91506145d782614572565b604082019050919050565b5f6020820190508181035f8301526145f9816145c0565b9050919050565b7f4e487b71000000000000000000000000000000000000000000000000000000005f52601160045260245ffd5b5f614637826138ad565b9150614642836138ad565b9250828202614650816138ad565b9150828204841483151761466757614666614600565b5b5092915050565b7f4e487b71000000000000000000000000000000000000000000000000000000005f52601260045260245ffd5b5f6146a5826138ad565b91506146b0836138ad565b9250826146c0576146bf61466e565b5b828204905092915050565b5f6146d5826138ad565b91506146e0836138ad565b92508282019050808211156146f8576146f7614600565b5b92915050565b7f496e73756666696369656e74207061796d656e740000000000000000000000005f82015250565b5f614732601483613963565b915061473d826146fe565b602082019050919050565b5f6020820190508181035f83015261475f81614726565b9050919050565b5f614770826138ad565b915061477b836138ad565b925082820390508181111561479357614792614600565b5b92915050565b5f6040820190506147ac5f83018561390b565b6147b96020830184613aa1565b9392505050565b7f5472616e73616374696f6e20646f6573206e6f742065786973740000000000005f82015250565b5f6147f4601a83613963565b91506147ff826147c0565b602082019050919050565b5f6020820190508181035f830152614821816147e8565b9050919050565b7f4e487b71000000000000000000000000000000000000000000000000000000005f52602260045260245ffd5b5f600282049050600182168061486c57607f821691505b60208210810361487f5761487e614828565b5b50919050565b5f61488f826138ad565b91507fffffffffffffffffffffffffffffffffffffffffffffffffffffffffffffffff82036148c1576148c0614600565b5b600182019050919050565b7f4e487b71000000000000000000000000000000000000000000000000000000005f52603260045260245ffd5b7f4f6e6c79206f776e6572206f722061646d696e2063616e2063616e63656c00005f82015250565b5f61492d601e83613963565b9150614938826148f9565b602082019050919050565b5f6020820190508181035f83015261495a81614921565b9050919050565b7f50726f7065727479206e6f7420696e20636f72726563742073746174650000005f82015250565b5f614995601d83613963565b91506149a082614961565b602082019050919050565b5f6020820190508181035f8301526149c281614989565b9050919050565b7f43616e6e6f742063616e63656c3a20627579657273206861766520616c7265615f8201527f6479207061696400000000000000000000000000000000000000000000000000602082015250565b5f614a23602783613963565b9150614a2e826149c9565b604082019050919050565b5f6020820190508181035f830152614a5081614a17565b9050919050565b7f50726f7065727479206e6f74206c6973746564000000000000000000000000005f82015250565b5f614a8b601383613963565b9150614a9682614a57565b602082019050919050565b5f6020820190508181035f830152614ab881614a7f565b9050919050565b7f4e6f74206120726f79616c747920686f6c64657220666f7220746869732070725f8201527f6f70657274790000000000000000000000000000000000000000000000000000602082015250565b5f614b19602683613963565b9150614b2482614abf565b604082019050919050565b5f6020820190508181035f830152614b4681614b0d565b9050919050565b7f416c726561647920617070726f766564000000000000000000000000000000005f82015250565b5f614b81601083613963565b9150614b8c82614b4d565b602082019050919050565b5f6020820190508181035f830152614bae81614b75565b9050919050565b7f4d6178696d756d20332062757965727320616c6c6f77656400000000000000005f82015250565b5f614be9601883613963565b9150614bf482614bb5565b602082019050919050565b5f6020820190508181035f830152614c1681614bdd565b9050919050565b7f496e76616c69642073686172652070657263656e7461676500000000000000005f82015250565b5f614c51601883613963565b9150614c5c82614c1d565b602082019050919050565b5f6020820190508181035f830152614c7e81614c45565b9050919050565b7f546f74616c2073686172652063616e6e6f7420657863656564203130302500005f82015250565b5f614cb9601e83613963565b9150614cc482614c85565b602082019050919050565b5f6020820190508181035f830152614ce681614cad565b9050919050565b7f496e76616c696420686f6c64657220696e6465780000000000000000000000005f82015250565b5f614d21601483613963565b9150614d2c82614ced565b602082019050919050565b5f6020820190508181035f830152614d4e81614d15565b9050919050565b7f496e76616c696420627579657220696e646578000000000000000000000000005f82015250565b5f614d89601383613963565b9150614d9482614d55565b602082019050919050565b5f6020820190508181035f830152614db681614d7d565b9050919050565b7f4665652063616e6e6f74206578636565642031302500000000000000000000005f82015250565b5f614df1601583613963565b9150614dfc82614dbd565b602082019050919050565b5f6020820190508181035f830152614e1e81614de5565b9050919050565b7f4f6e6c79206f776e65722063616e207570646174652070726f706572747900005f82015250565b5f614e59601e83613963565b9150614e6482614e25565b602082019050919050565b5f6020820190508181035f830152614e8681614e4d565b9050919050565b5f819050815f5260205f209050919050565b5f6020601f8301049050919050565b5f82821b905092915050565b5f60088302614ee97fffffffffffffffffffffffffffffffffffffffffffffffffffffffffffffffff82614eae565b614ef38683614eae565b95508019841693508086168417925050509392505050565b5f819050919050565b5f614f2e614f29614f24846138ad565b614f0b565b6138ad565b9050919050565b5f819050919050565b614f4783614f14565b614f5b614f5382614f35565b848454614eba565b825550505050565b5f90565b614f6f614f63565b614f7a818484614f3e565b505050565b5b81811015614f9d57614f925f82614f67565b600181019050614f80565b5050565b601f821115614fe257614fb381614e8d565b614fbc84614e9f565b81016020851015614fcb578190505b614fdf614fd785614e9f565b830182614f7f565b50505b505050565b5f82821c905092915050565b5f6150025f1984600802614fe7565b1980831691505092915050565b5f61501a8383614ff3565b9150826002028217905092915050565b61503382613959565b67ffffffffffffffff81111561504c5761504b613f47565b5b6150568254614855565b615061828285614fa1565b5f60209050601f831160018114615092575f8415615080578287015190505b61508a858261500f565b8655506150f1565b601f1984166150a086614e8d565b5f5b828110156150c7578489015182556001820191506020850194506020810190506150a2565b868310156150e457848901516150e0601f891682614ff3565b8355505b6001600288020188555050505b505050505050565b7f4c697374696e6720666565206e6f742070726f766964656400000000000000005f82015250565b5f61512d601883613963565b9150615138826150f9565b602082019050919050565b5f6020820190508181035f83015261515a81615121565b9050919050565b7f4d6178696d756d203320726f79616c747920686f6c6465727320616c6c6f77655f8201527f6400000000000000000000000000000000000000000000000000000000000000602082015250565b5f6151bb602183613963565b91506151c682615161565b604082019050919050565b5f6020820190508181035f8301526151e8816151af565b9050919050565b7f4172726179206c656e677468206d69736d6174636800000000000000000000005f82015250565b5f615223601583613963565b915061522e826151ef565b602082019050919050565b5f6020820190508181035f83015261525081615217565b9050919050565b7f546f74616c20726f79616c74792063616e6e6f742065786365656420353025005f82015250565b5f61528b601f83613963565b915061529682615257565b602082019050919050565b5f6020820190508181035f8301526152b88161527f565b9050919050565b7f4e6f2045544820746f20776974686472617700000000000000000000000000005f82015250565b5f6152f3601283613963565b91506152fe826152bf565b602082019050919050565b5f6020820190508181035f830152615320816152e7565b9050919050565b5f81519050615335816138b6565b92915050565b5f602082840312156153505761534f6138a5565b5b5f61535d84828501615327565b91505092915050565b7f4e6f20746f6b656e7320746f20776974686472617700000000000000000000005f82015250565b5f61539a601583613963565b91506153a582615366565b602082019050919050565b5f6020820190508181035f8301526153c78161538e565b9050919050565b5f6040820190506153e15f83018561394a565b6153ee602083018461390b565b9392505050565b6153fe81613db8565b8114615408575f80fd5b50565b5f81519050615419816153f5565b92915050565b5f60208284031215615434576154336138a5565b5b5f6154418482850161540b565b91505092915050565b7f5265656e7472616e637947756172643a207265656e7472616e742063616c6c005f82015250565b5f61547e601f83613963565b91506154898261544a565b602082019050919050565b5f6020820190508181035f8301526154ab81615472565b9050919050565b5f6020820190508181035f8301526154ca8184613991565b90509291505056fea264697066735822122071addecac3e89409b5757aea3bae342b9ab3e66b25254188b789f22ed7d7b28364736f6c634300081a0033",
      "opcodes": "PUSH1 0x80 PUSH1 0x40 MSTORE CALLVALUE DUP1 ISZERO PUSH2 0xF JUMPI PUSH0 DUP1 REVERT JUMPDEST POP PUSH1 0x40 MLOAD PUSH2 0x577F CODESIZE SUB DUP1 PUSH2 0x577F DUP4 CODECOPY DUP2 DUP2 ADD PUSH1 0x40 MSTORE DUP2 ADD SWAP1 PUSH2 0x31 SWAP2 SWAP1 PUSH2 0x1D4 JUMP JUMPDEST CALLER PUSH0 PUSH20 0xFFFFFFFFFFFFFFFFFFFFFFFFFFFFFFFFFFFFFFFF AND DUP2 PUSH20 0xFFFFFFFFFFFFFFFFFFFFFFFFFFFFFFFFFFFFFFFF AND SUB PUSH2 0xA2 JUMPI PUSH0 PUSH1 0x40 MLOAD PUSH32 0x1E4FBDF700000000000000000000000000000000000000000000000000000000 DUP2 MSTORE PUSH1 0x4 ADD PUSH2 0x99 SWAP2 SWAP1 PUSH2 0x251 JUMP JUMPDEST PUSH1 0x40 MLOAD DUP1 SWAP2 SUB SWAP1 REVERT JUMPDEST PUSH2 0xB1 DUP2 PUSH2 0xDC PUSH1 0x20 SHL PUSH1 0x20 SHR JUMP JUMPDEST POP PUSH1 0x1 DUP1 DUP2 SWAP1 SSTORE POP DUP2 PUSH1 0x2 DUP2 SWAP1 SSTORE POP DUP1 PUSH1 0x3 DUP2 SWAP1 SSTORE POP PUSH0 PUSH1 0x4 DUP2 SWAP1 SSTORE POP PUSH0 PUSH1 0x7 DUP2 SWAP1 SSTORE POP POP POP PUSH2 0x26A JUMP JUMPDEST PUSH0 DUP1 PUSH0 SWAP1 SLOAD SWAP1 PUSH2 0x100 EXP SWAP1 DIV PUSH20 0xFFFFFFFFFFFFFFFFFFFFFFFFFFFFFFFFFFFFFFFF AND SWAP1 POP DUP2 PUSH0 DUP1 PUSH2 0x100 EXP DUP2 SLOAD DUP2 PUSH20 0xFFFFFFFFFFFFFFFFFFFFFFFFFFFFFFFFFFFFFFFF MUL NOT AND SWAP1 DUP4 PUSH20 0xFFFFFFFFFFFFFFFFFFFFFFFFFFFFFFFFFFFFFFFF AND MUL OR SWAP1 SSTORE POP DUP2 PUSH20 0xFFFFFFFFFFFFFFFFFFFFFFFFFFFFFFFFFFFFFFFF AND DUP2 PUSH20 0xFFFFFFFFFFFFFFFFFFFFFFFFFFFFFFFFFFFFFFFF AND PUSH32 0x8BE0079C531659141344CD1FD0A4F28419497F9722A3DAAFE3B4186F6B6457E0 PUSH1 0x40 MLOAD PUSH1 0x40 MLOAD DUP1 SWAP2 SUB SWAP1 LOG3 POP POP JUMP JUMPDEST PUSH0 DUP1 REVERT JUMPDEST PUSH0 DUP2 SWAP1 POP SWAP2 SWAP1 POP JUMP JUMPDEST PUSH2 0x1B3 DUP2 PUSH2 0x1A1 JUMP JUMPDEST DUP2 EQ PUSH2 0x1BD JUMPI PUSH0 DUP1 REVERT JUMPDEST POP JUMP JUMPDEST PUSH0 DUP2 MLOAD SWAP1 POP PUSH2 0x1CE DUP2 PUSH2 0x1AA JUMP JUMPDEST SWAP3 SWAP2 POP POP JUMP JUMPDEST PUSH0 DUP1 PUSH1 0x40 DUP4 DUP6 SUB SLT ISZERO PUSH2 0x1EA JUMPI PUSH2 0x1E9 PUSH2 0x19D JUMP JUMPDEST JUMPDEST PUSH0 PUSH2 0x1F7 DUP6 DUP3 DUP7 ADD PUSH2 0x1C0 JUMP JUMPDEST SWAP3 POP POP PUSH1 0x20 PUSH2 0x208 DUP6 DUP3 DUP7 ADD PUSH2 0x1C0 JUMP JUMPDEST SWAP2 POP POP SWAP3 POP SWAP3 SWAP1 POP JUMP JUMPDEST PUSH0 PUSH20 0xFFFFFFFFFFFFFFFFFFFFFFFFFFFFFFFFFFFFFFFF DUP3 AND SWAP1 POP SWAP2 SWAP1 POP JUMP JUMPDEST PUSH0 PUSH2 0x23B DUP3 PUSH2 0x212 JUMP JUMPDEST SWAP1 POP SWAP2 SWAP1 POP JUMP JUMPDEST PUSH2 0x24B DUP2 PUSH2 0x231 JUMP JUMPDEST DUP3 MSTORE POP POP JUMP JUMPDEST PUSH0 PUSH1 0x20 DUP3 ADD SWAP1 POP PUSH2 0x264 PUSH0 DUP4 ADD DUP5 PUSH2 0x242 JUMP JUMPDEST SWAP3 SWAP2 POP POP JUMP JUMPDEST PUSH2 0x5508 DUP1 PUSH2 0x277 PUSH0 CODECOPY PUSH0 RETURN INVALID PUSH1 0x80 PUSH1 0x40 MSTORE PUSH1 0x4 CALLDATASIZE LT PUSH2 0x1ED JUMPI PUSH0 CALLDATALOAD PUSH1 0xE0 SHR DUP1 PUSH4 0x715018A6 GT PUSH2 0x10C JUMPI DUP1 PUSH4 0xB5C604FF GT PUSH2 0x9F JUMPI DUP1 PUSH4 0xE086E5EC GT PUSH2 0x6E JUMPI DUP1 PUSH4 0xE086E5EC EQ PUSH2 0x759 JUMPI DUP1 PUSH4 0xF2FDE38B EQ PUSH2 0x76F JUMPI DUP1 PUSH4 0xF4F3B200 EQ PUSH2 0x797 JUMPI DUP1 PUSH4 0xF79D91AE EQ PUSH2 0x7BF JUMPI DUP1 PUSH4 0xF7B10808 EQ PUSH2 0x7E7 JUMPI PUSH2 0x1ED JUMP JUMPDEST DUP1 PUSH4 0xB5C604FF EQ PUSH2 0x69D JUMPI DUP1 PUSH4 0xB77BF600 EQ PUSH2 0x6C7 JUMPI DUP1 PUSH4 0xBAFADC3C EQ PUSH2 0x6F1 JUMPI DUP1 PUSH4 0xC361A335 EQ PUSH2 0x72F JUMPI PUSH2 0x1ED JUMP JUMPDEST DUP1 PUSH4 0x9ACE38C2 GT PUSH2 0xDB JUMPI DUP1 PUSH4 0x9ACE38C2 EQ PUSH2 0x5DB JUMPI DUP1 PUSH4 0x9CA1F363 EQ PUSH2 0x61D JUMPI DUP1 PUSH4 0xA9059BE5 EQ PUSH2 0x645 JUMPI DUP1 PUSH4 0xB3CDCF21 EQ PUSH2 0x66D JUMPI PUSH2 0x1ED JUMP JUMPDEST DUP1 PUSH4 0x715018A6 EQ PUSH2 0x523 JUMPI DUP1 PUSH4 0x7EFF2769 EQ PUSH2 0x539 JUMPI DUP1 PUSH4 0x8DA5CB5B EQ PUSH2 0x575 JUMPI DUP1 PUSH4 0x90CAD32F EQ PUSH2 0x59F JUMPI PUSH2 0x1ED JUMP JUMPDEST DUP1 PUSH4 0x3E3EA547 GT PUSH2 0x184 JUMPI DUP1 PUSH4 0x572F5EED GT PUSH2 0x153 JUMPI DUP1 PUSH4 0x572F5EED EQ PUSH2 0x442 JUMPI DUP1 PUSH4 0x635E49E5 EQ PUSH2 0x47E JUMPI DUP1 PUSH4 0x6A1B7ECC EQ PUSH2 0x4BA JUMPI DUP1 PUSH4 0x70E14734 EQ PUSH2 0x4E4 JUMPI PUSH2 0x1ED JUMP JUMPDEST DUP1 PUSH4 0x3E3EA547 EQ PUSH2 0x378 JUMPI DUP1 PUSH4 0x4E9798C3 EQ PUSH2 0x3A0 JUMPI DUP1 PUSH4 0x53BCB3DB EQ PUSH2 0x3C8 JUMPI DUP1 PUSH4 0x547EE4AC EQ PUSH2 0x404 JUMPI PUSH2 0x1ED JUMP JUMPDEST DUP1 PUSH4 0x17AAF5ED GT PUSH2 0x1C0 JUMPI DUP1 PUSH4 0x17AAF5ED EQ PUSH2 0x2BD JUMPI DUP1 PUSH4 0x18089A0C EQ PUSH2 0x2E7 JUMPI DUP1 PUSH4 0x27CC8B5D EQ PUSH2 0x314 JUMPI DUP1 PUSH4 0x305A67A8 EQ PUSH2 0x350 JUMPI PUSH2 0x1ED JUMP JUMPDEST DUP1 PUSH4 0x6EA4E6A EQ PUSH2 0x1F1 JUMPI DUP1 PUSH4 0xFA683D3 EQ PUSH2 0x20D JUMPI DUP1 PUSH4 0x126DBE43 EQ PUSH2 0x24F JUMPI DUP1 PUSH4 0x14B5E981 EQ PUSH2 0x293 JUMPI JUMPDEST PUSH0 DUP1 REVERT JUMPDEST PUSH2 0x20B PUSH1 0x4 DUP1 CALLDATASIZE SUB DUP2 ADD SWAP1 PUSH2 0x206 SWAP2 SWAP1 PUSH2 0x38E0 JUMP JUMPDEST PUSH2 0x82B JUMP JUMPDEST STOP JUMPDEST CALLVALUE DUP1 ISZERO PUSH2 0x218 JUMPI PUSH0 DUP1 REVERT JUMPDEST POP PUSH2 0x233 PUSH1 0x4 DUP1 CALLDATASIZE SUB DUP2 ADD SWAP1 PUSH2 0x22E SWAP2 SWAP1 PUSH2 0x38E0 JUMP JUMPDEST PUSH2 0x108A JUMP JUMPDEST PUSH1 0x40 MLOAD PUSH2 0x246 SWAP8 SWAP7 SWAP6 SWAP5 SWAP4 SWAP3 SWAP2 SWAP1 PUSH2 0x39C9 JUMP JUMPDEST PUSH1 0x40 MLOAD DUP1 SWAP2 SUB SWAP1 RETURN JUMPDEST CALLVALUE DUP1 ISZERO PUSH2 0x25A JUMPI PUSH0 DUP1 REVERT JUMPDEST POP PUSH2 0x275 PUSH1 0x4 DUP1 CALLDATASIZE SUB DUP2 ADD SWAP1 PUSH2 0x270 SWAP2 SWAP1 PUSH2 0x38E0 JUMP JUMPDEST PUSH2 0x11EE JUMP JUMPDEST PUSH1 0x40 MLOAD PUSH2 0x28A SWAP10 SWAP9 SWAP8 SWAP7 SWAP6 SWAP5 SWAP4 SWAP3 SWAP2 SWAP1 PUSH2 0x3AB0 JUMP JUMPDEST PUSH1 0x40 MLOAD DUP1 SWAP2 SUB SWAP1 RETURN JUMPDEST CALLVALUE DUP1 ISZERO PUSH2 0x29E JUMPI PUSH0 DUP1 REVERT JUMPDEST POP PUSH2 0x2A7 PUSH2 0x130C JUMP JUMPDEST PUSH1 0x40 MLOAD PUSH2 0x2B4 SWAP2 SWAP1 PUSH2 0x3B42 JUMP JUMPDEST PUSH1 0x40 MLOAD DUP1 SWAP2 SUB SWAP1 RETURN JUMPDEST CALLVALUE DUP1 ISZERO PUSH2 0x2C8 JUMPI PUSH0 DUP1 REVERT JUMPDEST POP PUSH2 0x2D1 PUSH2 0x1312 JUMP JUMPDEST PUSH1 0x40 MLOAD PUSH2 0x2DE SWAP2 SWAP1 PUSH2 0x3B42 JUMP JUMPDEST PUSH1 0x40 MLOAD DUP1 SWAP2 SUB SWAP1 RETURN JUMPDEST CALLVALUE DUP1 ISZERO PUSH2 0x2F2 JUMPI PUSH0 DUP1 REVERT JUMPDEST POP PUSH2 0x2FB PUSH2 0x131B JUMP JUMPDEST PUSH1 0x40 MLOAD PUSH2 0x30B SWAP5 SWAP4 SWAP3 SWAP2 SWAP1 PUSH2 0x3B5B JUMP JUMPDEST PUSH1 0x40 MLOAD DUP1 SWAP2 SUB SWAP1 RETURN JUMPDEST CALLVALUE DUP1 ISZERO PUSH2 0x31F JUMPI PUSH0 DUP1 REVERT JUMPDEST POP PUSH2 0x33A PUSH1 0x4 DUP1 CALLDATASIZE SUB DUP2 ADD SWAP1 PUSH2 0x335 SWAP2 SWAP1 PUSH2 0x38E0 JUMP JUMPDEST PUSH2 0x1416 JUMP JUMPDEST PUSH1 0x40 MLOAD PUSH2 0x347 SWAP2 SWAP1 PUSH2 0x3C55 JUMP JUMPDEST PUSH1 0x40 MLOAD DUP1 SWAP2 SUB SWAP1 RETURN JUMPDEST CALLVALUE DUP1 ISZERO PUSH2 0x35B JUMPI PUSH0 DUP1 REVERT JUMPDEST POP PUSH2 0x376 PUSH1 0x4 DUP1 CALLDATASIZE SUB DUP2 ADD SWAP1 PUSH2 0x371 SWAP2 SWAP1 PUSH2 0x38E0 JUMP JUMPDEST PUSH2 0x14F4 JUMP JUMPDEST STOP JUMPDEST CALLVALUE DUP1 ISZERO PUSH2 0x383 JUMPI PUSH0 DUP1 REVERT JUMPDEST POP PUSH2 0x39E PUSH1 0x4 DUP1 CALLDATASIZE SUB DUP2 ADD SWAP1 PUSH2 0x399 SWAP2 SWAP1 PUSH2 0x38E0 JUMP JUMPDEST PUSH2 0x1752 JUMP JUMPDEST STOP JUMPDEST CALLVALUE DUP1 ISZERO PUSH2 0x3AB JUMPI PUSH0 DUP1 REVERT JUMPDEST POP PUSH2 0x3C6 PUSH1 0x4 DUP1 CALLDATASIZE SUB DUP2 ADD SWAP1 PUSH2 0x3C1 SWAP2 SWAP1 PUSH2 0x3CB0 JUMP JUMPDEST PUSH2 0x19B5 JUMP JUMPDEST STOP JUMPDEST CALLVALUE DUP1 ISZERO PUSH2 0x3D3 JUMPI PUSH0 DUP1 REVERT JUMPDEST POP PUSH2 0x3EE PUSH1 0x4 DUP1 CALLDATASIZE SUB DUP2 ADD SWAP1 PUSH2 0x3E9 SWAP2 SWAP1 PUSH2 0x3D2A JUMP JUMPDEST PUSH2 0x1D25 JUMP JUMPDEST PUSH1 0x40 MLOAD PUSH2 0x3FB SWAP2 SWAP1 PUSH2 0x3C55 JUMP JUMPDEST PUSH1 0x40 MLOAD DUP1 SWAP2 SUB SWAP1 RETURN JUMPDEST CALLVALUE DUP1 ISZERO PUSH2 0x40F JUMPI PUSH0 DUP1 REVERT JUMPDEST POP PUSH2 0x42A PUSH1 0x4 DUP1 CALLDATASIZE SUB DUP2 ADD SWAP1 PUSH2 0x425 SWAP2 SWAP1 PUSH2 0x3D7A JUMP JUMPDEST PUSH2 0x2021 JUMP JUMPDEST PUSH1 0x40 MLOAD PUSH2 0x439 SWAP4 SWAP3 SWAP2 SWAP1 PUSH2 0x3DD2 JUMP JUMPDEST PUSH1 0x40 MLOAD DUP1 SWAP2 SUB SWAP1 RETURN JUMPDEST CALLVALUE DUP1 ISZERO PUSH2 0x44D JUMPI PUSH0 DUP1 REVERT JUMPDEST POP PUSH2 0x468 PUSH1 0x4 DUP1 CALLDATASIZE SUB DUP2 ADD SWAP1 PUSH2 0x463 SWAP2 SWAP1 PUSH2 0x38E0 JUMP JUMPDEST PUSH2 0x20DC JUMP JUMPDEST PUSH1 0x40 MLOAD PUSH2 0x475 SWAP2 SWAP1 PUSH2 0x3E07 JUMP JUMPDEST PUSH1 0x40 MLOAD DUP1 SWAP2 SUB SWAP1 RETURN JUMPDEST CALLVALUE DUP1 ISZERO PUSH2 0x489 JUMPI PUSH0 DUP1 REVERT JUMPDEST POP PUSH2 0x4A4 PUSH1 0x4 DUP1 CALLDATASIZE SUB DUP2 ADD SWAP1 PUSH2 0x49F SWAP2 SWAP1 PUSH2 0x3D2A JUMP JUMPDEST PUSH2 0x2149 JUMP JUMPDEST PUSH1 0x40 MLOAD PUSH2 0x4B1 SWAP2 SWAP1 PUSH2 0x3C55 JUMP JUMPDEST PUSH1 0x40 MLOAD DUP1 SWAP2 SUB SWAP1 RETURN JUMPDEST CALLVALUE DUP1 ISZERO PUSH2 0x4C5 JUMPI PUSH0 DUP1 REVERT JUMPDEST POP PUSH2 0x4CE PUSH2 0x23CC JUMP JUMPDEST PUSH1 0x40 MLOAD PUSH2 0x4DB SWAP2 SWAP1 PUSH2 0x3B42 JUMP JUMPDEST PUSH1 0x40 MLOAD DUP1 SWAP2 SUB SWAP1 RETURN JUMPDEST CALLVALUE DUP1 ISZERO PUSH2 0x4EF JUMPI PUSH0 DUP1 REVERT JUMPDEST POP PUSH2 0x50A PUSH1 0x4 DUP1 CALLDATASIZE SUB DUP2 ADD SWAP1 PUSH2 0x505 SWAP2 SWAP1 PUSH2 0x3D7A JUMP JUMPDEST PUSH2 0x23D2 JUMP JUMPDEST PUSH1 0x40 MLOAD PUSH2 0x51A SWAP5 SWAP4 SWAP3 SWAP2 SWAP1 PUSH2 0x3E20 JUMP JUMPDEST PUSH1 0x40 MLOAD DUP1 SWAP2 SUB SWAP1 RETURN JUMPDEST CALLVALUE DUP1 ISZERO PUSH2 0x52E JUMPI PUSH0 DUP1 REVERT JUMPDEST POP PUSH2 0x537 PUSH2 0x2497 JUMP JUMPDEST STOP JUMPDEST CALLVALUE DUP1 ISZERO PUSH2 0x544 JUMPI PUSH0 DUP1 REVERT JUMPDEST POP PUSH2 0x55F PUSH1 0x4 DUP1 CALLDATASIZE SUB DUP2 ADD SWAP1 PUSH2 0x55A SWAP2 SWAP1 PUSH2 0x3E63 JUMP JUMPDEST PUSH2 0x24AA JUMP JUMPDEST PUSH1 0x40 MLOAD PUSH2 0x56C SWAP2 SWAP1 PUSH2 0x3C55 JUMP JUMPDEST PUSH1 0x40 MLOAD DUP1 SWAP2 SUB SWAP1 RETURN JUMPDEST CALLVALUE DUP1 ISZERO PUSH2 0x580 JUMPI PUSH0 DUP1 REVERT JUMPDEST POP PUSH2 0x589 PUSH2 0x2697 JUMP JUMPDEST PUSH1 0x40 MLOAD PUSH2 0x596 SWAP2 SWAP1 PUSH2 0x3EB3 JUMP JUMPDEST PUSH1 0x40 MLOAD DUP1 SWAP2 SUB SWAP1 RETURN JUMPDEST CALLVALUE DUP1 ISZERO PUSH2 0x5AA JUMPI PUSH0 DUP1 REVERT JUMPDEST POP PUSH2 0x5C5 PUSH1 0x4 DUP1 CALLDATASIZE SUB DUP2 ADD SWAP1 PUSH2 0x5C0 SWAP2 SWAP1 PUSH2 0x3EEF JUMP JUMPDEST PUSH2 0x26BE JUMP JUMPDEST PUSH1 0x40 MLOAD PUSH2 0x5D2 SWAP2 SWAP1 PUSH2 0x3C55 JUMP JUMPDEST PUSH1 0x40 MLOAD DUP1 SWAP2 SUB SWAP1 RETURN JUMPDEST CALLVALUE DUP1 ISZERO PUSH2 0x5E6 JUMPI PUSH0 DUP1 REVERT JUMPDEST POP PUSH2 0x601 PUSH1 0x4 DUP1 CALLDATASIZE SUB DUP2 ADD SWAP1 PUSH2 0x5FC SWAP2 SWAP1 PUSH2 0x38E0 JUMP JUMPDEST PUSH2 0x290B JUMP JUMPDEST PUSH1 0x40 MLOAD PUSH2 0x614 SWAP8 SWAP7 SWAP6 SWAP5 SWAP4 SWAP3 SWAP2 SWAP1 PUSH2 0x39C9 JUMP JUMPDEST PUSH1 0x40 MLOAD DUP1 SWAP2 SUB SWAP1 RETURN JUMPDEST CALLVALUE DUP1 ISZERO PUSH2 0x628 JUMPI PUSH0 DUP1 REVERT JUMPDEST POP PUSH2 0x643 PUSH1 0x4 DUP1 CALLDATASIZE SUB DUP2 ADD SWAP1 PUSH2 0x63E SWAP2 SWAP1 PUSH2 0x38E0 JUMP JUMPDEST PUSH2 0x2A0D JUMP JUMPDEST STOP JUMPDEST CALLVALUE DUP1 ISZERO PUSH2 0x650 JUMPI PUSH0 DUP1 REVERT JUMPDEST POP PUSH2 0x66B PUSH1 0x4 DUP1 CALLDATASIZE SUB DUP2 ADD SWAP1 PUSH2 0x666 SWAP2 SWAP1 PUSH2 0x406B JUMP JUMPDEST PUSH2 0x2A9B JUMP JUMPDEST STOP JUMPDEST PUSH2 0x687 PUSH1 0x4 DUP1 CALLDATASIZE SUB DUP2 ADD SWAP1 PUSH2 0x682 SWAP2 SWAP1 PUSH2 0x425B JUMP JUMPDEST PUSH2 0x2C2A JUMP JUMPDEST PUSH1 0x40 MLOAD PUSH2 0x694 SWAP2 SWAP1 PUSH2 0x3B42 JUMP JUMPDEST PUSH1 0x40 MLOAD DUP1 SWAP2 SUB SWAP1 RETURN JUMPDEST CALLVALUE DUP1 ISZERO PUSH2 0x6A8 JUMPI PUSH0 DUP1 REVERT JUMPDEST POP PUSH2 0x6B1 PUSH2 0x3054 JUMP JUMPDEST PUSH1 0x40 MLOAD PUSH2 0x6BE SWAP2 SWAP1 PUSH2 0x3B42 JUMP JUMPDEST PUSH1 0x40 MLOAD DUP1 SWAP2 SUB SWAP1 RETURN JUMPDEST CALLVALUE DUP1 ISZERO PUSH2 0x6D2 JUMPI PUSH0 DUP1 REVERT JUMPDEST POP PUSH2 0x6DB PUSH2 0x305D JUMP JUMPDEST PUSH1 0x40 MLOAD PUSH2 0x6E8 SWAP2 SWAP1 PUSH2 0x3B42 JUMP JUMPDEST PUSH1 0x40 MLOAD DUP1 SWAP2 SUB SWAP1 RETURN JUMPDEST CALLVALUE DUP1 ISZERO PUSH2 0x6FC JUMPI PUSH0 DUP1 REVERT JUMPDEST POP PUSH2 0x717 PUSH1 0x4 DUP1 CALLDATASIZE SUB DUP2 ADD SWAP1 PUSH2 0x712 SWAP2 SWAP1 PUSH2 0x3D7A JUMP JUMPDEST PUSH2 0x3063 JUMP JUMPDEST PUSH1 0x40 MLOAD PUSH2 0x726 SWAP4 SWAP3 SWAP2 SWAP1 PUSH2 0x4313 JUMP JUMPDEST PUSH1 0x40 MLOAD DUP1 SWAP2 SUB SWAP1 RETURN JUMPDEST CALLVALUE DUP1 ISZERO PUSH2 0x73A JUMPI PUSH0 DUP1 REVERT JUMPDEST POP PUSH2 0x743 PUSH2 0x312D JUMP JUMPDEST PUSH1 0x40 MLOAD PUSH2 0x750 SWAP2 SWAP1 PUSH2 0x3B42 JUMP JUMPDEST PUSH1 0x40 MLOAD DUP1 SWAP2 SUB SWAP1 RETURN JUMPDEST CALLVALUE DUP1 ISZERO PUSH2 0x764 JUMPI PUSH0 DUP1 REVERT JUMPDEST POP PUSH2 0x76D PUSH2 0x3133 JUMP JUMPDEST STOP JUMPDEST CALLVALUE DUP1 ISZERO PUSH2 0x77A JUMPI PUSH0 DUP1 REVERT JUMPDEST POP PUSH2 0x795 PUSH1 0x4 DUP1 CALLDATASIZE SUB DUP2 ADD SWAP1 PUSH2 0x790 SWAP2 SWAP1 PUSH2 0x4348 JUMP JUMPDEST PUSH2 0x31CF JUMP JUMPDEST STOP JUMPDEST CALLVALUE DUP1 ISZERO PUSH2 0x7A2 JUMPI PUSH0 DUP1 REVERT JUMPDEST POP PUSH2 0x7BD PUSH1 0x4 DUP1 CALLDATASIZE SUB DUP2 ADD SWAP1 PUSH2 0x7B8 SWAP2 SWAP1 PUSH2 0x4348 JUMP JUMPDEST PUSH2 0x3253 JUMP JUMPDEST STOP JUMPDEST CALLVALUE DUP1 ISZERO PUSH2 0x7CA JUMPI PUSH0 DUP1 REVERT JUMPDEST POP PUSH2 0x7E5 PUSH1 0x4 DUP1 CALLDATASIZE SUB DUP2 ADD SWAP1 PUSH2 0x7E0 SWAP2 SWAP1 PUSH2 0x38E0 JUMP JUMPDEST PUSH2 0x33A4 JUMP JUMPDEST STOP JUMPDEST CALLVALUE DUP1 ISZERO PUSH2 0x7F2 JUMPI PUSH0 DUP1 REVERT JUMPDEST POP PUSH2 0x80D PUSH1 0x4 DUP1 CALLDATASIZE SUB DUP2 ADD SWAP1 PUSH2 0x808 SWAP2 SWAP1 PUSH2 0x38E0 JUMP JUMPDEST PUSH2 0x33ED JUMP JUMPDEST PUSH1 0x40 MLOAD PUSH2 0x822 SWAP10 SWAP9 SWAP8 SWAP7 SWAP6 SWAP5 SWAP4 SWAP3 SWAP2 SWAP1 PUSH2 0x4382 JUMP JUMPDEST PUSH1 0x40 MLOAD DUP1 SWAP2 SUB SWAP1 RETURN JUMPDEST PUSH2 0x833 PUSH2 0x34E8 JUMP JUMPDEST PUSH0 PUSH1 0x5 PUSH0 DUP4 DUP2 MSTORE PUSH1 0x20 ADD SWAP1 DUP2 MSTORE PUSH1 0x20 ADD PUSH0 KECCAK256 SWAP1 POP PUSH0 PUSH1 0x3 DUP2 GT ISZERO PUSH2 0x85A JUMPI PUSH2 0x859 PUSH2 0x3A3D JUMP JUMPDEST JUMPDEST DUP2 PUSH1 0x4 ADD PUSH0 SWAP1 SLOAD SWAP1 PUSH2 0x100 EXP SWAP1 DIV PUSH1 0xFF AND PUSH1 0x3 DUP2 GT ISZERO PUSH2 0x87D JUMPI PUSH2 0x87C PUSH2 0x3A3D JUMP JUMPDEST JUMPDEST EQ DUP1 PUSH2 0x8BD JUMPI POP PUSH1 0x1 PUSH1 0x3 DUP2 GT ISZERO PUSH2 0x898 JUMPI PUSH2 0x897 PUSH2 0x3A3D JUMP JUMPDEST JUMPDEST DUP2 PUSH1 0x4 ADD PUSH0 SWAP1 SLOAD SWAP1 PUSH2 0x100 EXP SWAP1 DIV PUSH1 0xFF AND PUSH1 0x3 DUP2 GT ISZERO PUSH2 0x8BB JUMPI PUSH2 0x8BA PUSH2 0x3A3D JUMP JUMPDEST JUMPDEST EQ JUMPDEST PUSH2 0x8FC JUMPI PUSH1 0x40 MLOAD PUSH32 0x8C379A000000000000000000000000000000000000000000000000000000000 DUP2 MSTORE PUSH1 0x4 ADD PUSH2 0x8F3 SWAP1 PUSH2 0x4484 JUMP JUMPDEST PUSH1 0x40 MLOAD DUP1 SWAP2 SUB SWAP1 REVERT JUMPDEST PUSH0 DUP1 DUP1 PUSH0 SWAP1 POP JUMPDEST DUP4 PUSH1 0x7 ADD SLOAD DUP2 LT ISZERO PUSH2 0x98F JUMPI CALLER PUSH20 0xFFFFFFFFFFFFFFFFFFFFFFFFFFFFFFFFFFFFFFFF AND DUP5 PUSH1 0x8 ADD PUSH0 DUP4 DUP2 MSTORE PUSH1 0x20 ADD SWAP1 DUP2 MSTORE PUSH1 0x20 ADD PUSH0 KECCAK256 PUSH0 ADD PUSH0 SWAP1 SLOAD SWAP1 PUSH2 0x100 EXP SWAP1 DIV PUSH20 0xFFFFFFFFFFFFFFFFFFFFFFFFFFFFFFFFFFFFFFFF AND PUSH20 0xFFFFFFFFFFFFFFFFFFFFFFFFFFFFFFFFFFFFFFFF AND SUB PUSH2 0x982 JUMPI PUSH1 0x1 SWAP3 POP DUP1 SWAP2 POP PUSH2 0x98F JUMP JUMPDEST DUP1 DUP1 PUSH1 0x1 ADD SWAP2 POP POP PUSH2 0x903 JUMP JUMPDEST POP DUP2 PUSH2 0x9D0 JUMPI PUSH1 0x40 MLOAD PUSH32 0x8C379A000000000000000000000000000000000000000000000000000000000 DUP2 MSTORE PUSH1 0x4 ADD PUSH2 0x9C7 SWAP1 PUSH2 0x44EC JUMP JUMPDEST PUSH1 0x40 MLOAD DUP1 SWAP2 SUB SWAP1 REVERT JUMPDEST DUP3 PUSH1 0x8 ADD PUSH0 DUP3 DUP2 MSTORE PUSH1 0x20 ADD SWAP1 DUP2 MSTORE PUSH1 0x20 ADD PUSH0 KECCAK256 PUSH1 0x3 ADD PUSH0 SWAP1 SLOAD SWAP1 PUSH2 0x100 EXP SWAP1 DIV PUSH1 0xFF AND ISZERO PUSH2 0xA33 JUMPI PUSH1 0x40 MLOAD PUSH32 0x8C379A000000000000000000000000000000000000000000000000000000000 DUP2 MSTORE PUSH1 0x4 ADD PUSH2 0xA2A SWAP1 PUSH2 0x4554 JUMP JUMPDEST PUSH1 0x40 MLOAD DUP1 SWAP2 SUB SWAP1 REVERT JUMPDEST PUSH0 JUMPDEST DUP4 PUSH1 0x5 ADD SLOAD DUP2 LT ISZERO PUSH2 0xAB0 JUMPI DUP4 PUSH1 0x6 ADD PUSH0 DUP3 DUP2 MSTORE PUSH1 0x20 ADD SWAP1 DUP2 MSTORE PUSH1 0x20 ADD PUSH0 KECCAK256 PUSH1 0x2 ADD PUSH0 SWAP1 SLOAD SWAP1 PUSH2 0x100 EXP SWAP1 DIV PUSH1 0xFF AND PUSH2 0xAA3 JUMPI PUSH1 0x40 MLOAD PUSH32 0x8C379A000000000000000000000000000000000000000000000000000000000 DUP2 MSTORE PUSH1 0x4 ADD PUSH2 0xA9A SWAP1 PUSH2 0x45E2 JUMP JUMPDEST PUSH1 0x40 MLOAD DUP1 SWAP2 SUB SWAP1 REVERT JUMPDEST DUP1 DUP1 PUSH1 0x1 ADD SWAP2 POP POP PUSH2 0xA35 JUMP JUMPDEST POP PUSH0 PUSH2 0x2710 DUP5 PUSH1 0x8 ADD PUSH0 DUP5 DUP2 MSTORE PUSH1 0x20 ADD SWAP1 DUP2 MSTORE PUSH1 0x20 ADD PUSH0 KECCAK256 PUSH1 0x1 ADD SLOAD DUP6 PUSH1 0x3 ADD SLOAD PUSH2 0xADB SWAP2 SWAP1 PUSH2 0x462D JUMP JUMPDEST PUSH2 0xAE5 SWAP2 SWAP1 PUSH2 0x469B JUMP JUMPDEST SWAP1 POP PUSH0 PUSH2 0x2710 PUSH1 0x3 SLOAD DUP4 PUSH2 0xAF9 SWAP2 SWAP1 PUSH2 0x462D JUMP JUMPDEST PUSH2 0xB03 SWAP2 SWAP1 PUSH2 0x469B JUMP JUMPDEST SWAP1 POP PUSH0 DUP2 DUP4 PUSH2 0xB12 SWAP2 SWAP1 PUSH2 0x46CB JUMP JUMPDEST SWAP1 POP DUP1 CALLVALUE LT ISZERO PUSH2 0xB57 JUMPI PUSH1 0x40 MLOAD PUSH32 0x8C379A000000000000000000000000000000000000000000000000000000000 DUP2 MSTORE PUSH1 0x4 ADD PUSH2 0xB4E SWAP1 PUSH2 0x4748 JUMP JUMPDEST PUSH1 0x40 MLOAD DUP1 SWAP2 SUB SWAP1 REVERT JUMPDEST PUSH2 0xB5F PUSH2 0x2697 JUMP JUMPDEST PUSH20 0xFFFFFFFFFFFFFFFFFFFFFFFFFFFFFFFFFFFFFFFF AND PUSH2 0x8FC DUP4 SWAP1 DUP2 ISZERO MUL SWAP1 PUSH1 0x40 MLOAD PUSH0 PUSH1 0x40 MLOAD DUP1 DUP4 SUB DUP2 DUP6 DUP9 DUP9 CALL SWAP4 POP POP POP POP ISZERO DUP1 ISZERO PUSH2 0xBA1 JUMPI RETURNDATASIZE PUSH0 DUP1 RETURNDATACOPY RETURNDATASIZE PUSH0 REVERT JUMPDEST POP PUSH0 DUP1 JUMPDEST DUP8 PUSH1 0x5 ADD SLOAD DUP2 LT ISZERO PUSH2 0xD70 JUMPI PUSH0 PUSH2 0x2710 DUP10 PUSH1 0x6 ADD PUSH0 DUP5 DUP2 MSTORE PUSH1 0x20 ADD SWAP1 DUP2 MSTORE PUSH1 0x20 ADD PUSH0 KECCAK256 PUSH1 0x1 ADD SLOAD DUP8 PUSH2 0xBD7 SWAP2 SWAP1 PUSH2 0x462D JUMP JUMPDEST PUSH2 0xBE1 SWAP2 SWAP1 PUSH2 0x469B JUMP JUMPDEST SWAP1 POP DUP9 PUSH1 0x6 ADD PUSH0 DUP4 DUP2 MSTORE PUSH1 0x20 ADD SWAP1 DUP2 MSTORE PUSH1 0x20 ADD PUSH0 KECCAK256 PUSH0 ADD PUSH0 SWAP1 SLOAD SWAP1 PUSH2 0x100 EXP SWAP1 DIV PUSH20 0xFFFFFFFFFFFFFFFFFFFFFFFFFFFFFFFFFFFFFFFF AND PUSH20 0xFFFFFFFFFFFFFFFFFFFFFFFFFFFFFFFFFFFFFFFF AND PUSH2 0x8FC DUP3 SWAP1 DUP2 ISZERO MUL SWAP1 PUSH1 0x40 MLOAD PUSH0 PUSH1 0x40 MLOAD DUP1 DUP4 SUB DUP2 DUP6 DUP9 DUP9 CALL SWAP4 POP POP POP POP ISZERO DUP1 ISZERO PUSH2 0xC5A JUMPI RETURNDATASIZE PUSH0 DUP1 RETURNDATACOPY RETURNDATASIZE PUSH0 REVERT JUMPDEST POP DUP1 DUP4 PUSH2 0xC67 SWAP2 SWAP1 PUSH2 0x46CB JUMP JUMPDEST SWAP3 POP PUSH2 0xCDF DUP11 CALLER DUP12 PUSH1 0x6 ADD PUSH0 DUP7 DUP2 MSTORE PUSH1 0x20 ADD SWAP1 DUP2 MSTORE PUSH1 0x20 ADD PUSH0 KECCAK256 PUSH0 ADD PUSH0 SWAP1 SLOAD SWAP1 PUSH2 0x100 EXP SWAP1 DIV PUSH20 0xFFFFFFFFFFFFFFFFFFFFFFFFFFFFFFFFFFFFFFFF AND DUP5 PUSH1 0x40 MLOAD DUP1 PUSH1 0x40 ADD PUSH1 0x40 MSTORE DUP1 PUSH1 0xE DUP2 MSTORE PUSH1 0x20 ADD PUSH32 0x526F79616C74795061796D656E74000000000000000000000000000000000000 DUP2 MSTORE POP PUSH2 0x3537 JUMP JUMPDEST DUP9 PUSH1 0x6 ADD PUSH0 DUP4 DUP2 MSTORE PUSH1 0x20 ADD SWAP1 DUP2 MSTORE PUSH1 0x20 ADD PUSH0 KECCAK256 PUSH0 ADD PUSH0 SWAP1 SLOAD SWAP1 PUSH2 0x100 EXP SWAP1 DIV PUSH20 0xFFFFFFFFFFFFFFFFFFFFFFFFFFFFFFFFFFFFFFFF AND PUSH20 0xFFFFFFFFFFFFFFFFFFFFFFFFFFFFFFFFFFFFFFFF AND DUP11 PUSH32 0xF670029FC6F5302BABA881B4AE845D1453ACDF752B4C19ED81FE0FA6A686409B DUP4 PUSH1 0x40 MLOAD PUSH2 0xD5A SWAP2 SWAP1 PUSH2 0x3B42 JUMP JUMPDEST PUSH1 0x40 MLOAD DUP1 SWAP2 SUB SWAP1 LOG3 POP DUP1 DUP1 PUSH1 0x1 ADD SWAP2 POP POP PUSH2 0xBA5 JUMP JUMPDEST POP PUSH0 DUP2 DUP6 PUSH2 0xD7E SWAP2 SWAP1 PUSH2 0x4766 JUMP JUMPDEST SWAP1 POP DUP8 PUSH1 0x2 ADD PUSH0 SWAP1 SLOAD SWAP1 PUSH2 0x100 EXP SWAP1 DIV PUSH20 0xFFFFFFFFFFFFFFFFFFFFFFFFFFFFFFFFFFFFFFFF AND PUSH20 0xFFFFFFFFFFFFFFFFFFFFFFFFFFFFFFFFFFFFFFFF AND PUSH2 0x8FC DUP3 SWAP1 DUP2 ISZERO MUL SWAP1 PUSH1 0x40 MLOAD PUSH0 PUSH1 0x40 MLOAD DUP1 DUP4 SUB DUP2 DUP6 DUP9 DUP9 CALL SWAP4 POP POP POP POP ISZERO DUP1 ISZERO PUSH2 0xDE6 JUMPI RETURNDATASIZE PUSH0 DUP1 RETURNDATACOPY RETURNDATASIZE PUSH0 REVERT JUMPDEST POP DUP5 DUP9 PUSH1 0x8 ADD PUSH0 DUP9 DUP2 MSTORE PUSH1 0x20 ADD SWAP1 DUP2 MSTORE PUSH1 0x20 ADD PUSH0 KECCAK256 PUSH1 0x2 ADD DUP2 SWAP1 SSTORE POP PUSH1 0x1 DUP9 PUSH1 0x8 ADD PUSH0 DUP9 DUP2 MSTORE PUSH1 0x20 ADD SWAP1 DUP2 MSTORE PUSH1 0x20 ADD PUSH0 KECCAK256 PUSH1 0x3 ADD PUSH0 PUSH2 0x100 EXP DUP2 SLOAD DUP2 PUSH1 0xFF MUL NOT AND SWAP1 DUP4 ISZERO ISZERO MUL OR SWAP1 SSTORE POP PUSH2 0xE95 DUP10 CALLER DUP11 PUSH1 0x2 ADD PUSH0 SWAP1 SLOAD SWAP1 PUSH2 0x100 EXP SWAP1 DIV PUSH20 0xFFFFFFFFFFFFFFFFFFFFFFFFFFFFFFFFFFFFFFFF AND DUP9 PUSH1 0x40 MLOAD DUP1 PUSH1 0x40 ADD PUSH1 0x40 MSTORE DUP1 PUSH1 0x8 DUP2 MSTORE PUSH1 0x20 ADD PUSH32 0x5075726368617365000000000000000000000000000000000000000000000000 DUP2 MSTORE POP PUSH2 0x3537 JUMP JUMPDEST PUSH0 PUSH1 0x1 SWAP1 POP PUSH0 JUMPDEST DUP10 PUSH1 0x7 ADD SLOAD DUP2 LT ISZERO PUSH2 0xEE4 JUMPI DUP10 PUSH1 0x8 ADD PUSH0 DUP3 DUP2 MSTORE PUSH1 0x20 ADD SWAP1 DUP2 MSTORE PUSH1 0x20 ADD PUSH0 KECCAK256 PUSH1 0x3 ADD PUSH0 SWAP1 SLOAD SWAP1 PUSH2 0x100 EXP SWAP1 DIV PUSH1 0xFF AND PUSH2 0xED7 JUMPI PUSH0 SWAP2 POP PUSH2 0xEE4 JUMP JUMPDEST DUP1 DUP1 PUSH1 0x1 ADD SWAP2 POP POP PUSH2 0xE9C JUMP JUMPDEST POP DUP1 DUP1 ISZERO PUSH2 0xEF7 JUMPI POP PUSH2 0xEF6 DUP10 PUSH2 0x36C9 JUMP JUMPDEST JUMPDEST ISZERO PUSH2 0xF77 JUMPI PUSH1 0x2 DUP10 PUSH1 0x4 ADD PUSH0 PUSH2 0x100 EXP DUP2 SLOAD DUP2 PUSH1 0xFF MUL NOT AND SWAP1 DUP4 PUSH1 0x3 DUP2 GT ISZERO PUSH2 0xF23 JUMPI PUSH2 0xF22 PUSH2 0x3A3D JUMP JUMPDEST JUMPDEST MUL OR SWAP1 SSTORE POP DUP10 PUSH32 0x2029FF33A5CEFA752541F9DD453384DF0D463D7C42B66CF937F5112F76D4F545 DUP11 PUSH1 0x3 ADD SLOAD DUP12 PUSH1 0x4 ADD PUSH0 SWAP1 SLOAD SWAP1 PUSH2 0x100 EXP SWAP1 DIV PUSH1 0xFF AND PUSH1 0x40 MLOAD PUSH2 0xF6E SWAP3 SWAP2 SWAP1 PUSH2 0x4799 JUMP JUMPDEST PUSH1 0x40 MLOAD DUP1 SWAP2 SUB SWAP1 LOG2 JUMPDEST TIMESTAMP DUP10 PUSH1 0xA ADD DUP2 SWAP1 SSTORE POP CALLER PUSH20 0xFFFFFFFFFFFFFFFFFFFFFFFFFFFFFFFFFFFFFFFF AND DUP11 PUSH32 0x7DDF640AFB9F39F7902A7C2B643B23933A73341268A396D5217D82DD7230F6E8 DUP9 PUSH1 0x40 MLOAD PUSH2 0xFC7 SWAP2 SWAP1 PUSH2 0x3B42 JUMP JUMPDEST PUSH1 0x40 MLOAD DUP1 SWAP2 SUB SWAP1 LOG3 CALLER PUSH20 0xFFFFFFFFFFFFFFFFFFFFFFFFFFFFFFFFFFFFFFFF AND DUP11 PUSH32 0xF447BA1E674406290752C644BDC71E4BE50AA21042F65ED5E9A0B140A3835E26 DUP9 PUSH1 0x40 MLOAD PUSH2 0x1016 SWAP2 SWAP1 PUSH2 0x3B42 JUMP JUMPDEST PUSH1 0x40 MLOAD DUP1 SWAP2 SUB SWAP1 LOG3 DUP4 CALLVALUE GT ISZERO PUSH2 0x1076 JUMPI CALLER PUSH20 0xFFFFFFFFFFFFFFFFFFFFFFFFFFFFFFFFFFFFFFFF AND PUSH2 0x8FC DUP6 CALLVALUE PUSH2 0x104C SWAP2 SWAP1 PUSH2 0x4766 JUMP JUMPDEST SWAP1 DUP2 ISZERO MUL SWAP1 PUSH1 0x40 MLOAD PUSH0 PUSH1 0x40 MLOAD DUP1 DUP4 SUB DUP2 DUP6 DUP9 DUP9 CALL SWAP4 POP POP POP POP ISZERO DUP1 ISZERO PUSH2 0x1074 JUMPI RETURNDATASIZE PUSH0 DUP1 RETURNDATACOPY RETURNDATASIZE PUSH0 REVERT JUMPDEST POP JUMPDEST POP POP POP POP POP POP POP POP POP PUSH2 0x1087 PUSH2 0x3744 JUMP JUMPDEST POP JUMP JUMPDEST PUSH0 DUP1 PUSH0 DUP1 PUSH0 DUP1 PUSH1 0x60 PUSH0 PUSH1 0x6 PUSH0 DUP11 DUP2 MSTORE PUSH1 0x20 ADD SWAP1 DUP2 MSTORE PUSH1 0x20 ADD PUSH0 KECCAK256 SWAP1 POP DUP9 DUP2 PUSH0 ADD SLOAD EQ PUSH2 0x10EB JUMPI PUSH1 0x40 MLOAD PUSH32 0x8C379A000000000000000000000000000000000000000000000000000000000 DUP2 MSTORE PUSH1 0x4 ADD PUSH2 0x10E2 SWAP1 PUSH2 0x480A JUMP JUMPDEST PUSH1 0x40 MLOAD DUP1 SWAP2 SUB SWAP1 REVERT JUMPDEST DUP1 PUSH0 ADD SLOAD DUP2 PUSH1 0x1 ADD SLOAD DUP3 PUSH1 0x2 ADD PUSH0 SWAP1 SLOAD SWAP1 PUSH2 0x100 EXP SWAP1 DIV PUSH20 0xFFFFFFFFFFFFFFFFFFFFFFFFFFFFFFFFFFFFFFFF AND DUP4 PUSH1 0x3 ADD PUSH0 SWAP1 SLOAD SWAP1 PUSH2 0x100 EXP SWAP1 DIV PUSH20 0xFFFFFFFFFFFFFFFFFFFFFFFFFFFFFFFFFFFFFFFF AND DUP5 PUSH1 0x4 ADD SLOAD DUP6 PUSH1 0x5 ADD SLOAD DUP7 PUSH1 0x6 ADD DUP1 DUP1 SLOAD PUSH2 0x1156 SWAP1 PUSH2 0x4855 JUMP JUMPDEST DUP1 PUSH1 0x1F ADD PUSH1 0x20 DUP1 SWAP2 DIV MUL PUSH1 0x20 ADD PUSH1 0x40 MLOAD SWAP1 DUP2 ADD PUSH1 0x40 MSTORE DUP1 SWAP3 SWAP2 SWAP1 DUP2 DUP2 MSTORE PUSH1 0x20 ADD DUP3 DUP1 SLOAD PUSH2 0x1182 SWAP1 PUSH2 0x4855 JUMP JUMPDEST DUP1 ISZERO PUSH2 0x11CD JUMPI DUP1 PUSH1 0x1F LT PUSH2 0x11A4 JUMPI PUSH2 0x100 DUP1 DUP4 SLOAD DIV MUL DUP4 MSTORE SWAP2 PUSH1 0x20 ADD SWAP2 PUSH2 0x11CD JUMP JUMPDEST DUP3 ADD SWAP2 SWAP1 PUSH0 MSTORE PUSH1 0x20 PUSH0 KECCAK256 SWAP1 JUMPDEST DUP2 SLOAD DUP2 MSTORE SWAP1 PUSH1 0x1 ADD SWAP1 PUSH1 0x20 ADD DUP1 DUP4 GT PUSH2 0x11B0 JUMPI DUP3 SWAP1 SUB PUSH1 0x1F AND DUP3 ADD SWAP2 JUMPDEST POP POP POP POP POP SWAP1 POP SWAP8 POP SWAP8 POP SWAP8 POP SWAP8 POP SWAP8 POP SWAP8 POP SWAP8 POP POP SWAP2 SWAP4 SWAP6 SWAP8 SWAP1 SWAP3 SWAP5 SWAP7 POP JUMP JUMPDEST PUSH0 PUSH1 0x60 PUSH0 DUP1 PUSH0 DUP1 PUSH0 DUP1 PUSH0 DUP1 PUSH1 0x5 PUSH0 DUP13 DUP2 MSTORE PUSH1 0x20 ADD SWAP1 DUP2 MSTORE PUSH1 0x20 ADD PUSH0 KECCAK256 SWAP1 POP DUP1 PUSH0 ADD SLOAD DUP2 PUSH1 0x1 ADD DUP3 PUSH1 0x2 ADD PUSH0 SWAP1 SLOAD SWAP1 PUSH2 0x100 EXP SWAP1 DIV PUSH20 0xFFFFFFFFFFFFFFFFFFFFFFFFFFFFFFFFFFFFFFFF AND DUP4 PUSH1 0x3 ADD SLOAD DUP5 PUSH1 0x4 ADD PUSH0 SWAP1 SLOAD SWAP1 PUSH2 0x100 EXP SWAP1 DIV PUSH1 0xFF AND DUP6 PUSH1 0x5 ADD SLOAD DUP7 PUSH1 0x7 ADD SLOAD DUP8 PUSH1 0x9 ADD SLOAD DUP9 PUSH1 0xA ADD SLOAD DUP8 DUP1 SLOAD PUSH2 0x126E SWAP1 PUSH2 0x4855 JUMP JUMPDEST DUP1 PUSH1 0x1F ADD PUSH1 0x20 DUP1 SWAP2 DIV MUL PUSH1 0x20 ADD PUSH1 0x40 MLOAD SWAP1 DUP2 ADD PUSH1 0x40 MSTORE DUP1 SWAP3 SWAP2 SWAP1 DUP2 DUP2 MSTORE PUSH1 0x20 ADD DUP3 DUP1 SLOAD PUSH2 0x129A SWAP1 PUSH2 0x4855 JUMP JUMPDEST DUP1 ISZERO PUSH2 0x12E5 JUMPI DUP1 PUSH1 0x1F LT PUSH2 0x12BC JUMPI PUSH2 0x100 DUP1 DUP4 SLOAD DIV MUL DUP4 MSTORE SWAP2 PUSH1 0x20 ADD SWAP2 PUSH2 0x12E5 JUMP JUMPDEST DUP3 ADD SWAP2 SWAP1 PUSH0 MSTORE PUSH1 0x20 PUSH0 KECCAK256 SWAP1 JUMPDEST DUP2 SLOAD DUP2 MSTORE SWAP1 PUSH1 0x1 ADD SWAP1 PUSH1 0x20 ADD DUP1 DUP4 GT PUSH2 0x12C8 JUMPI DUP3 SWAP1 SUB PUSH1 0x1F AND DUP3 ADD SWAP2 JUMPDEST POP POP POP POP POP SWAP8 POP SWAP10 POP SWAP10 POP SWAP10 POP SWAP10 POP SWAP10 POP SWAP10 POP SWAP10 POP SWAP10 POP SWAP10 POP POP SWAP2 SWAP4 SWAP6 SWAP8 SWAP10 SWAP1 SWAP3 SWAP5 SWAP7 SWAP9 POP JUMP JUMPDEST PUSH1 0x3 SLOAD DUP2 JUMP JUMPDEST PUSH0 PUSH1 0x4 SLOAD SWAP1 POP SWAP1 JUMP JUMPDEST PUSH0 DUP1 PUSH0 DUP1 PUSH0 DUP1 PUSH0 PUSH1 0x1 SWAP1 POP JUMPDEST PUSH1 0x4 SLOAD DUP2 GT PUSH2 0x13FD JUMPI PUSH0 PUSH1 0x3 DUP2 GT ISZERO PUSH2 0x1343 JUMPI PUSH2 0x1342 PUSH2 0x3A3D JUMP JUMPDEST JUMPDEST PUSH1 0x5 PUSH0 DUP4 DUP2 MSTORE PUSH1 0x20 ADD SWAP1 DUP2 MSTORE PUSH1 0x20 ADD PUSH0 KECCAK256 PUSH1 0x4 ADD PUSH0 SWAP1 SLOAD SWAP1 PUSH2 0x100 EXP SWAP1 DIV PUSH1 0xFF AND PUSH1 0x3 DUP2 GT ISZERO PUSH2 0x1376 JUMPI PUSH2 0x1375 PUSH2 0x3A3D JUMP JUMPDEST JUMPDEST SUB PUSH2 0x138E JUMPI DUP3 DUP1 PUSH2 0x1386 SWAP1 PUSH2 0x4885 JUMP JUMPDEST SWAP4 POP POP PUSH2 0x13EA JUMP JUMPDEST PUSH1 0x2 PUSH1 0x3 DUP2 GT ISZERO PUSH2 0x13A2 JUMPI PUSH2 0x13A1 PUSH2 0x3A3D JUMP JUMPDEST JUMPDEST PUSH1 0x5 PUSH0 DUP4 DUP2 MSTORE PUSH1 0x20 ADD SWAP1 DUP2 MSTORE PUSH1 0x20 ADD PUSH0 KECCAK256 PUSH1 0x4 ADD PUSH0 SWAP1 SLOAD SWAP1 PUSH2 0x100 EXP SWAP1 DIV PUSH1 0xFF AND PUSH1 0x3 DUP2 GT ISZERO PUSH2 0x13D5 JUMPI PUSH2 0x13D4 PUSH2 0x3A3D JUMP JUMPDEST JUMPDEST SUB PUSH2 0x13E9 JUMPI DUP2 DUP1 PUSH2 0x13E5 SWAP1 PUSH2 0x4885 JUMP JUMPDEST SWAP3 POP POP JUMPDEST JUMPDEST DUP1 DUP1 PUSH2 0x13F5 SWAP1 PUSH2 0x4885 JUMP JUMPDEST SWAP2 POP POP PUSH2 0x1327 JUMP JUMPDEST POP PUSH1 0x4 SLOAD PUSH1 0x7 SLOAD DUP4 DUP4 SWAP6 POP SWAP6 POP SWAP6 POP SWAP6 POP POP POP SWAP1 SWAP2 SWAP3 SWAP4 JUMP JUMPDEST PUSH1 0x60 PUSH0 PUSH1 0x5 PUSH0 DUP5 DUP2 MSTORE PUSH1 0x20 ADD SWAP1 DUP2 MSTORE PUSH1 0x20 ADD PUSH0 KECCAK256 SWAP1 POP PUSH0 DUP2 PUSH1 0x5 ADD SLOAD PUSH8 0xFFFFFFFFFFFFFFFF DUP2 GT ISZERO PUSH2 0x144B JUMPI PUSH2 0x144A PUSH2 0x3F47 JUMP JUMPDEST JUMPDEST PUSH1 0x40 MLOAD SWAP1 DUP1 DUP3 MSTORE DUP1 PUSH1 0x20 MUL PUSH1 0x20 ADD DUP3 ADD PUSH1 0x40 MSTORE DUP1 ISZERO PUSH2 0x1479 JUMPI DUP2 PUSH1 0x20 ADD PUSH1 0x20 DUP3 MUL DUP1 CALLDATASIZE DUP4 CALLDATACOPY DUP1 DUP3 ADD SWAP2 POP POP SWAP1 POP JUMPDEST POP SWAP1 POP PUSH0 JUMPDEST DUP3 PUSH1 0x5 ADD SLOAD DUP2 LT ISZERO PUSH2 0x14E9 JUMPI PUSH2 0x2710 DUP4 PUSH1 0x6 ADD PUSH0 DUP4 DUP2 MSTORE PUSH1 0x20 ADD SWAP1 DUP2 MSTORE PUSH1 0x20 ADD PUSH0 KECCAK256 PUSH1 0x1 ADD SLOAD DUP5 PUSH1 0x3 ADD SLOAD PUSH2 0x14B3 SWAP2 SWAP1 PUSH2 0x462D JUMP JUMPDEST PUSH2 0x14BD SWAP2 SWAP1 PUSH2 0x469B JUMP JUMPDEST DUP3 DUP3 DUP2 MLOAD DUP2 LT PUSH2 0x14D0 JUMPI PUSH2 0x14CF PUSH2 0x48CC JUMP JUMPDEST JUMPDEST PUSH1 0x20 MUL PUSH1 0x20 ADD ADD DUP2 DUP2 MSTORE POP POP DUP1 DUP1 PUSH1 0x1 ADD SWAP2 POP POP PUSH2 0x147E JUMP JUMPDEST POP DUP1 SWAP3 POP POP POP SWAP2 SWAP1 POP JUMP JUMPDEST PUSH0 PUSH1 0x5 PUSH0 DUP4 DUP2 MSTORE PUSH1 0x20 ADD SWAP1 DUP2 MSTORE PUSH1 0x20 ADD PUSH0 KECCAK256 SWAP1 POP DUP1 PUSH1 0x2 ADD PUSH0 SWAP1 SLOAD SWAP1 PUSH2 0x100 EXP SWAP1 DIV PUSH20 0xFFFFFFFFFFFFFFFFFFFFFFFFFFFFFFFFFFFFFFFF AND PUSH20 0xFFFFFFFFFFFFFFFFFFFFFFFFFFFFFFFFFFFFFFFF AND CALLER PUSH20 0xFFFFFFFFFFFFFFFFFFFFFFFFFFFFFFFFFFFFFFFF AND EQ DUP1 PUSH2 0x1597 JUMPI POP PUSH2 0x1568 PUSH2 0x2697 JUMP JUMPDEST PUSH20 0xFFFFFFFFFFFFFFFFFFFFFFFFFFFFFFFFFFFFFFFF AND CALLER PUSH20 0xFFFFFFFFFFFFFFFFFFFFFFFFFFFFFFFFFFFFFFFF AND EQ JUMPDEST PUSH2 0x15D6 JUMPI PUSH1 0x40 MLOAD PUSH32 0x8C379A000000000000000000000000000000000000000000000000000000000 DUP2 MSTORE PUSH1 0x4 ADD PUSH2 0x15CD SWAP1 PUSH2 0x4943 JUMP JUMPDEST PUSH1 0x40 MLOAD DUP1 SWAP2 SUB SWAP1 REVERT JUMPDEST PUSH0 PUSH1 0x3 DUP2 GT ISZERO PUSH2 0x15E9 JUMPI PUSH2 0x15E8 PUSH2 0x3A3D JUMP JUMPDEST JUMPDEST DUP2 PUSH1 0x4 ADD PUSH0 SWAP1 SLOAD SWAP1 PUSH2 0x100 EXP SWAP1 DIV PUSH1 0xFF AND PUSH1 0x3 DUP2 GT ISZERO PUSH2 0x160C JUMPI PUSH2 0x160B PUSH2 0x3A3D JUMP JUMPDEST JUMPDEST EQ PUSH2 0x164C JUMPI PUSH1 0x40 MLOAD PUSH32 0x8C379A000000000000000000000000000000000000000000000000000000000 DUP2 MSTORE PUSH1 0x4 ADD PUSH2 0x1643 SWAP1 PUSH2 0x49AB JUMP JUMPDEST PUSH1 0x40 MLOAD DUP1 SWAP2 SUB SWAP1 REVERT JUMPDEST PUSH0 JUMPDEST DUP2 PUSH1 0x7 ADD SLOAD DUP2 LT ISZERO PUSH2 0x16CA JUMPI DUP2 PUSH1 0x8 ADD PUSH0 DUP3 DUP2 MSTORE PUSH1 0x20 ADD SWAP1 DUP2 MSTORE PUSH1 0x20 ADD PUSH0 KECCAK256 PUSH1 0x3 ADD PUSH0 SWAP1 SLOAD SWAP1 PUSH2 0x100 EXP SWAP1 DIV PUSH1 0xFF AND ISZERO PUSH2 0x16BD JUMPI PUSH1 0x40 MLOAD PUSH32 0x8C379A000000000000000000000000000000000000000000000000000000000 DUP2 MSTORE PUSH1 0x4 ADD PUSH2 0x16B4 SWAP1 PUSH2 0x4A39 JUMP JUMPDEST PUSH1 0x40 MLOAD DUP1 SWAP2 SUB SWAP1 REVERT JUMPDEST DUP1 DUP1 PUSH1 0x1 ADD SWAP2 POP POP PUSH2 0x164E JUMP JUMPDEST POP PUSH1 0x3 DUP2 PUSH1 0x4 ADD PUSH0 PUSH2 0x100 EXP DUP2 SLOAD DUP2 PUSH1 0xFF MUL NOT AND SWAP1 DUP4 PUSH1 0x3 DUP2 GT ISZERO PUSH2 0x16F2 JUMPI PUSH2 0x16F1 PUSH2 0x3A3D JUMP JUMPDEST JUMPDEST MUL OR SWAP1 SSTORE POP TIMESTAMP DUP2 PUSH1 0xA ADD DUP2 SWAP1 SSTORE POP DUP2 PUSH32 0x2029FF33A5CEFA752541F9DD453384DF0D463D7C42B66CF937F5112F76D4F545 DUP3 PUSH1 0x3 ADD SLOAD DUP4 PUSH1 0x4 ADD PUSH0 SWAP1 SLOAD SWAP1 PUSH2 0x100 EXP SWAP1 DIV PUSH1 0xFF AND PUSH1 0x40 MLOAD PUSH2 0x1746 SWAP3 SWAP2 SWAP1 PUSH2 0x4799 JUMP JUMPDEST PUSH1 0x40 MLOAD DUP1 SWAP2 SUB SWAP1 LOG2 POP POP JUMP JUMPDEST PUSH0 PUSH1 0x5 PUSH0 DUP4 DUP2 MSTORE PUSH1 0x20 ADD SWAP1 DUP2 MSTORE PUSH1 0x20 ADD PUSH0 KECCAK256 SWAP1 POP PUSH0 PUSH1 0x3 DUP2 GT ISZERO PUSH2 0x1779 JUMPI PUSH2 0x1778 PUSH2 0x3A3D JUMP JUMPDEST JUMPDEST DUP2 PUSH1 0x4 ADD PUSH0 SWAP1 SLOAD SWAP1 PUSH2 0x100 EXP SWAP1 DIV PUSH1 0xFF AND PUSH1 0x3 DUP2 GT ISZERO PUSH2 0x179C JUMPI PUSH2 0x179B PUSH2 0x3A3D JUMP JUMPDEST JUMPDEST EQ PUSH2 0x17DC JUMPI PUSH1 0x40 MLOAD PUSH32 0x8C379A000000000000000000000000000000000000000000000000000000000 DUP2 MSTORE PUSH1 0x4 ADD PUSH2 0x17D3 SWAP1 PUSH2 0x4AA1 JUMP JUMPDEST PUSH1 0x40 MLOAD DUP1 SWAP2 SUB SWAP1 REVERT JUMPDEST PUSH0 DUP1 DUP1 PUSH0 SWAP1 POP JUMPDEST DUP4 PUSH1 0x5 ADD SLOAD DUP2 LT ISZERO PUSH2 0x186F JUMPI CALLER PUSH20 0xFFFFFFFFFFFFFFFFFFFFFFFFFFFFFFFFFFFFFFFF AND DUP5 PUSH1 0x6 ADD PUSH0 DUP4 DUP2 MSTORE PUSH1 0x20 ADD SWAP1 DUP2 MSTORE PUSH1 0x20 ADD PUSH0 KECCAK256 PUSH0 ADD PUSH0 SWAP1 SLOAD SWAP1 PUSH2 0x100 EXP SWAP1 DIV PUSH20 0xFFFFFFFFFFFFFFFFFFFFFFFFFFFFFFFFFFFFFFFF AND PUSH20 0xFFFFFFFFFFFFFFFFFFFFFFFFFFFFFFFFFFFFFFFF AND SUB PUSH2 0x1862 JUMPI PUSH1 0x1 SWAP3 POP DUP1 SWAP2 POP PUSH2 0x186F JUMP JUMPDEST DUP1 DUP1 PUSH1 0x1 ADD SWAP2 POP POP PUSH2 0x17E3 JUMP JUMPDEST POP DUP2 PUSH2 0x18B0 JUMPI PUSH1 0x40 MLOAD PUSH32 0x8C379A000000000000000000000000000000000000000000000000000000000 DUP2 MSTORE PUSH1 0x4 ADD PUSH2 0x18A7 SWAP1 PUSH2 0x4B2F JUMP JUMPDEST PUSH1 0x40 MLOAD DUP1 SWAP2 SUB SWAP1 REVERT JUMPDEST DUP3 PUSH1 0x6 ADD PUSH0 DUP3 DUP2 MSTORE PUSH1 0x20 ADD SWAP1 DUP2 MSTORE PUSH1 0x20 ADD PUSH0 KECCAK256 PUSH1 0x2 ADD PUSH0 SWAP1 SLOAD SWAP1 PUSH2 0x100 EXP SWAP1 DIV PUSH1 0xFF AND ISZERO PUSH2 0x1913 JUMPI PUSH1 0x40 MLOAD PUSH32 0x8C379A000000000000000000000000000000000000000000000000000000000 DUP2 MSTORE PUSH1 0x4 ADD PUSH2 0x190A SWAP1 PUSH2 0x4B97 JUMP JUMPDEST PUSH1 0x40 MLOAD DUP1 SWAP2 SUB SWAP1 REVERT JUMPDEST PUSH1 0x1 DUP4 PUSH1 0x6 ADD PUSH0 DUP4 DUP2 MSTORE PUSH1 0x20 ADD SWAP1 DUP2 MSTORE PUSH1 0x20 ADD PUSH0 KECCAK256 PUSH1 0x2 ADD PUSH0 PUSH2 0x100 EXP DUP2 SLOAD DUP2 PUSH1 0xFF MUL NOT AND SWAP1 DUP4 ISZERO ISZERO MUL OR SWAP1 SSTORE POP TIMESTAMP DUP4 PUSH1 0xA ADD DUP2 SWAP1 SSTORE POP CALLER PUSH20 0xFFFFFFFFFFFFFFFFFFFFFFFFFFFFFFFFFFFFFFFF AND DUP5 PUSH32 0xF7A652DE63DA46D087A8AB25D4A13102E7A74085819FA17527271F9E5E7F9A5C DUP6 PUSH1 0x6 ADD PUSH0 DUP6 DUP2 MSTORE PUSH1 0x20 ADD SWAP1 DUP2 MSTORE PUSH1 0x20 ADD PUSH0 KECCAK256 PUSH1 0x1 ADD SLOAD PUSH1 0x40 MLOAD PUSH2 0x19A7 SWAP2 SWAP1 PUSH2 0x3B42 JUMP JUMPDEST PUSH1 0x40 MLOAD DUP1 SWAP2 SUB SWAP1 LOG3 POP POP POP POP JUMP JUMPDEST PUSH0 PUSH1 0x5 PUSH0 DUP6 DUP2 MSTORE PUSH1 0x20 ADD SWAP1 DUP2 MSTORE PUSH1 0x20 ADD PUSH0 KECCAK256 SWAP1 POP PUSH0 PUSH1 0x3 DUP2 GT ISZERO PUSH2 0x19DC JUMPI PUSH2 0x19DB PUSH2 0x3A3D JUMP JUMPDEST JUMPDEST DUP2 PUSH1 0x4 ADD PUSH0 SWAP1 SLOAD SWAP1 PUSH2 0x100 EXP SWAP1 DIV PUSH1 0xFF AND PUSH1 0x3 DUP2 GT ISZERO PUSH2 0x19FF JUMPI PUSH2 0x19FE PUSH2 0x3A3D JUMP JUMPDEST JUMPDEST EQ PUSH2 0x1A3F JUMPI PUSH1 0x40 MLOAD PUSH32 0x8C379A000000000000000000000000000000000000000000000000000000000 DUP2 MSTORE PUSH1 0x4 ADD PUSH2 0x1A36 SWAP1 PUSH2 0x4AA1 JUMP JUMPDEST PUSH1 0x40 MLOAD DUP1 SWAP2 SUB SWAP1 REVERT JUMPDEST PUSH1 0x3 DUP2 PUSH1 0x7 ADD SLOAD LT PUSH2 0x1A86 JUMPI PUSH1 0x40 MLOAD PUSH32 0x8C379A000000000000000000000000000000000000000000000000000000000 DUP2 MSTORE PUSH1 0x4 ADD PUSH2 0x1A7D SWAP1 PUSH2 0x4BFF JUMP JUMPDEST PUSH1 0x40 MLOAD DUP1 SWAP2 SUB SWAP1 REVERT JUMPDEST PUSH0 DUP3 GT DUP1 ISZERO PUSH2 0x1A97 JUMPI POP PUSH2 0x2710 DUP3 GT ISZERO JUMPDEST PUSH2 0x1AD6 JUMPI PUSH1 0x40 MLOAD PUSH32 0x8C379A000000000000000000000000000000000000000000000000000000000 DUP2 MSTORE PUSH1 0x4 ADD PUSH2 0x1ACD SWAP1 PUSH2 0x4C67 JUMP JUMPDEST PUSH1 0x40 MLOAD DUP1 SWAP2 SUB SWAP1 REVERT JUMPDEST PUSH0 DUP3 SWAP1 POP PUSH0 JUMPDEST DUP3 PUSH1 0x7 ADD SLOAD DUP2 LT ISZERO PUSH2 0x1B19 JUMPI DUP3 PUSH1 0x8 ADD PUSH0 DUP3 DUP2 MSTORE PUSH1 0x20 ADD SWAP1 DUP2 MSTORE PUSH1 0x20 ADD PUSH0 KECCAK256 PUSH1 0x1 ADD SLOAD DUP3 PUSH2 0x1B0A SWAP2 SWAP1 PUSH2 0x46CB JUMP JUMPDEST SWAP2 POP DUP1 DUP1 PUSH1 0x1 ADD SWAP2 POP POP PUSH2 0x1ADC JUMP JUMPDEST POP PUSH2 0x2710 DUP2 GT ISZERO PUSH2 0x1B5F JUMPI PUSH1 0x40 MLOAD PUSH32 0x8C379A000000000000000000000000000000000000000000000000000000000 DUP2 MSTORE PUSH1 0x4 ADD PUSH2 0x1B56 SWAP1 PUSH2 0x4CCF JUMP JUMPDEST PUSH1 0x40 MLOAD DUP1 SWAP2 SUB SWAP1 REVERT JUMPDEST PUSH1 0x40 MLOAD DUP1 PUSH1 0x80 ADD PUSH1 0x40 MSTORE DUP1 DUP6 PUSH20 0xFFFFFFFFFFFFFFFFFFFFFFFFFFFFFFFFFFFFFFFF AND DUP2 MSTORE PUSH1 0x20 ADD DUP5 DUP2 MSTORE PUSH1 0x20 ADD PUSH0 DUP2 MSTORE PUSH1 0x20 ADD PUSH0 ISZERO ISZERO DUP2 MSTORE POP DUP3 PUSH1 0x8 ADD PUSH0 DUP5 PUSH1 0x7 ADD SLOAD DUP2 MSTORE PUSH1 0x20 ADD SWAP1 DUP2 MSTORE PUSH1 0x20 ADD PUSH0 KECCAK256 PUSH0 DUP3 ADD MLOAD DUP2 PUSH0 ADD PUSH0 PUSH2 0x100 EXP DUP2 SLOAD DUP2 PUSH20 0xFFFFFFFFFFFFFFFFFFFFFFFFFFFFFFFFFFFFFFFF MUL NOT AND SWAP1 DUP4 PUSH20 0xFFFFFFFFFFFFFFFFFFFFFFFFFFFFFFFFFFFFFFFF AND MUL OR SWAP1 SSTORE POP PUSH1 0x20 DUP3 ADD MLOAD DUP2 PUSH1 0x1 ADD SSTORE PUSH1 0x40 DUP3 ADD MLOAD DUP2 PUSH1 0x2 ADD SSTORE PUSH1 0x60 DUP3 ADD MLOAD DUP2 PUSH1 0x3 ADD PUSH0 PUSH2 0x100 EXP DUP2 SLOAD DUP2 PUSH1 0xFF MUL NOT AND SWAP1 DUP4 ISZERO ISZERO MUL OR SWAP1 SSTORE POP SWAP1 POP POP DUP2 PUSH1 0x7 ADD PUSH0 DUP2 SLOAD DUP1 SWAP3 SWAP2 SWAP1 PUSH2 0x1C3D SWAP1 PUSH2 0x4885 JUMP JUMPDEST SWAP2 SWAP1 POP SSTORE POP TIMESTAMP DUP3 PUSH1 0xA ADD DUP2 SWAP1 SSTORE POP PUSH2 0x2710 DUP2 SUB PUSH2 0x1CCF JUMPI PUSH1 0x1 DUP3 PUSH1 0x4 ADD PUSH0 PUSH2 0x100 EXP DUP2 SLOAD DUP2 PUSH1 0xFF MUL NOT AND SWAP1 DUP4 PUSH1 0x3 DUP2 GT ISZERO PUSH2 0x1C7B JUMPI PUSH2 0x1C7A PUSH2 0x3A3D JUMP JUMPDEST JUMPDEST MUL OR SWAP1 SSTORE POP DUP5 PUSH32 0x2029FF33A5CEFA752541F9DD453384DF0D463D7C42B66CF937F5112F76D4F545 DUP4 PUSH1 0x3 ADD SLOAD DUP5 PUSH1 0x4 ADD PUSH0 SWAP1 SLOAD SWAP1 PUSH2 0x100 EXP SWAP1 DIV PUSH1 0xFF AND PUSH1 0x40 MLOAD PUSH2 0x1CC6 SWAP3 SWAP2 SWAP1 PUSH2 0x4799 JUMP JUMPDEST PUSH1 0x40 MLOAD DUP1 SWAP2 SUB SWAP1 LOG2 JUMPDEST DUP4 PUSH20 0xFFFFFFFFFFFFFFFFFFFFFFFFFFFFFFFFFFFFFFFF AND DUP6 PUSH32 0xC6A942827EE49928926ECF863DF111A88A435F513D60FF6C606BBE1C39B5E4E1 DUP6 PUSH1 0x40 MLOAD PUSH2 0x1D16 SWAP2 SWAP1 PUSH2 0x3B42 JUMP JUMPDEST PUSH1 0x40 MLOAD DUP1 SWAP2 SUB SWAP1 LOG3 POP POP POP POP POP JUMP JUMPDEST PUSH1 0x60 PUSH0 DUP1 PUSH1 0x1 SWAP1 POP JUMPDEST PUSH1 0x4 SLOAD DUP2 GT PUSH2 0x1DF5 JUMPI PUSH0 PUSH1 0x5 PUSH0 DUP4 DUP2 MSTORE PUSH1 0x20 ADD SWAP1 DUP2 MSTORE PUSH1 0x20 ADD PUSH0 KECCAK256 SWAP1 POP PUSH0 JUMPDEST DUP2 PUSH1 0x7 ADD SLOAD DUP2 LT ISZERO PUSH2 0x1DE0 JUMPI DUP8 PUSH20 0xFFFFFFFFFFFFFFFFFFFFFFFFFFFFFFFFFFFFFFFF AND DUP3 PUSH1 0x8 ADD PUSH0 DUP4 DUP2 MSTORE PUSH1 0x20 ADD SWAP1 DUP2 MSTORE PUSH1 0x20 ADD PUSH0 KECCAK256 PUSH0 ADD PUSH0 SWAP1 SLOAD SWAP1 PUSH2 0x100 EXP SWAP1 DIV PUSH20 0xFFFFFFFFFFFFFFFFFFFFFFFFFFFFFFFFFFFFFFFF AND PUSH20 0xFFFFFFFFFFFFFFFFFFFFFFFFFFFFFFFFFFFFFFFF AND SUB PUSH2 0x1DD3 JUMPI DUP4 DUP1 PUSH2 0x1DCB SWAP1 PUSH2 0x4885 JUMP JUMPDEST SWAP5 POP POP PUSH2 0x1DE0 JUMP JUMPDEST DUP1 DUP1 PUSH1 0x1 ADD SWAP2 POP POP PUSH2 0x1D4D JUMP JUMPDEST POP POP DUP1 DUP1 PUSH2 0x1DED SWAP1 PUSH2 0x4885 JUMP JUMPDEST SWAP2 POP POP PUSH2 0x1D2E JUMP JUMPDEST POP PUSH0 DUP2 SUB PUSH2 0x1E4E JUMPI PUSH0 PUSH8 0xFFFFFFFFFFFFFFFF DUP2 GT ISZERO PUSH2 0x1E17 JUMPI PUSH2 0x1E16 PUSH2 0x3F47 JUMP JUMPDEST JUMPDEST PUSH1 0x40 MLOAD SWAP1 DUP1 DUP3 MSTORE DUP1 PUSH1 0x20 MUL PUSH1 0x20 ADD DUP3 ADD PUSH1 0x40 MSTORE DUP1 ISZERO PUSH2 0x1E45 JUMPI DUP2 PUSH1 0x20 ADD PUSH1 0x20 DUP3 MUL DUP1 CALLDATASIZE DUP4 CALLDATACOPY DUP1 DUP3 ADD SWAP2 POP POP SWAP1 POP JUMPDEST POP SWAP2 POP POP PUSH2 0x201A JUMP JUMPDEST PUSH0 DUP5 SWAP1 POP DUP4 DUP3 PUSH2 0x1E5E SWAP2 SWAP1 PUSH2 0x4766 JUMP JUMPDEST DUP2 GT ISZERO PUSH2 0x1E8D JUMPI PUSH0 DUP5 DUP4 PUSH2 0x1E72 SWAP2 SWAP1 PUSH2 0x4766 JUMP JUMPDEST GT PUSH2 0x1E7D JUMPI PUSH0 PUSH2 0x1E8A JUMP JUMPDEST DUP4 DUP3 PUSH2 0x1E89 SWAP2 SWAP1 PUSH2 0x4766 JUMP JUMPDEST JUMPDEST SWAP1 POP JUMPDEST PUSH0 DUP2 PUSH8 0xFFFFFFFFFFFFFFFF DUP2 GT ISZERO PUSH2 0x1EA8 JUMPI PUSH2 0x1EA7 PUSH2 0x3F47 JUMP JUMPDEST JUMPDEST PUSH1 0x40 MLOAD SWAP1 DUP1 DUP3 MSTORE DUP1 PUSH1 0x20 MUL PUSH1 0x20 ADD DUP3 ADD PUSH1 0x40 MSTORE DUP1 ISZERO PUSH2 0x1ED6 JUMPI DUP2 PUSH1 0x20 ADD PUSH1 0x20 DUP3 MUL DUP1 CALLDATASIZE DUP4 CALLDATACOPY DUP1 DUP3 ADD SWAP2 POP POP SWAP1 POP JUMPDEST POP SWAP1 POP PUSH0 DUP3 SUB PUSH2 0x1EEB JUMPI DUP1 SWAP4 POP POP POP POP PUSH2 0x201A JUMP JUMPDEST PUSH0 DUP1 PUSH0 PUSH1 0x1 SWAP1 POP JUMPDEST PUSH1 0x4 SLOAD DUP2 GT ISZERO DUP1 ISZERO PUSH2 0x1F04 JUMPI POP DUP5 DUP4 LT JUMPDEST ISZERO PUSH2 0x2010 JUMPI PUSH0 PUSH1 0x5 PUSH0 DUP4 DUP2 MSTORE PUSH1 0x20 ADD SWAP1 DUP2 MSTORE PUSH1 0x20 ADD PUSH0 KECCAK256 SWAP1 POP PUSH0 DUP1 JUMPDEST DUP3 PUSH1 0x7 ADD SLOAD DUP2 LT ISZERO PUSH2 0x1FA9 JUMPI DUP13 PUSH20 0xFFFFFFFFFFFFFFFFFFFFFFFFFFFFFFFFFFFFFFFF AND DUP4 PUSH1 0x8 ADD PUSH0 DUP4 DUP2 MSTORE PUSH1 0x20 ADD SWAP1 DUP2 MSTORE PUSH1 0x20 ADD PUSH0 KECCAK256 PUSH0 ADD PUSH0 SWAP1 SLOAD SWAP1 PUSH2 0x100 EXP SWAP1 DIV PUSH20 0xFFFFFFFFFFFFFFFFFFFFFFFFFFFFFFFFFFFFFFFF AND PUSH20 0xFFFFFFFFFFFFFFFFFFFFFFFFFFFFFFFFFFFFFFFF AND SUB PUSH2 0x1F9C JUMPI PUSH1 0x1 SWAP2 POP PUSH2 0x1FA9 JUMP JUMPDEST DUP1 DUP1 PUSH1 0x1 ADD SWAP2 POP POP PUSH2 0x1F20 JUMP JUMPDEST POP DUP1 ISZERO PUSH2 0x1FFB JUMPI DUP10 DUP5 LT ISZERO PUSH2 0x1FCB JUMPI DUP4 DUP1 PUSH2 0x1FC3 SWAP1 PUSH2 0x4885 JUMP JUMPDEST SWAP5 POP POP PUSH2 0x1FFA JUMP JUMPDEST DUP3 DUP7 DUP7 DUP2 MLOAD DUP2 LT PUSH2 0x1FDF JUMPI PUSH2 0x1FDE PUSH2 0x48CC JUMP JUMPDEST JUMPDEST PUSH1 0x20 MUL PUSH1 0x20 ADD ADD DUP2 DUP2 MSTORE POP POP DUP5 DUP1 PUSH2 0x1FF6 SWAP1 PUSH2 0x4885 JUMP JUMPDEST SWAP6 POP POP JUMPDEST JUMPDEST POP POP DUP1 DUP1 PUSH2 0x2008 SWAP1 PUSH2 0x4885 JUMP JUMPDEST SWAP2 POP POP PUSH2 0x1EF3 JUMP JUMPDEST POP DUP3 SWAP6 POP POP POP POP POP POP JUMPDEST SWAP4 SWAP3 POP POP POP JUMP JUMPDEST PUSH0 DUP1 PUSH0 DUP1 PUSH1 0x5 PUSH0 DUP8 DUP2 MSTORE PUSH1 0x20 ADD SWAP1 DUP2 MSTORE PUSH1 0x20 ADD PUSH0 KECCAK256 SWAP1 POP DUP1 PUSH1 0x5 ADD SLOAD DUP6 LT PUSH2 0x207E JUMPI PUSH1 0x40 MLOAD PUSH32 0x8C379A000000000000000000000000000000000000000000000000000000000 DUP2 MSTORE PUSH1 0x4 ADD PUSH2 0x2075 SWAP1 PUSH2 0x4D37 JUMP JUMPDEST PUSH1 0x40 MLOAD DUP1 SWAP2 SUB SWAP1 REVERT JUMPDEST PUSH0 DUP2 PUSH1 0x6 ADD PUSH0 DUP8 DUP2 MSTORE PUSH1 0x20 ADD SWAP1 DUP2 MSTORE PUSH1 0x20 ADD PUSH0 KECCAK256 SWAP1 POP DUP1 PUSH0 ADD PUSH0 SWAP1 SLOAD SWAP1 PUSH2 0x100 EXP SWAP1 DIV PUSH20 0xFFFFFFFFFFFFFFFFFFFFFFFFFFFFFFFFFFFFFFFF AND DUP2 PUSH1 0x1 ADD SLOAD DUP3 PUSH1 0x2 ADD PUSH0 SWAP1 SLOAD SWAP1 PUSH2 0x100 EXP SWAP1 DIV PUSH1 0xFF AND SWAP5 POP SWAP5 POP SWAP5 POP POP POP SWAP3 POP SWAP3 POP SWAP3 JUMP JUMPDEST PUSH0 DUP1 PUSH1 0x5 PUSH0 DUP5 DUP2 MSTORE PUSH1 0x20 ADD SWAP1 DUP2 MSTORE PUSH1 0x20 ADD PUSH0 KECCAK256 SWAP1 POP PUSH0 JUMPDEST DUP2 PUSH1 0x5 ADD SLOAD DUP2 LT ISZERO PUSH2 0x213D JUMPI DUP2 PUSH1 0x6 ADD PUSH0 DUP3 DUP2 MSTORE PUSH1 0x20 ADD SWAP1 DUP2 MSTORE PUSH1 0x20 ADD PUSH0 KECCAK256 PUSH1 0x2 ADD PUSH0 SWAP1 SLOAD SWAP1 PUSH2 0x100 EXP SWAP1 DIV PUSH1 0xFF AND PUSH2 0x2130 JUMPI PUSH0 SWAP3 POP POP POP PUSH2 0x2144 JUMP JUMPDEST DUP1 DUP1 PUSH1 0x1 ADD SWAP2 POP POP PUSH2 0x20F3 JUMP JUMPDEST POP PUSH1 0x1 SWAP2 POP POP JUMPDEST SWAP2 SWAP1 POP JUMP JUMPDEST PUSH1 0x60 PUSH0 DUP1 PUSH1 0x1 SWAP1 POP JUMPDEST PUSH1 0x4 SLOAD DUP2 GT PUSH2 0x21E3 JUMPI DUP6 PUSH20 0xFFFFFFFFFFFFFFFFFFFFFFFFFFFFFFFFFFFFFFFF AND PUSH1 0x5 PUSH0 DUP4 DUP2 MSTORE PUSH1 0x20 ADD SWAP1 DUP2 MSTORE PUSH1 0x20 ADD PUSH0 KECCAK256 PUSH1 0x2 ADD PUSH0 SWAP1 SLOAD SWAP1 PUSH2 0x100 EXP SWAP1 DIV PUSH20 0xFFFFFFFFFFFFFFFFFFFFFFFFFFFFFFFFFFFFFFFF AND PUSH20 0xFFFFFFFFFFFFFFFFFFFFFFFFFFFFFFFFFFFFFFFF AND SUB PUSH2 0x21D0 JUMPI DUP2 DUP1 PUSH2 0x21CC SWAP1 PUSH2 0x4885 JUMP JUMPDEST SWAP3 POP POP JUMPDEST DUP1 DUP1 PUSH2 0x21DB SWAP1 PUSH2 0x4885 JUMP JUMPDEST SWAP2 POP POP PUSH2 0x2152 JUMP JUMPDEST POP PUSH0 DUP2 SUB PUSH2 0x223C JUMPI PUSH0 PUSH8 0xFFFFFFFFFFFFFFFF DUP2 GT ISZERO PUSH2 0x2205 JUMPI PUSH2 0x2204 PUSH2 0x3F47 JUMP JUMPDEST JUMPDEST PUSH1 0x40 MLOAD SWAP1 DUP1 DUP3 MSTORE DUP1 PUSH1 0x20 MUL PUSH1 0x20 ADD DUP3 ADD PUSH1 0x40 MSTORE DUP1 ISZERO PUSH2 0x2233 JUMPI DUP2 PUSH1 0x20 ADD PUSH1 0x20 DUP3 MUL DUP1 CALLDATASIZE DUP4 CALLDATACOPY DUP1 DUP3 ADD SWAP2 POP POP SWAP1 POP JUMPDEST POP SWAP2 POP POP PUSH2 0x23C5 JUMP JUMPDEST PUSH0 DUP5 SWAP1 POP DUP4 DUP3 PUSH2 0x224C SWAP2 SWAP1 PUSH2 0x4766 JUMP JUMPDEST DUP2 GT ISZERO PUSH2 0x227B JUMPI PUSH0 DUP5 DUP4 PUSH2 0x2260 SWAP2 SWAP1 PUSH2 0x4766 JUMP JUMPDEST GT PUSH2 0x226B JUMPI PUSH0 PUSH2 0x2278 JUMP JUMPDEST DUP4 DUP3 PUSH2 0x2277 SWAP2 SWAP1 PUSH2 0x4766 JUMP JUMPDEST JUMPDEST SWAP1 POP JUMPDEST PUSH0 DUP2 PUSH8 0xFFFFFFFFFFFFFFFF DUP2 GT ISZERO PUSH2 0x2296 JUMPI PUSH2 0x2295 PUSH2 0x3F47 JUMP JUMPDEST JUMPDEST PUSH1 0x40 MLOAD SWAP1 DUP1 DUP3 MSTORE DUP1 PUSH1 0x20 MUL PUSH1 0x20 ADD DUP3 ADD PUSH1 0x40 MSTORE DUP1 ISZERO PUSH2 0x22C4 JUMPI DUP2 PUSH1 0x20 ADD PUSH1 0x20 DUP3 MUL DUP1 CALLDATASIZE DUP4 CALLDATACOPY DUP1 DUP3 ADD SWAP2 POP POP SWAP1 POP JUMPDEST POP SWAP1 POP PUSH0 DUP3 SUB PUSH2 0x22D9 JUMPI DUP1 SWAP4 POP POP POP POP PUSH2 0x23C5 JUMP JUMPDEST PUSH0 DUP1 PUSH0 PUSH1 0x1 SWAP1 POP JUMPDEST PUSH1 0x4 SLOAD DUP2 GT ISZERO DUP1 ISZERO PUSH2 0x22F2 JUMPI POP DUP5 DUP4 LT JUMPDEST ISZERO PUSH2 0x23BB JUMPI DUP10 PUSH20 0xFFFFFFFFFFFFFFFFFFFFFFFFFFFFFFFFFFFFFFFF AND PUSH1 0x5 PUSH0 DUP4 DUP2 MSTORE PUSH1 0x20 ADD SWAP1 DUP2 MSTORE PUSH1 0x20 ADD PUSH0 KECCAK256 PUSH1 0x2 ADD PUSH0 SWAP1 SLOAD SWAP1 PUSH2 0x100 EXP SWAP1 DIV PUSH20 0xFFFFFFFFFFFFFFFFFFFFFFFFFFFFFFFFFFFFFFFF AND PUSH20 0xFFFFFFFFFFFFFFFFFFFFFFFFFFFFFFFFFFFFFFFF AND SUB PUSH2 0x23A8 JUMPI DUP8 DUP3 LT ISZERO PUSH2 0x2378 JUMPI DUP2 DUP1 PUSH2 0x2370 SWAP1 PUSH2 0x4885 JUMP JUMPDEST SWAP3 POP POP PUSH2 0x23A7 JUMP JUMPDEST DUP1 DUP5 DUP5 DUP2 MLOAD DUP2 LT PUSH2 0x238C JUMPI PUSH2 0x238B PUSH2 0x48CC JUMP JUMPDEST JUMPDEST PUSH1 0x20 MUL PUSH1 0x20 ADD ADD DUP2 DUP2 MSTORE POP POP DUP3 DUP1 PUSH2 0x23A3 SWAP1 PUSH2 0x4885 JUMP JUMPDEST SWAP4 POP POP JUMPDEST JUMPDEST DUP1 DUP1 PUSH2 0x23B3 SWAP1 PUSH2 0x4885 JUMP JUMPDEST SWAP2 POP POP PUSH2 0x22E1 JUMP JUMPDEST POP DUP3 SWAP6 POP POP POP POP POP POP JUMPDEST SWAP4 SWAP3 POP POP POP JUMP JUMPDEST PUSH1 0x2 SLOAD DUP2 JUMP JUMPDEST PUSH0 DUP1 PUSH0 DUP1 PUSH0 PUSH1 0x5 PUSH0 DUP9 DUP2 MSTORE PUSH1 0x20 ADD SWAP1 DUP2 MSTORE PUSH1 0x20 ADD PUSH0 KECCAK256 SWAP1 POP DUP1 PUSH1 0x7 ADD SLOAD DUP7 LT PUSH2 0x2430 JUMPI PUSH1 0x40 MLOAD PUSH32 0x8C379A000000000000000000000000000000000000000000000000000000000 DUP2 MSTORE PUSH1 0x4 ADD PUSH2 0x2427 SWAP1 PUSH2 0x4D9F JUMP JUMPDEST PUSH1 0x40 MLOAD DUP1 SWAP2 SUB SWAP1 REVERT JUMPDEST PUSH0 DUP2 PUSH1 0x8 ADD PUSH0 DUP9 DUP2 MSTORE PUSH1 0x20 ADD SWAP1 DUP2 MSTORE PUSH1 0x20 ADD PUSH0 KECCAK256 SWAP1 POP DUP1 PUSH0 ADD PUSH0 SWAP1 SLOAD SWAP1 PUSH2 0x100 EXP SWAP1 DIV PUSH20 0xFFFFFFFFFFFFFFFFFFFFFFFFFFFFFFFFFFFFFFFF AND DUP2 PUSH1 0x1 ADD SLOAD DUP3 PUSH1 0x2 ADD SLOAD DUP4 PUSH1 0x3 ADD PUSH0 SWAP1 SLOAD SWAP1 PUSH2 0x100 EXP SWAP1 DIV PUSH1 0xFF AND SWAP6 POP SWAP6 POP SWAP6 POP SWAP6 POP POP POP SWAP3 SWAP6 SWAP2 SWAP5 POP SWAP3 POP JUMP JUMPDEST PUSH2 0x249F PUSH2 0x374D JUMP JUMPDEST PUSH2 0x24A8 PUSH0 PUSH2 0x37D4 JUMP JUMPDEST JUMP JUMPDEST PUSH1 0x60 PUSH0 DUP1 PUSH1 0x1 SWAP1 POP JUMPDEST PUSH1 0x7 SLOAD DUP2 GT PUSH2 0x24F9 JUMPI DUP6 PUSH1 0x6 PUSH0 DUP4 DUP2 MSTORE PUSH1 0x20 ADD SWAP1 DUP2 MSTORE PUSH1 0x20 ADD PUSH0 KECCAK256 PUSH1 0x1 ADD SLOAD SUB PUSH2 0x24E6 JUMPI DUP2 DUP1 PUSH2 0x24E2 SWAP1 PUSH2 0x4885 JUMP JUMPDEST SWAP3 POP POP JUMPDEST DUP1 DUP1 PUSH2 0x24F1 SWAP1 PUSH2 0x4885 JUMP JUMPDEST SWAP2 POP POP PUSH2 0x24B3 JUMP JUMPDEST POP PUSH0 DUP2 SUB PUSH2 0x2552 JUMPI PUSH0 PUSH8 0xFFFFFFFFFFFFFFFF DUP2 GT ISZERO PUSH2 0x251B JUMPI PUSH2 0x251A PUSH2 0x3F47 JUMP JUMPDEST JUMPDEST PUSH1 0x40 MLOAD SWAP1 DUP1 DUP3 MSTORE DUP1 PUSH1 0x20 MUL PUSH1 0x20 ADD DUP3 ADD PUSH1 0x40 MSTORE DUP1 ISZERO PUSH2 0x2549 JUMPI DUP2 PUSH1 0x20 ADD PUSH1 0x20 DUP3 MUL DUP1 CALLDATASIZE DUP4 CALLDATACOPY DUP1 DUP3 ADD SWAP2 POP POP SWAP1 POP JUMPDEST POP SWAP2 POP POP PUSH2 0x2690 JUMP JUMPDEST PUSH0 DUP5 SWAP1 POP DUP4 DUP3 PUSH2 0x2562 SWAP2 SWAP1 PUSH2 0x4766 JUMP JUMPDEST DUP2 GT ISZERO PUSH2 0x2591 JUMPI PUSH0 DUP5 DUP4 PUSH2 0x2576 SWAP2 SWAP1 PUSH2 0x4766 JUMP JUMPDEST GT PUSH2 0x2581 JUMPI PUSH0 PUSH2 0x258E JUMP JUMPDEST DUP4 DUP3 PUSH2 0x258D SWAP2 SWAP1 PUSH2 0x4766 JUMP JUMPDEST JUMPDEST SWAP1 POP JUMPDEST PUSH0 DUP2 PUSH8 0xFFFFFFFFFFFFFFFF DUP2 GT ISZERO PUSH2 0x25AC JUMPI PUSH2 0x25AB PUSH2 0x3F47 JUMP JUMPDEST JUMPDEST PUSH1 0x40 MLOAD SWAP1 DUP1 DUP3 MSTORE DUP1 PUSH1 0x20 MUL PUSH1 0x20 ADD DUP3 ADD PUSH1 0x40 MSTORE DUP1 ISZERO PUSH2 0x25DA JUMPI DUP2 PUSH1 0x20 ADD PUSH1 0x20 DUP3 MUL DUP1 CALLDATASIZE DUP4 CALLDATACOPY DUP1 DUP3 ADD SWAP2 POP POP SWAP1 POP JUMPDEST POP SWAP1 POP PUSH0 DUP3 SUB PUSH2 0x25EF JUMPI DUP1 SWAP4 POP POP POP POP PUSH2 0x2690 JUMP JUMPDEST PUSH0 DUP1 PUSH0 PUSH1 0x1 SWAP1 POP JUMPDEST PUSH1 0x7 SLOAD DUP2 GT ISZERO DUP1 ISZERO PUSH2 0x2608 JUMPI POP DUP5 DUP4 LT JUMPDEST ISZERO PUSH2 0x2686 JUMPI DUP10 PUSH1 0x6 PUSH0 DUP4 DUP2 MSTORE PUSH1 0x20 ADD SWAP1 DUP2 MSTORE PUSH1 0x20 ADD PUSH0 KECCAK256 PUSH1 0x1 ADD SLOAD SUB PUSH2 0x2673 JUMPI DUP8 DUP3 LT ISZERO PUSH2 0x2643 JUMPI DUP2 DUP1 PUSH2 0x263B SWAP1 PUSH2 0x4885 JUMP JUMPDEST SWAP3 POP POP PUSH2 0x2672 JUMP JUMPDEST DUP1 DUP5 DUP5 DUP2 MLOAD DUP2 LT PUSH2 0x2657 JUMPI PUSH2 0x2656 PUSH2 0x48CC JUMP JUMPDEST JUMPDEST PUSH1 0x20 MUL PUSH1 0x20 ADD ADD DUP2 DUP2 MSTORE POP POP DUP3 DUP1 PUSH2 0x266E SWAP1 PUSH2 0x4885 JUMP JUMPDEST SWAP4 POP POP JUMPDEST JUMPDEST DUP1 DUP1 PUSH2 0x267E SWAP1 PUSH2 0x4885 JUMP JUMPDEST SWAP2 POP POP PUSH2 0x25F7 JUMP JUMPDEST POP DUP3 SWAP6 POP POP POP POP POP POP JUMPDEST SWAP4 SWAP3 POP POP POP JUMP JUMPDEST PUSH0 DUP1 PUSH0 SWAP1 SLOAD SWAP1 PUSH2 0x100 EXP SWAP1 DIV PUSH20 0xFFFFFFFFFFFFFFFFFFFFFFFFFFFFFFFFFFFFFFFF AND SWAP1 POP SWAP1 JUMP JUMPDEST PUSH1 0x60 PUSH0 DUP1 PUSH1 0x1 SWAP1 POP JUMPDEST PUSH1 0x4 SLOAD DUP2 GT PUSH2 0x273D JUMPI DUP6 PUSH1 0x3 DUP2 GT ISZERO PUSH2 0x26E3 JUMPI PUSH2 0x26E2 PUSH2 0x3A3D JUMP JUMPDEST JUMPDEST PUSH1 0x5 PUSH0 DUP4 DUP2 MSTORE PUSH1 0x20 ADD SWAP1 DUP2 MSTORE PUSH1 0x20 ADD PUSH0 KECCAK256 PUSH1 0x4 ADD PUSH0 SWAP1 SLOAD SWAP1 PUSH2 0x100 EXP SWAP1 DIV PUSH1 0xFF AND PUSH1 0x3 DUP2 GT ISZERO PUSH2 0x2716 JUMPI PUSH2 0x2715 PUSH2 0x3A3D JUMP JUMPDEST JUMPDEST SUB PUSH2 0x272A JUMPI DUP2 DUP1 PUSH2 0x2726 SWAP1 PUSH2 0x4885 JUMP JUMPDEST SWAP3 POP POP JUMPDEST DUP1 DUP1 PUSH2 0x2735 SWAP1 PUSH2 0x4885 JUMP JUMPDEST SWAP2 POP POP PUSH2 0x26C7 JUMP JUMPDEST POP PUSH0 DUP2 SUB PUSH2 0x2796 JUMPI PUSH0 PUSH8 0xFFFFFFFFFFFFFFFF DUP2 GT ISZERO PUSH2 0x275F JUMPI PUSH2 0x275E PUSH2 0x3F47 JUMP JUMPDEST JUMPDEST PUSH1 0x40 MLOAD SWAP1 DUP1 DUP3 MSTORE DUP1 PUSH1 0x20 MUL PUSH1 0x20 ADD DUP3 ADD PUSH1 0x40 MSTORE DUP1 ISZERO PUSH2 0x278D JUMPI DUP2 PUSH1 0x20 ADD PUSH1 0x20 DUP3 MUL DUP1 CALLDATASIZE DUP4 CALLDATACOPY DUP1 DUP3 ADD SWAP2 POP POP SWAP1 POP JUMPDEST POP SWAP2 POP POP PUSH2 0x2904 JUMP JUMPDEST PUSH0 DUP5 SWAP1 POP DUP4 DUP3 PUSH2 0x27A6 SWAP2 SWAP1 PUSH2 0x4766 JUMP JUMPDEST DUP2 GT ISZERO PUSH2 0x27D5 JUMPI PUSH0 DUP5 DUP4 PUSH2 0x27BA SWAP2 SWAP1 PUSH2 0x4766 JUMP JUMPDEST GT PUSH2 0x27C5 JUMPI PUSH0 PUSH2 0x27D2 JUMP JUMPDEST DUP4 DUP3 PUSH2 0x27D1 SWAP2 SWAP1 PUSH2 0x4766 JUMP JUMPDEST JUMPDEST SWAP1 POP JUMPDEST PUSH0 DUP2 PUSH8 0xFFFFFFFFFFFFFFFF DUP2 GT ISZERO PUSH2 0x27F0 JUMPI PUSH2 0x27EF PUSH2 0x3F47 JUMP JUMPDEST JUMPDEST PUSH1 0x40 MLOAD SWAP1 DUP1 DUP3 MSTORE DUP1 PUSH1 0x20 MUL PUSH1 0x20 ADD DUP3 ADD PUSH1 0x40 MSTORE DUP1 ISZERO PUSH2 0x281E JUMPI DUP2 PUSH1 0x20 ADD PUSH1 0x20 DUP3 MUL DUP1 CALLDATASIZE DUP4 CALLDATACOPY DUP1 DUP3 ADD SWAP2 POP POP SWAP1 POP JUMPDEST POP SWAP1 POP PUSH0 DUP3 SUB PUSH2 0x2833 JUMPI DUP1 SWAP4 POP POP POP POP PUSH2 0x2904 JUMP JUMPDEST PUSH0 DUP1 PUSH0 PUSH1 0x1 SWAP1 POP JUMPDEST PUSH1 0x4 SLOAD DUP2 GT ISZERO DUP1 ISZERO PUSH2 0x284C JUMPI POP DUP5 DUP4 LT JUMPDEST ISZERO PUSH2 0x28FA JUMPI DUP10 PUSH1 0x3 DUP2 GT ISZERO PUSH2 0x2864 JUMPI PUSH2 0x2863 PUSH2 0x3A3D JUMP JUMPDEST JUMPDEST PUSH1 0x5 PUSH0 DUP4 DUP2 MSTORE PUSH1 0x20 ADD SWAP1 DUP2 MSTORE PUSH1 0x20 ADD PUSH0 KECCAK256 PUSH1 0x4 ADD PUSH0 SWAP1 SLOAD SWAP1 PUSH2 0x100 EXP SWAP1 DIV PUSH1 0xFF AND PUSH1 0x3 DUP2 GT ISZERO PUSH2 0x2897 JUMPI PUSH2 0x2896 PUSH2 0x3A3D JUMP JUMPDEST JUMPDEST SUB PUSH2 0x28E7 JUMPI DUP8 DUP3 LT ISZERO PUSH2 0x28B7 JUMPI DUP2 DUP1 PUSH2 0x28AF SWAP1 PUSH2 0x4885 JUMP JUMPDEST SWAP3 POP POP PUSH2 0x28E6 JUMP JUMPDEST DUP1 DUP5 DUP5 DUP2 MLOAD DUP2 LT PUSH2 0x28CB JUMPI PUSH2 0x28CA PUSH2 0x48CC JUMP JUMPDEST JUMPDEST PUSH1 0x20 MUL PUSH1 0x20 ADD ADD DUP2 DUP2 MSTORE POP POP DUP3 DUP1 PUSH2 0x28E2 SWAP1 PUSH2 0x4885 JUMP JUMPDEST SWAP4 POP POP JUMPDEST JUMPDEST DUP1 DUP1 PUSH2 0x28F2 SWAP1 PUSH2 0x4885 JUMP JUMPDEST SWAP2 POP POP PUSH2 0x283B JUMP JUMPDEST POP DUP3 SWAP6 POP POP POP POP POP POP JUMPDEST SWAP4 SWAP3 POP POP POP JUMP JUMPDEST PUSH1 0x6 PUSH1 0x20 MSTORE DUP1 PUSH0 MSTORE PUSH1 0x40 PUSH0 KECCAK256 PUSH0 SWAP2 POP SWAP1 POP DUP1 PUSH0 ADD SLOAD SWAP1 DUP1 PUSH1 0x1 ADD SLOAD SWAP1 DUP1 PUSH1 0x2 ADD PUSH0 SWAP1 SLOAD SWAP1 PUSH2 0x100 EXP SWAP1 DIV PUSH20 0xFFFFFFFFFFFFFFFFFFFFFFFFFFFFFFFFFFFFFFFF AND SWAP1 DUP1 PUSH1 0x3 ADD PUSH0 SWAP1 SLOAD SWAP1 PUSH2 0x100 EXP SWAP1 DIV PUSH20 0xFFFFFFFFFFFFFFFFFFFFFFFFFFFFFFFFFFFFFFFF AND SWAP1 DUP1 PUSH1 0x4 ADD SLOAD SWAP1 DUP1 PUSH1 0x5 ADD SLOAD SWAP1 DUP1 PUSH1 0x6 ADD DUP1 SLOAD PUSH2 0x298C SWAP1 PUSH2 0x4855 JUMP JUMPDEST DUP1 PUSH1 0x1F ADD PUSH1 0x20 DUP1 SWAP2 DIV MUL PUSH1 0x20 ADD PUSH1 0x40 MLOAD SWAP1 DUP2 ADD PUSH1 0x40 MSTORE DUP1 SWAP3 SWAP2 SWAP1 DUP2 DUP2 MSTORE PUSH1 0x20 ADD DUP3 DUP1 SLOAD PUSH2 0x29B8 SWAP1 PUSH2 0x4855 JUMP JUMPDEST DUP1 ISZERO PUSH2 0x2A03 JUMPI DUP1 PUSH1 0x1F LT PUSH2 0x29DA JUMPI PUSH2 0x100 DUP1 DUP4 SLOAD DIV MUL DUP4 MSTORE SWAP2 PUSH1 0x20 ADD SWAP2 PUSH2 0x2A03 JUMP JUMPDEST DUP3 ADD SWAP2 SWAP1 PUSH0 MSTORE PUSH1 0x20 PUSH0 KECCAK256 SWAP1 JUMPDEST DUP2 SLOAD DUP2 MSTORE SWAP1 PUSH1 0x1 ADD SWAP1 PUSH1 0x20 ADD DUP1 DUP4 GT PUSH2 0x29E6 JUMPI DUP3 SWAP1 SUB PUSH1 0x1F AND DUP3 ADD SWAP2 JUMPDEST POP POP POP POP POP SWAP1 POP DUP8 JUMP JUMPDEST PUSH2 0x2A15 PUSH2 0x374D JUMP JUMPDEST PUSH2 0x3E8 DUP2 GT ISZERO PUSH2 0x2A5A JUMPI PUSH1 0x40 MLOAD PUSH32 0x8C379A000000000000000000000000000000000000000000000000000000000 DUP2 MSTORE PUSH1 0x4 ADD PUSH2 0x2A51 SWAP1 PUSH2 0x4E07 JUMP JUMPDEST PUSH1 0x40 MLOAD DUP1 SWAP2 SUB SWAP1 REVERT JUMPDEST DUP1 PUSH1 0x3 DUP2 SWAP1 SSTORE POP PUSH32 0x14960EBFF9E4FBC7EAD924642E621A388C55E6DB3D20028E92770A29F9A6AC7C DUP2 PUSH1 0x40 MLOAD PUSH2 0x2A90 SWAP2 SWAP1 PUSH2 0x3B42 JUMP JUMPDEST PUSH1 0x40 MLOAD DUP1 SWAP2 SUB SWAP1 LOG1 POP JUMP JUMPDEST PUSH0 PUSH1 0x5 PUSH0 DUP6 DUP2 MSTORE PUSH1 0x20 ADD SWAP1 DUP2 MSTORE PUSH1 0x20 ADD PUSH0 KECCAK256 SWAP1 POP DUP1 PUSH1 0x2 ADD PUSH0 SWAP1 SLOAD SWAP1 PUSH2 0x100 EXP SWAP1 DIV PUSH20 0xFFFFFFFFFFFFFFFFFFFFFFFFFFFFFFFFFFFFFFFF AND PUSH20 0xFFFFFFFFFFFFFFFFFFFFFFFFFFFFFFFFFFFFFFFF AND CALLER PUSH20 0xFFFFFFFFFFFFFFFFFFFFFFFFFFFFFFFFFFFFFFFF AND EQ PUSH2 0x2B40 JUMPI PUSH1 0x40 MLOAD PUSH32 0x8C379A000000000000000000000000000000000000000000000000000000000 DUP2 MSTORE PUSH1 0x4 ADD PUSH2 0x2B37 SWAP1 PUSH2 0x4E6F JUMP JUMPDEST PUSH1 0x40 MLOAD DUP1 SWAP2 SUB SWAP1 REVERT JUMPDEST PUSH0 PUSH1 0x3 DUP2 GT ISZERO PUSH2 0x2B53 JUMPI PUSH2 0x2B52 PUSH2 0x3A3D JUMP JUMPDEST JUMPDEST DUP2 PUSH1 0x4 ADD PUSH0 SWAP1 SLOAD SWAP1 PUSH2 0x100 EXP SWAP1 DIV PUSH1 0xFF AND PUSH1 0x3 DUP2 GT ISZERO PUSH2 0x2B76 JUMPI PUSH2 0x2B75 PUSH2 0x3A3D JUMP JUMPDEST JUMPDEST EQ PUSH2 0x2BB6 JUMPI PUSH1 0x40 MLOAD PUSH32 0x8C379A000000000000000000000000000000000000000000000000000000000 DUP2 MSTORE PUSH1 0x4 ADD PUSH2 0x2BAD SWAP1 PUSH2 0x4AA1 JUMP JUMPDEST PUSH1 0x40 MLOAD DUP1 SWAP2 SUB SWAP1 REVERT JUMPDEST DUP3 DUP2 PUSH1 0x3 ADD DUP2 SWAP1 SSTORE POP DUP2 DUP2 PUSH1 0x1 ADD SWAP1 DUP2 PUSH2 0x2BD0 SWAP2 SWAP1 PUSH2 0x502A JUMP JUMPDEST POP TIMESTAMP DUP2 PUSH1 0xA ADD DUP2 SWAP1 SSTORE POP DUP4 PUSH32 0x2029FF33A5CEFA752541F9DD453384DF0D463D7C42B66CF937F5112F76D4F545 DUP5 DUP4 PUSH1 0x4 ADD PUSH0 SWAP1 SLOAD SWAP1 PUSH2 0x100 EXP SWAP1 DIV PUSH1 0xFF AND PUSH1 0x40 MLOAD PUSH2 0x2C1C SWAP3 SWAP2 SWAP1 PUSH2 0x4799 JUMP JUMPDEST PUSH1 0x40 MLOAD DUP1 SWAP2 SUB SWAP1 LOG2 POP POP POP POP JUMP JUMPDEST PUSH0 PUSH2 0x2C33 PUSH2 0x34E8 JUMP JUMPDEST PUSH1 0x2 SLOAD CALLVALUE LT ISZERO PUSH2 0x2C78 JUMPI PUSH1 0x40 MLOAD PUSH32 0x8C379A000000000000000000000000000000000000000000000000000000000 DUP2 MSTORE PUSH1 0x4 ADD PUSH2 0x2C6F SWAP1 PUSH2 0x5143 JUMP JUMPDEST PUSH1 0x40 MLOAD DUP1 SWAP2 SUB SWAP1 REVERT JUMPDEST PUSH1 0x3 DUP4 MLOAD GT ISZERO PUSH2 0x2CBD JUMPI PUSH1 0x40 MLOAD PUSH32 0x8C379A000000000000000000000000000000000000000000000000000000000 DUP2 MSTORE PUSH1 0x4 ADD PUSH2 0x2CB4 SWAP1 PUSH2 0x51D1 JUMP JUMPDEST PUSH1 0x40 MLOAD DUP1 SWAP2 SUB SWAP1 REVERT JUMPDEST DUP2 MLOAD DUP4 MLOAD EQ PUSH2 0x2D01 JUMPI PUSH1 0x40 MLOAD PUSH32 0x8C379A000000000000000000000000000000000000000000000000000000000 DUP2 MSTORE PUSH1 0x4 ADD PUSH2 0x2CF8 SWAP1 PUSH2 0x5239 JUMP JUMPDEST PUSH1 0x40 MLOAD DUP1 SWAP2 SUB SWAP1 REVERT JUMPDEST PUSH0 DUP1 JUMPDEST DUP4 MLOAD DUP2 LT ISZERO PUSH2 0x2D42 JUMPI DUP4 DUP2 DUP2 MLOAD DUP2 LT PUSH2 0x2D20 JUMPI PUSH2 0x2D1F PUSH2 0x48CC JUMP JUMPDEST JUMPDEST PUSH1 0x20 MUL PUSH1 0x20 ADD ADD MLOAD DUP3 PUSH2 0x2D33 SWAP2 SWAP1 PUSH2 0x46CB JUMP JUMPDEST SWAP2 POP DUP1 DUP1 PUSH1 0x1 ADD SWAP2 POP POP PUSH2 0x2D04 JUMP JUMPDEST POP PUSH2 0x1388 DUP2 GT ISZERO PUSH2 0x2D88 JUMPI PUSH1 0x40 MLOAD PUSH32 0x8C379A000000000000000000000000000000000000000000000000000000000 DUP2 MSTORE PUSH1 0x4 ADD PUSH2 0x2D7F SWAP1 PUSH2 0x52A1 JUMP JUMPDEST PUSH1 0x40 MLOAD DUP1 SWAP2 SUB SWAP1 REVERT JUMPDEST PUSH2 0x2D90 PUSH2 0x2697 JUMP JUMPDEST PUSH20 0xFFFFFFFFFFFFFFFFFFFFFFFFFFFFFFFFFFFFFFFF AND PUSH2 0x8FC CALLVALUE SWAP1 DUP2 ISZERO MUL SWAP1 PUSH1 0x40 MLOAD PUSH0 PUSH1 0x40 MLOAD DUP1 DUP4 SUB DUP2 DUP6 DUP9 DUP9 CALL SWAP4 POP POP POP POP ISZERO DUP1 ISZERO PUSH2 0x2DD2 JUMPI RETURNDATASIZE PUSH0 DUP1 RETURNDATACOPY RETURNDATASIZE PUSH0 REVERT JUMPDEST POP PUSH0 PUSH1 0x4 PUSH0 DUP2 SLOAD PUSH2 0x2DE2 SWAP1 PUSH2 0x4885 JUMP JUMPDEST SWAP2 SWAP1 POP DUP2 SWAP1 SSTORE SWAP1 POP PUSH0 PUSH1 0x5 PUSH0 DUP4 DUP2 MSTORE PUSH1 0x20 ADD SWAP1 DUP2 MSTORE PUSH1 0x20 ADD PUSH0 KECCAK256 SWAP1 POP DUP2 DUP2 PUSH0 ADD DUP2 SWAP1 SSTORE POP DUP8 DUP2 PUSH1 0x1 ADD SWAP1 DUP2 PUSH2 0x2E17 SWAP2 SWAP1 PUSH2 0x502A JUMP JUMPDEST POP CALLER DUP2 PUSH1 0x2 ADD PUSH0 PUSH2 0x100 EXP DUP2 SLOAD DUP2 PUSH20 0xFFFFFFFFFFFFFFFFFFFFFFFFFFFFFFFFFFFFFFFF MUL NOT AND SWAP1 DUP4 PUSH20 0xFFFFFFFFFFFFFFFFFFFFFFFFFFFFFFFFFFFFFFFF AND MUL OR SWAP1 SSTORE POP DUP7 DUP2 PUSH1 0x3 ADD DUP2 SWAP1 SSTORE POP PUSH0 DUP2 PUSH1 0x4 ADD PUSH0 PUSH2 0x100 EXP DUP2 SLOAD DUP2 PUSH1 0xFF MUL NOT AND SWAP1 DUP4 PUSH1 0x3 DUP2 GT ISZERO PUSH2 0x2E89 JUMPI PUSH2 0x2E88 PUSH2 0x3A3D JUMP JUMPDEST JUMPDEST MUL OR SWAP1 SSTORE POP DUP6 MLOAD DUP2 PUSH1 0x5 ADD DUP2 SWAP1 SSTORE POP TIMESTAMP DUP2 PUSH1 0x9 ADD DUP2 SWAP1 SSTORE POP TIMESTAMP DUP2 PUSH1 0xA ADD DUP2 SWAP1 SSTORE POP PUSH0 JUMPDEST DUP7 MLOAD DUP2 LT ISZERO PUSH2 0x2FAC JUMPI PUSH1 0x40 MLOAD DUP1 PUSH1 0x60 ADD PUSH1 0x40 MSTORE DUP1 DUP9 DUP4 DUP2 MLOAD DUP2 LT PUSH2 0x2ED3 JUMPI PUSH2 0x2ED2 PUSH2 0x48CC JUMP JUMPDEST JUMPDEST PUSH1 0x20 MUL PUSH1 0x20 ADD ADD MLOAD PUSH20 0xFFFFFFFFFFFFFFFFFFFFFFFFFFFFFFFFFFFFFFFF AND DUP2 MSTORE PUSH1 0x20 ADD DUP8 DUP4 DUP2 MLOAD DUP2 LT PUSH2 0x2F09 JUMPI PUSH2 0x2F08 PUSH2 0x48CC JUMP JUMPDEST JUMPDEST PUSH1 0x20 MUL PUSH1 0x20 ADD ADD MLOAD DUP2 MSTORE PUSH1 0x20 ADD PUSH0 ISZERO ISZERO DUP2 MSTORE POP DUP3 PUSH1 0x6 ADD PUSH0 DUP4 DUP2 MSTORE PUSH1 0x20 ADD SWAP1 DUP2 MSTORE PUSH1 0x20 ADD PUSH0 KECCAK256 PUSH0 DUP3 ADD MLOAD DUP2 PUSH0 ADD PUSH0 PUSH2 0x100 EXP DUP2 SLOAD DUP2 PUSH20 0xFFFFFFFFFFFFFFFFFFFFFFFFFFFFFFFFFFFFFFFF MUL NOT AND SWAP1 DUP4 PUSH20 0xFFFFFFFFFFFFFFFFFFFFFFFFFFFFFFFFFFFFFFFF AND MUL OR SWAP1 SSTORE POP PUSH1 0x20 DUP3 ADD MLOAD DUP2 PUSH1 0x1 ADD SSTORE PUSH1 0x40 DUP3 ADD MLOAD DUP2 PUSH1 0x2 ADD PUSH0 PUSH2 0x100 EXP DUP2 SLOAD DUP2 PUSH1 0xFF MUL NOT AND SWAP1 DUP4 ISZERO ISZERO MUL OR SWAP1 SSTORE POP SWAP1 POP POP DUP1 DUP1 PUSH1 0x1 ADD SWAP2 POP POP PUSH2 0x2EAC JUMP JUMPDEST POP PUSH2 0x2FEF DUP3 CALLER ADDRESS CALLVALUE PUSH1 0x40 MLOAD DUP1 PUSH1 0x40 ADD PUSH1 0x40 MSTORE DUP1 PUSH1 0x7 DUP2 MSTORE PUSH1 0x20 ADD PUSH32 0x4C697374696E6700000000000000000000000000000000000000000000000000 DUP2 MSTORE POP PUSH2 0x3537 JUMP JUMPDEST CALLER PUSH20 0xFFFFFFFFFFFFFFFFFFFFFFFFFFFFFFFFFFFFFFFF AND DUP3 PUSH32 0x23FB658C1698B92F5FE511A079C17ECF7965CBC3F1B873328C67E2C3C0820F1F DUP10 PUSH1 0x40 MLOAD PUSH2 0x3036 SWAP2 SWAP1 PUSH2 0x3B42 JUMP JUMPDEST PUSH1 0x40 MLOAD DUP1 SWAP2 SUB SWAP1 LOG3 DUP2 SWAP4 POP POP POP POP PUSH2 0x304C PUSH2 0x3744 JUMP JUMPDEST SWAP5 SWAP4 POP POP POP POP JUMP JUMPDEST PUSH0 PUSH1 0x7 SLOAD SWAP1 POP SWAP1 JUMP JUMPDEST PUSH1 0x7 SLOAD DUP2 JUMP JUMPDEST PUSH0 DUP1 PUSH0 DUP1 PUSH1 0x5 PUSH0 DUP8 DUP2 MSTORE PUSH1 0x20 ADD SWAP1 DUP2 MSTORE PUSH1 0x20 ADD PUSH0 KECCAK256 SWAP1 POP DUP1 PUSH1 0x7 ADD SLOAD DUP6 LT PUSH2 0x30C0 JUMPI PUSH1 0x40 MLOAD PUSH32 0x8C379A000000000000000000000000000000000000000000000000000000000 DUP2 MSTORE PUSH1 0x4 ADD PUSH2 0x30B7 SWAP1 PUSH2 0x4D9F JUMP JUMPDEST PUSH1 0x40 MLOAD DUP1 SWAP2 SUB SWAP1 REVERT JUMPDEST PUSH0 DUP2 PUSH1 0x8 ADD PUSH0 DUP8 DUP2 MSTORE PUSH1 0x20 ADD SWAP1 DUP2 MSTORE PUSH1 0x20 ADD PUSH0 KECCAK256 SWAP1 POP PUSH2 0x2710 DUP2 PUSH1 0x1 ADD SLOAD DUP4 PUSH1 0x3 ADD SLOAD PUSH2 0x30ED SWAP2 SWAP1 PUSH2 0x462D JUMP JUMPDEST PUSH2 0x30F7 SWAP2 SWAP1 PUSH2 0x469B JUMP JUMPDEST SWAP5 POP PUSH2 0x2710 PUSH1 0x3 SLOAD DUP7 PUSH2 0x310A SWAP2 SWAP1 PUSH2 0x462D JUMP JUMPDEST PUSH2 0x3114 SWAP2 SWAP1 PUSH2 0x469B JUMP JUMPDEST SWAP4 POP DUP4 DUP6 PUSH2 0x3122 SWAP2 SWAP1 PUSH2 0x46CB JUMP JUMPDEST SWAP3 POP POP POP SWAP3 POP SWAP3 POP SWAP3 JUMP JUMPDEST PUSH1 0x4 SLOAD DUP2 JUMP JUMPDEST PUSH2 0x313B PUSH2 0x374D JUMP JUMPDEST PUSH0 SELFBALANCE SWAP1 POP PUSH0 DUP2 GT PUSH2 0x3181 JUMPI PUSH1 0x40 MLOAD PUSH32 0x8C379A000000000000000000000000000000000000000000000000000000000 DUP2 MSTORE PUSH1 0x4 ADD PUSH2 0x3178 SWAP1 PUSH2 0x5309 JUMP JUMPDEST PUSH1 0x40 MLOAD DUP1 SWAP2 SUB SWAP1 REVERT JUMPDEST PUSH2 0x3189 PUSH2 0x2697 JUMP JUMPDEST PUSH20 0xFFFFFFFFFFFFFFFFFFFFFFFFFFFFFFFFFFFFFFFF AND PUSH2 0x8FC DUP3 SWAP1 DUP2 ISZERO MUL SWAP1 PUSH1 0x40 MLOAD PUSH0 PUSH1 0x40 MLOAD DUP1 DUP4 SUB DUP2 DUP6 DUP9 DUP9 CALL SWAP4 POP POP POP POP ISZERO DUP1 ISZERO PUSH2 0x31CB JUMPI RETURNDATASIZE PUSH0 DUP1 RETURNDATACOPY RETURNDATASIZE PUSH0 REVERT JUMPDEST POP POP JUMP JUMPDEST PUSH2 0x31D7 PUSH2 0x374D JUMP JUMPDEST PUSH0 PUSH20 0xFFFFFFFFFFFFFFFFFFFFFFFFFFFFFFFFFFFFFFFF AND DUP2 PUSH20 0xFFFFFFFFFFFFFFFFFFFFFFFFFFFFFFFFFFFFFFFF AND SUB PUSH2 0x3247 JUMPI PUSH0 PUSH1 0x40 MLOAD PUSH32 0x1E4FBDF700000000000000000000000000000000000000000000000000000000 DUP2 MSTORE PUSH1 0x4 ADD PUSH2 0x323E SWAP2 SWAP1 PUSH2 0x3EB3 JUMP JUMPDEST PUSH1 0x40 MLOAD DUP1 SWAP2 SUB SWAP1 REVERT JUMPDEST PUSH2 0x3250 DUP2 PUSH2 0x37D4 JUMP JUMPDEST POP JUMP JUMPDEST PUSH2 0x325B PUSH2 0x374D JUMP JUMPDEST PUSH0 DUP2 SWAP1 POP PUSH0 DUP2 PUSH20 0xFFFFFFFFFFFFFFFFFFFFFFFFFFFFFFFFFFFFFFFF AND PUSH4 0x70A08231 ADDRESS PUSH1 0x40 MLOAD DUP3 PUSH4 0xFFFFFFFF AND PUSH1 0xE0 SHL DUP2 MSTORE PUSH1 0x4 ADD PUSH2 0x3299 SWAP2 SWAP1 PUSH2 0x3EB3 JUMP JUMPDEST PUSH1 0x20 PUSH1 0x40 MLOAD DUP1 DUP4 SUB DUP2 DUP7 GAS STATICCALL ISZERO DUP1 ISZERO PUSH2 0x32B4 JUMPI RETURNDATASIZE PUSH0 DUP1 RETURNDATACOPY RETURNDATASIZE PUSH0 REVERT JUMPDEST POP POP POP POP PUSH1 0x40 MLOAD RETURNDATASIZE PUSH1 0x1F NOT PUSH1 0x1F DUP3 ADD AND DUP3 ADD DUP1 PUSH1 0x40 MSTORE POP DUP2 ADD SWAP1 PUSH2 0x32D8 SWAP2 SWAP1 PUSH2 0x533B JUMP JUMPDEST SWAP1 POP PUSH0 DUP2 GT PUSH2 0x331C JUMPI PUSH1 0x40 MLOAD PUSH32 0x8C379A000000000000000000000000000000000000000000000000000000000 DUP2 MSTORE PUSH1 0x4 ADD PUSH2 0x3313 SWAP1 PUSH2 0x53B0 JUMP JUMPDEST PUSH1 0x40 MLOAD DUP1 SWAP2 SUB SWAP1 REVERT JUMPDEST DUP2 PUSH20 0xFFFFFFFFFFFFFFFFFFFFFFFFFFFFFFFFFFFFFFFF AND PUSH4 0xA9059CBB PUSH2 0x3340 PUSH2 0x2697 JUMP JUMPDEST DUP4 PUSH1 0x40 MLOAD DUP4 PUSH4 0xFFFFFFFF AND PUSH1 0xE0 SHL DUP2 MSTORE PUSH1 0x4 ADD PUSH2 0x335E SWAP3 SWAP2 SWAP1 PUSH2 0x53CE JUMP JUMPDEST PUSH1 0x20 PUSH1 0x40 MLOAD DUP1 DUP4 SUB DUP2 PUSH0 DUP8 GAS CALL ISZERO DUP1 ISZERO PUSH2 0x337A JUMPI RETURNDATASIZE PUSH0 DUP1 RETURNDATACOPY RETURNDATASIZE PUSH0 REVERT JUMPDEST POP POP POP POP PUSH1 0x40 MLOAD RETURNDATASIZE PUSH1 0x1F NOT PUSH1 0x1F DUP3 ADD AND DUP3 ADD DUP1 PUSH1 0x40 MSTORE POP DUP2 ADD SWAP1 PUSH2 0x339E SWAP2 SWAP1 PUSH2 0x541F JUMP JUMPDEST POP POP POP POP JUMP JUMPDEST PUSH2 0x33AC PUSH2 0x374D JUMP JUMPDEST DUP1 PUSH1 0x2 DUP2 SWAP1 SSTORE POP PUSH32 0x5FB4654F1EFE30C6141EAA6855FFCB27E0B361D899B05E21B1A4D0B3E71E14DB DUP2 PUSH1 0x40 MLOAD PUSH2 0x33E2 SWAP2 SWAP1 PUSH2 0x3B42 JUMP JUMPDEST PUSH1 0x40 MLOAD DUP1 SWAP2 SUB SWAP1 LOG1 POP JUMP JUMPDEST PUSH1 0x5 PUSH1 0x20 MSTORE DUP1 PUSH0 MSTORE PUSH1 0x40 PUSH0 KECCAK256 PUSH0 SWAP2 POP SWAP1 POP DUP1 PUSH0 ADD SLOAD SWAP1 DUP1 PUSH1 0x1 ADD DUP1 SLOAD PUSH2 0x3412 SWAP1 PUSH2 0x4855 JUMP JUMPDEST DUP1 PUSH1 0x1F ADD PUSH1 0x20 DUP1 SWAP2 DIV MUL PUSH1 0x20 ADD PUSH1 0x40 MLOAD SWAP1 DUP2 ADD PUSH1 0x40 MSTORE DUP1 SWAP3 SWAP2 SWAP1 DUP2 DUP2 MSTORE PUSH1 0x20 ADD DUP3 DUP1 SLOAD PUSH2 0x343E SWAP1 PUSH2 0x4855 JUMP JUMPDEST DUP1 ISZERO PUSH2 0x3489 JUMPI DUP1 PUSH1 0x1F LT PUSH2 0x3460 JUMPI PUSH2 0x100 DUP1 DUP4 SLOAD DIV MUL DUP4 MSTORE SWAP2 PUSH1 0x20 ADD SWAP2 PUSH2 0x3489 JUMP JUMPDEST DUP3 ADD SWAP2 SWAP1 PUSH0 MSTORE PUSH1 0x20 PUSH0 KECCAK256 SWAP1 JUMPDEST DUP2 SLOAD DUP2 MSTORE SWAP1 PUSH1 0x1 ADD SWAP1 PUSH1 0x20 ADD DUP1 DUP4 GT PUSH2 0x346C JUMPI DUP3 SWAP1 SUB PUSH1 0x1F AND DUP3 ADD SWAP2 JUMPDEST POP POP POP POP POP SWAP1 DUP1 PUSH1 0x2 ADD PUSH0 SWAP1 SLOAD SWAP1 PUSH2 0x100 EXP SWAP1 DIV PUSH20 0xFFFFFFFFFFFFFFFFFFFFFFFFFFFFFFFFFFFFFFFF AND SWAP1 DUP1 PUSH1 0x3 ADD SLOAD SWAP1 DUP1 PUSH1 0x4 ADD PUSH0 SWAP1 SLOAD SWAP1 PUSH2 0x100 EXP SWAP1 DIV PUSH1 0xFF AND SWAP1 DUP1 PUSH1 0x5 ADD SLOAD SWAP1 DUP1 PUSH1 0x7 ADD SLOAD SWAP1 DUP1 PUSH1 0x9 ADD SLOAD SWAP1 DUP1 PUSH1 0xA ADD SLOAD SWAP1 POP DUP10 JUMP JUMPDEST PUSH1 0x2 PUSH1 0x1 SLOAD SUB PUSH2 0x352D JUMPI PUSH1 0x40 MLOAD PUSH32 0x8C379A000000000000000000000000000000000000000000000000000000000 DUP2 MSTORE PUSH1 0x4 ADD PUSH2 0x3524 SWAP1 PUSH2 0x5494 JUMP JUMPDEST PUSH1 0x40 MLOAD DUP1 SWAP2 SUB SWAP1 REVERT JUMPDEST PUSH1 0x2 PUSH1 0x1 DUP2 SWAP1 SSTORE POP JUMP JUMPDEST PUSH0 PUSH1 0x7 PUSH0 DUP2 SLOAD PUSH2 0x3546 SWAP1 PUSH2 0x4885 JUMP JUMPDEST SWAP2 SWAP1 POP DUP2 SWAP1 SSTORE SWAP1 POP PUSH1 0x40 MLOAD DUP1 PUSH1 0xE0 ADD PUSH1 0x40 MSTORE DUP1 DUP3 DUP2 MSTORE PUSH1 0x20 ADD DUP8 DUP2 MSTORE PUSH1 0x20 ADD DUP7 PUSH20 0xFFFFFFFFFFFFFFFFFFFFFFFFFFFFFFFFFFFFFFFF AND DUP2 MSTORE PUSH1 0x20 ADD DUP6 PUSH20 0xFFFFFFFFFFFFFFFFFFFFFFFFFFFFFFFFFFFFFFFF AND DUP2 MSTORE PUSH1 0x20 ADD DUP5 DUP2 MSTORE PUSH1 0x20 ADD TIMESTAMP DUP2 MSTORE PUSH1 0x20 ADD DUP4 DUP2 MSTORE POP PUSH1 0x6 PUSH0 DUP4 DUP2 MSTORE PUSH1 0x20 ADD SWAP1 DUP2 MSTORE PUSH1 0x20 ADD PUSH0 KECCAK256 PUSH0 DUP3 ADD MLOAD DUP2 PUSH0 ADD SSTORE PUSH1 0x20 DUP3 ADD MLOAD DUP2 PUSH1 0x1 ADD SSTORE PUSH1 0x40 DUP3 ADD MLOAD DUP2 PUSH1 0x2 ADD PUSH0 PUSH2 0x100 EXP DUP2 SLOAD DUP2 PUSH20 0xFFFFFFFFFFFFFFFFFFFFFFFFFFFFFFFFFFFFFFFF MUL NOT AND SWAP1 DUP4 PUSH20 0xFFFFFFFFFFFFFFFFFFFFFFFFFFFFFFFFFFFFFFFF AND MUL OR SWAP1 SSTORE POP PUSH1 0x60 DUP3 ADD MLOAD DUP2 PUSH1 0x3 ADD PUSH0 PUSH2 0x100 EXP DUP2 SLOAD DUP2 PUSH20 0xFFFFFFFFFFFFFFFFFFFFFFFFFFFFFFFFFFFFFFFF MUL NOT AND SWAP1 DUP4 PUSH20 0xFFFFFFFFFFFFFFFFFFFFFFFFFFFFFFFFFFFFFFFF AND MUL OR SWAP1 SSTORE POP PUSH1 0x80 DUP3 ADD MLOAD DUP2 PUSH1 0x4 ADD SSTORE PUSH1 0xA0 DUP3 ADD MLOAD DUP2 PUSH1 0x5 ADD SSTORE PUSH1 0xC0 DUP3 ADD MLOAD DUP2 PUSH1 0x6 ADD SWAP1 DUP2 PUSH2 0x3685 SWAP2 SWAP1 PUSH2 0x502A JUMP JUMPDEST POP SWAP1 POP POP DUP1 PUSH32 0xFDA02462C610E439AB97D0498C3C469E7C643692B25DF1B7EA76FE26F702BD19 DUP4 PUSH1 0x40 MLOAD PUSH2 0x36B9 SWAP2 SWAP1 PUSH2 0x54B2 JUMP JUMPDEST PUSH1 0x40 MLOAD DUP1 SWAP2 SUB SWAP1 LOG2 POP POP POP POP POP POP JUMP JUMPDEST PUSH0 DUP1 PUSH0 SWAP1 POP PUSH0 JUMPDEST DUP4 PUSH1 0x7 ADD SLOAD DUP2 LT ISZERO PUSH2 0x3736 JUMPI DUP4 PUSH1 0x8 ADD PUSH0 DUP3 DUP2 MSTORE PUSH1 0x20 ADD SWAP1 DUP2 MSTORE PUSH1 0x20 ADD PUSH0 KECCAK256 PUSH1 0x3 ADD PUSH0 SWAP1 SLOAD SWAP1 PUSH2 0x100 EXP SWAP1 DIV PUSH1 0xFF AND ISZERO PUSH2 0x3729 JUMPI DUP4 PUSH1 0x8 ADD PUSH0 DUP3 DUP2 MSTORE PUSH1 0x20 ADD SWAP1 DUP2 MSTORE PUSH1 0x20 ADD PUSH0 KECCAK256 PUSH1 0x1 ADD SLOAD DUP3 PUSH2 0x3726 SWAP2 SWAP1 PUSH2 0x46CB JUMP JUMPDEST SWAP2 POP JUMPDEST DUP1 DUP1 PUSH1 0x1 ADD SWAP2 POP POP PUSH2 0x36D0 JUMP JUMPDEST POP PUSH2 0x2710 DUP2 EQ SWAP2 POP POP SWAP2 SWAP1 POP JUMP JUMPDEST PUSH1 0x1 DUP1 DUP2 SWAP1 SSTORE POP JUMP JUMPDEST PUSH2 0x3755 PUSH2 0x3895 JUMP JUMPDEST PUSH20 0xFFFFFFFFFFFFFFFFFFFFFFFFFFFFFFFFFFFFFFFF AND PUSH2 0x3773 PUSH2 0x2697 JUMP JUMPDEST PUSH20 0xFFFFFFFFFFFFFFFFFFFFFFFFFFFFFFFFFFFFFFFF AND EQ PUSH2 0x37D2 JUMPI PUSH2 0x3796 PUSH2 0x3895 JUMP JUMPDEST PUSH1 0x40 MLOAD PUSH32 0x118CDAA700000000000000000000000000000000000000000000000000000000 DUP2 MSTORE PUSH1 0x4 ADD PUSH2 0x37C9 SWAP2 SWAP1 PUSH2 0x3EB3 JUMP JUMPDEST PUSH1 0x40 MLOAD DUP1 SWAP2 SUB SWAP1 REVERT JUMPDEST JUMP JUMPDEST PUSH0 DUP1 PUSH0 SWAP1 SLOAD SWAP1 PUSH2 0x100 EXP SWAP1 DIV PUSH20 0xFFFFFFFFFFFFFFFFFFFFFFFFFFFFFFFFFFFFFFFF AND SWAP1 POP DUP2 PUSH0 DUP1 PUSH2 0x100 EXP DUP2 SLOAD DUP2 PUSH20 0xFFFFFFFFFFFFFFFFFFFFFFFFFFFFFFFFFFFFFFFF MUL NOT AND SWAP1 DUP4 PUSH20 0xFFFFFFFFFFFFFFFFFFFFFFFFFFFFFFFFFFFFFFFF AND MUL OR SWAP1 SSTORE POP DUP2 PUSH20 0xFFFFFFFFFFFFFFFFFFFFFFFFFFFFFFFFFFFFFFFF AND DUP2 PUSH20 0xFFFFFFFFFFFFFFFFFFFFFFFFFFFFFFFFFFFFFFFF AND PUSH32 0x8BE0079C531659141344CD1FD0A4F28419497F9722A3DAAFE3B4186F6B6457E0 PUSH1 0x40 MLOAD PUSH1 0x40 MLOAD DUP1 SWAP2 SUB SWAP1 LOG3 POP POP JUMP JUMPDEST PUSH0 CALLER SWAP1 POP SWAP1 JUMP JUMPDEST PUSH0 PUSH1 0x40 MLOAD SWAP1 POP SWAP1 JUMP JUMPDEST PUSH0 DUP1 REVERT JUMPDEST PUSH0 DUP1 REVERT JUMPDEST PUSH0 DUP2 SWAP1 POP SWAP2 SWAP1 POP JUMP JUMPDEST PUSH2 0x38BF DUP2 PUSH2 0x38AD JUMP JUMPDEST DUP2 EQ PUSH2 0x38C9 JUMPI PUSH0 DUP1 REVERT JUMPDEST POP JUMP JUMPDEST PUSH0 DUP2 CALLDATALOAD SWAP1 POP PUSH2 0x38DA DUP2 PUSH2 0x38B6 JUMP JUMPDEST SWAP3 SWAP2 POP POP JUMP JUMPDEST PUSH0 PUSH1 0x20 DUP3 DUP5 SUB SLT ISZERO PUSH2 0x38F5 JUMPI PUSH2 0x38F4 PUSH2 0x38A5 JUMP JUMPDEST JUMPDEST PUSH0 PUSH2 0x3902 DUP5 DUP3 DUP6 ADD PUSH2 0x38CC JUMP JUMPDEST SWAP2 POP POP SWAP3 SWAP2 POP POP JUMP JUMPDEST PUSH2 0x3914 DUP2 PUSH2 0x38AD JUMP JUMPDEST DUP3 MSTORE POP POP JUMP JUMPDEST PUSH0 PUSH20 0xFFFFFFFFFFFFFFFFFFFFFFFFFFFFFFFFFFFFFFFF DUP3 AND SWAP1 POP SWAP2 SWAP1 POP JUMP JUMPDEST PUSH0 PUSH2 0x3943 DUP3 PUSH2 0x391A JUMP JUMPDEST SWAP1 POP SWAP2 SWAP1 POP JUMP JUMPDEST PUSH2 0x3953 DUP2 PUSH2 0x3939 JUMP JUMPDEST DUP3 MSTORE POP POP JUMP JUMPDEST PUSH0 DUP2 MLOAD SWAP1 POP SWAP2 SWAP1 POP JUMP JUMPDEST PUSH0 DUP3 DUP3 MSTORE PUSH1 0x20 DUP3 ADD SWAP1 POP SWAP3 SWAP2 POP POP JUMP JUMPDEST DUP3 DUP2 DUP4 MCOPY PUSH0 DUP4 DUP4 ADD MSTORE POP POP POP JUMP JUMPDEST PUSH0 PUSH1 0x1F NOT PUSH1 0x1F DUP4 ADD AND SWAP1 POP SWAP2 SWAP1 POP JUMP JUMPDEST PUSH0 PUSH2 0x399B DUP3 PUSH2 0x3959 JUMP JUMPDEST PUSH2 0x39A5 DUP2 DUP6 PUSH2 0x3963 JUMP JUMPDEST SWAP4 POP PUSH2 0x39B5 DUP2 DUP6 PUSH1 0x20 DUP7 ADD PUSH2 0x3973 JUMP JUMPDEST PUSH2 0x39BE DUP2 PUSH2 0x3981 JUMP JUMPDEST DUP5 ADD SWAP2 POP POP SWAP3 SWAP2 POP POP JUMP JUMPDEST PUSH0 PUSH1 0xE0 DUP3 ADD SWAP1 POP PUSH2 0x39DC PUSH0 DUP4 ADD DUP11 PUSH2 0x390B JUMP JUMPDEST PUSH2 0x39E9 PUSH1 0x20 DUP4 ADD DUP10 PUSH2 0x390B JUMP JUMPDEST PUSH2 0x39F6 PUSH1 0x40 DUP4 ADD DUP9 PUSH2 0x394A JUMP JUMPDEST PUSH2 0x3A03 PUSH1 0x60 DUP4 ADD DUP8 PUSH2 0x394A JUMP JUMPDEST PUSH2 0x3A10 PUSH1 0x80 DUP4 ADD DUP7 PUSH2 0x390B JUMP JUMPDEST PUSH2 0x3A1D PUSH1 0xA0 DUP4 ADD DUP6 PUSH2 0x390B JUMP JUMPDEST DUP2 DUP2 SUB PUSH1 0xC0 DUP4 ADD MSTORE PUSH2 0x3A2F DUP2 DUP5 PUSH2 0x3991 JUMP JUMPDEST SWAP1 POP SWAP9 SWAP8 POP POP POP POP POP POP POP POP JUMP JUMPDEST PUSH32 0x4E487B7100000000000000000000000000000000000000000000000000000000 PUSH0 MSTORE PUSH1 0x21 PUSH1 0x4 MSTORE PUSH1 0x24 PUSH0 REVERT JUMPDEST PUSH1 0x4 DUP2 LT PUSH2 0x3A7B JUMPI PUSH2 0x3A7A PUSH2 0x3A3D JUMP JUMPDEST JUMPDEST POP JUMP JUMPDEST PUSH0 DUP2 SWAP1 POP PUSH2 0x3A8B DUP3 PUSH2 0x3A6A JUMP JUMPDEST SWAP2 SWAP1 POP JUMP JUMPDEST PUSH0 PUSH2 0x3A9A DUP3 PUSH2 0x3A7E JUMP JUMPDEST SWAP1 POP SWAP2 SWAP1 POP JUMP JUMPDEST PUSH2 0x3AAA DUP2 PUSH2 0x3A90 JUMP JUMPDEST DUP3 MSTORE POP POP JUMP JUMPDEST PUSH0 PUSH2 0x120 DUP3 ADD SWAP1 POP PUSH2 0x3AC4 PUSH0 DUP4 ADD DUP13 PUSH2 0x390B JUMP JUMPDEST DUP2 DUP2 SUB PUSH1 0x20 DUP4 ADD MSTORE PUSH2 0x3AD6 DUP2 DUP12 PUSH2 0x3991 JUMP JUMPDEST SWAP1 POP PUSH2 0x3AE5 PUSH1 0x40 DUP4 ADD DUP11 PUSH2 0x394A JUMP JUMPDEST PUSH2 0x3AF2 PUSH1 0x60 DUP4 ADD DUP10 PUSH2 0x390B JUMP JUMPDEST PUSH2 0x3AFF PUSH1 0x80 DUP4 ADD DUP9 PUSH2 0x3AA1 JUMP JUMPDEST PUSH2 0x3B0C PUSH1 0xA0 DUP4 ADD DUP8 PUSH2 0x390B JUMP JUMPDEST PUSH2 0x3B19 PUSH1 0xC0 DUP4 ADD DUP7 PUSH2 0x390B JUMP JUMPDEST PUSH2 0x3B26 PUSH1 0xE0 DUP4 ADD DUP6 PUSH2 0x390B JUMP JUMPDEST PUSH2 0x3B34 PUSH2 0x100 DUP4 ADD DUP5 PUSH2 0x390B JUMP JUMPDEST SWAP11 SWAP10 POP POP POP POP POP POP POP POP POP POP JUMP JUMPDEST PUSH0 PUSH1 0x20 DUP3 ADD SWAP1 POP PUSH2 0x3B55 PUSH0 DUP4 ADD DUP5 PUSH2 0x390B JUMP JUMPDEST SWAP3 SWAP2 POP POP JUMP JUMPDEST PUSH0 PUSH1 0x80 DUP3 ADD SWAP1 POP PUSH2 0x3B6E PUSH0 DUP4 ADD DUP8 PUSH2 0x390B JUMP JUMPDEST PUSH2 0x3B7B PUSH1 0x20 DUP4 ADD DUP7 PUSH2 0x390B JUMP JUMPDEST PUSH2 0x3B88 PUSH1 0x40 DUP4 ADD DUP6 PUSH2 0x390B JUMP JUMPDEST PUSH2 0x3B95 PUSH1 0x60 DUP4 ADD DUP5 PUSH2 0x390B JUMP JUMPDEST SWAP6 SWAP5 POP POP POP POP POP JUMP JUMPDEST PUSH0 DUP2 MLOAD SWAP1 POP SWAP2 SWAP1 POP JUMP JUMPDEST PUSH0 DUP3 DUP3 MSTORE PUSH1 0x20 DUP3 ADD SWAP1 POP SWAP3 SWAP2 POP POP JUMP JUMPDEST PUSH0 DUP2 SWAP1 POP PUSH1 0x20 DUP3 ADD SWAP1 POP SWAP2 SWAP1 POP JUMP JUMPDEST PUSH2 0x3BD0 DUP2 PUSH2 0x38AD JUMP JUMPDEST DUP3 MSTORE POP POP JUMP JUMPDEST PUSH0 PUSH2 0x3BE1 DUP4 DUP4 PUSH2 0x3BC7 JUMP JUMPDEST PUSH1 0x20 DUP4 ADD SWAP1 POP SWAP3 SWAP2 POP POP JUMP JUMPDEST PUSH0 PUSH1 0x20 DUP3 ADD SWAP1 POP SWAP2 SWAP1 POP JUMP JUMPDEST PUSH0 PUSH2 0x3C03 DUP3 PUSH2 0x3B9E JUMP JUMPDEST PUSH2 0x3C0D DUP2 DUP6 PUSH2 0x3BA8 JUMP JUMPDEST SWAP4 POP PUSH2 0x3C18 DUP4 PUSH2 0x3BB8 JUMP JUMPDEST DUP1 PUSH0 JUMPDEST DUP4 DUP2 LT ISZERO PUSH2 0x3C48 JUMPI DUP2 MLOAD PUSH2 0x3C2F DUP9 DUP3 PUSH2 0x3BD6 JUMP JUMPDEST SWAP8 POP PUSH2 0x3C3A DUP4 PUSH2 0x3BED JUMP JUMPDEST SWAP3 POP POP PUSH1 0x1 DUP2 ADD SWAP1 POP PUSH2 0x3C1B JUMP JUMPDEST POP DUP6 SWAP4 POP POP POP POP SWAP3 SWAP2 POP POP JUMP JUMPDEST PUSH0 PUSH1 0x20 DUP3 ADD SWAP1 POP DUP2 DUP2 SUB PUSH0 DUP4 ADD MSTORE PUSH2 0x3C6D DUP2 DUP5 PUSH2 0x3BF9 JUMP JUMPDEST SWAP1 POP SWAP3 SWAP2 POP POP JUMP JUMPDEST PUSH0 PUSH2 0x3C7F DUP3 PUSH2 0x391A JUMP JUMPDEST SWAP1 POP SWAP2 SWAP1 POP JUMP JUMPDEST PUSH2 0x3C8F DUP2 PUSH2 0x3C75 JUMP JUMPDEST DUP2 EQ PUSH2 0x3C99 JUMPI PUSH0 DUP1 REVERT JUMPDEST POP JUMP JUMPDEST PUSH0 DUP2 CALLDATALOAD SWAP1 POP PUSH2 0x3CAA DUP2 PUSH2 0x3C86 JUMP JUMPDEST SWAP3 SWAP2 POP POP JUMP JUMPDEST PUSH0 DUP1 PUSH0 PUSH1 0x60 DUP5 DUP7 SUB SLT ISZERO PUSH2 0x3CC7 JUMPI PUSH2 0x3CC6 PUSH2 0x38A5 JUMP JUMPDEST JUMPDEST PUSH0 PUSH2 0x3CD4 DUP7 DUP3 DUP8 ADD PUSH2 0x38CC JUMP JUMPDEST SWAP4 POP POP PUSH1 0x20 PUSH2 0x3CE5 DUP7 DUP3 DUP8 ADD PUSH2 0x3C9C JUMP JUMPDEST SWAP3 POP POP PUSH1 0x40 PUSH2 0x3CF6 DUP7 DUP3 DUP8 ADD PUSH2 0x38CC JUMP JUMPDEST SWAP2 POP POP SWAP3 POP SWAP3 POP SWAP3 JUMP JUMPDEST PUSH2 0x3D09 DUP2 PUSH2 0x3939 JUMP JUMPDEST DUP2 EQ PUSH2 0x3D13 JUMPI PUSH0 DUP1 REVERT JUMPDEST POP JUMP JUMPDEST PUSH0 DUP2 CALLDATALOAD SWAP1 POP PUSH2 0x3D24 DUP2 PUSH2 0x3D00 JUMP JUMPDEST SWAP3 SWAP2 POP POP JUMP JUMPDEST PUSH0 DUP1 PUSH0 PUSH1 0x60 DUP5 DUP7 SUB SLT ISZERO PUSH2 0x3D41 JUMPI PUSH2 0x3D40 PUSH2 0x38A5 JUMP JUMPDEST JUMPDEST PUSH0 PUSH2 0x3D4E DUP7 DUP3 DUP8 ADD PUSH2 0x3D16 JUMP JUMPDEST SWAP4 POP POP PUSH1 0x20 PUSH2 0x3D5F DUP7 DUP3 DUP8 ADD PUSH2 0x38CC JUMP JUMPDEST SWAP3 POP POP PUSH1 0x40 PUSH2 0x3D70 DUP7 DUP3 DUP8 ADD PUSH2 0x38CC JUMP JUMPDEST SWAP2 POP POP SWAP3 POP SWAP3 POP SWAP3 JUMP JUMPDEST PUSH0 DUP1 PUSH1 0x40 DUP4 DUP6 SUB SLT ISZERO PUSH2 0x3D90 JUMPI PUSH2 0x3D8F PUSH2 0x38A5 JUMP JUMPDEST JUMPDEST PUSH0 PUSH2 0x3D9D DUP6 DUP3 DUP7 ADD PUSH2 0x38CC JUMP JUMPDEST SWAP3 POP POP PUSH1 0x20 PUSH2 0x3DAE DUP6 DUP3 DUP7 ADD PUSH2 0x38CC JUMP JUMPDEST SWAP2 POP POP SWAP3 POP SWAP3 SWAP1 POP JUMP JUMPDEST PUSH0 DUP2 ISZERO ISZERO SWAP1 POP SWAP2 SWAP1 POP JUMP JUMPDEST PUSH2 0x3DCC DUP2 PUSH2 0x3DB8 JUMP JUMPDEST DUP3 MSTORE POP POP JUMP JUMPDEST PUSH0 PUSH1 0x60 DUP3 ADD SWAP1 POP PUSH2 0x3DE5 PUSH0 DUP4 ADD DUP7 PUSH2 0x394A JUMP JUMPDEST PUSH2 0x3DF2 PUSH1 0x20 DUP4 ADD DUP6 PUSH2 0x390B JUMP JUMPDEST PUSH2 0x3DFF PUSH1 0x40 DUP4 ADD DUP5 PUSH2 0x3DC3 JUMP JUMPDEST SWAP5 SWAP4 POP POP POP POP JUMP JUMPDEST PUSH0 PUSH1 0x20 DUP3 ADD SWAP1 POP PUSH2 0x3E1A PUSH0 DUP4 ADD DUP5 PUSH2 0x3DC3 JUMP JUMPDEST SWAP3 SWAP2 POP POP JUMP JUMPDEST PUSH0 PUSH1 0x80 DUP3 ADD SWAP1 POP PUSH2 0x3E33 PUSH0 DUP4 ADD DUP8 PUSH2 0x394A JUMP JUMPDEST PUSH2 0x3E40 PUSH1 0x20 DUP4 ADD DUP7 PUSH2 0x390B JUMP JUMPDEST PUSH2 0x3E4D PUSH1 0x40 DUP4 ADD DUP6 PUSH2 0x390B JUMP JUMPDEST PUSH2 0x3E5A PUSH1 0x60 DUP4 ADD DUP5 PUSH2 0x3DC3 JUMP JUMPDEST SWAP6 SWAP5 POP POP POP POP POP JUMP JUMPDEST PUSH0 DUP1 PUSH0 PUSH1 0x60 DUP5 DUP7 SUB SLT ISZERO PUSH2 0x3E7A JUMPI PUSH2 0x3E79 PUSH2 0x38A5 JUMP JUMPDEST JUMPDEST PUSH0 PUSH2 0x3E87 DUP7 DUP3 DUP8 ADD PUSH2 0x38CC JUMP JUMPDEST SWAP4 POP POP PUSH1 0x20 PUSH2 0x3E98 DUP7 DUP3 DUP8 ADD PUSH2 0x38CC JUMP JUMPDEST SWAP3 POP POP PUSH1 0x40 PUSH2 0x3EA9 DUP7 DUP3 DUP8 ADD PUSH2 0x38CC JUMP JUMPDEST SWAP2 POP POP SWAP3 POP SWAP3 POP SWAP3 JUMP JUMPDEST PUSH0 PUSH1 0x20 DUP3 ADD SWAP1 POP PUSH2 0x3EC6 PUSH0 DUP4 ADD DUP5 PUSH2 0x394A JUMP JUMPDEST SWAP3 SWAP2 POP POP JUMP JUMPDEST PUSH1 0x4 DUP2 LT PUSH2 0x3ED8 JUMPI PUSH0 DUP1 REVERT JUMPDEST POP JUMP JUMPDEST PUSH0 DUP2 CALLDATALOAD SWAP1 POP PUSH2 0x3EE9 DUP2 PUSH2 0x3ECC JUMP JUMPDEST SWAP3 SWAP2 POP POP JUMP JUMPDEST PUSH0 DUP1 PUSH0 PUSH1 0x60 DUP5 DUP7 SUB SLT ISZERO PUSH2 0x3F06 JUMPI PUSH2 0x3F05 PUSH2 0x38A5 JUMP JUMPDEST JUMPDEST PUSH0 PUSH2 0x3F13 DUP7 DUP3 DUP8 ADD PUSH2 0x3EDB JUMP JUMPDEST SWAP4 POP POP PUSH1 0x20 PUSH2 0x3F24 DUP7 DUP3 DUP8 ADD PUSH2 0x38CC JUMP JUMPDEST SWAP3 POP POP PUSH1 0x40 PUSH2 0x3F35 DUP7 DUP3 DUP8 ADD PUSH2 0x38CC JUMP JUMPDEST SWAP2 POP POP SWAP3 POP SWAP3 POP SWAP3 JUMP JUMPDEST PUSH0 DUP1 REVERT JUMPDEST PUSH0 DUP1 REVERT JUMPDEST PUSH32 0x4E487B7100000000000000000000000000000000000000000000000000000000 PUSH0 MSTORE PUSH1 0x41 PUSH1 0x4 MSTORE PUSH1 0x24 PUSH0 REVERT JUMPDEST PUSH2 0x3F7D DUP3 PUSH2 0x3981 JUMP JUMPDEST DUP2 ADD DUP2 DUP2 LT PUSH8 0xFFFFFFFFFFFFFFFF DUP3 GT OR ISZERO PUSH2 0x3F9C JUMPI PUSH2 0x3F9B PUSH2 0x3F47 JUMP JUMPDEST JUMPDEST DUP1 PUSH1 0x40 MSTORE POP POP POP JUMP JUMPDEST PUSH0 PUSH2 0x3FAE PUSH2 0x389C JUMP JUMPDEST SWAP1 POP PUSH2 0x3FBA DUP3 DUP3 PUSH2 0x3F74 JUMP JUMPDEST SWAP2 SWAP1 POP JUMP JUMPDEST PUSH0 PUSH8 0xFFFFFFFFFFFFFFFF DUP3 GT ISZERO PUSH2 0x3FD9 JUMPI PUSH2 0x3FD8 PUSH2 0x3F47 JUMP JUMPDEST JUMPDEST PUSH2 0x3FE2 DUP3 PUSH2 0x3981 JUMP JUMPDEST SWAP1 POP PUSH1 0x20 DUP2 ADD SWAP1 POP SWAP2 SWAP1 POP JUMP JUMPDEST DUP3 DUP2 DUP4 CALLDATACOPY PUSH0 DUP4 DUP4 ADD MSTORE POP POP POP JUMP JUMPDEST PUSH0 PUSH2 0x400F PUSH2 0x400A DUP5 PUSH2 0x3FBF JUMP JUMPDEST PUSH2 0x3FA5 JUMP JUMPDEST SWAP1 POP DUP3 DUP2 MSTORE PUSH1 0x20 DUP2 ADD DUP5 DUP5 DUP5 ADD GT ISZERO PUSH2 0x402B JUMPI PUSH2 0x402A PUSH2 0x3F43 JUMP JUMPDEST JUMPDEST PUSH2 0x4036 DUP5 DUP3 DUP6 PUSH2 0x3FEF JUMP JUMPDEST POP SWAP4 SWAP3 POP POP POP JUMP JUMPDEST PUSH0 DUP3 PUSH1 0x1F DUP4 ADD SLT PUSH2 0x4052 JUMPI PUSH2 0x4051 PUSH2 0x3F3F JUMP JUMPDEST JUMPDEST DUP2 CALLDATALOAD PUSH2 0x4062 DUP5 DUP3 PUSH1 0x20 DUP7 ADD PUSH2 0x3FFD JUMP JUMPDEST SWAP2 POP POP SWAP3 SWAP2 POP POP JUMP JUMPDEST PUSH0 DUP1 PUSH0 PUSH1 0x60 DUP5 DUP7 SUB SLT ISZERO PUSH2 0x4082 JUMPI PUSH2 0x4081 PUSH2 0x38A5 JUMP JUMPDEST JUMPDEST PUSH0 PUSH2 0x408F DUP7 DUP3 DUP8 ADD PUSH2 0x38CC JUMP JUMPDEST SWAP4 POP POP PUSH1 0x20 PUSH2 0x40A0 DUP7 DUP3 DUP8 ADD PUSH2 0x38CC JUMP JUMPDEST SWAP3 POP POP PUSH1 0x40 DUP5 ADD CALLDATALOAD PUSH8 0xFFFFFFFFFFFFFFFF DUP2 GT ISZERO PUSH2 0x40C1 JUMPI PUSH2 0x40C0 PUSH2 0x38A9 JUMP JUMPDEST JUMPDEST PUSH2 0x40CD DUP7 DUP3 DUP8 ADD PUSH2 0x403E JUMP JUMPDEST SWAP2 POP POP SWAP3 POP SWAP3 POP SWAP3 JUMP JUMPDEST PUSH0 PUSH8 0xFFFFFFFFFFFFFFFF DUP3 GT ISZERO PUSH2 0x40F1 JUMPI PUSH2 0x40F0 PUSH2 0x3F47 JUMP JUMPDEST JUMPDEST PUSH1 0x20 DUP3 MUL SWAP1 POP PUSH1 0x20 DUP2 ADD SWAP1 POP SWAP2 SWAP1 POP JUMP JUMPDEST PUSH0 DUP1 REVERT JUMPDEST PUSH0 PUSH2 0x4118 PUSH2 0x4113 DUP5 PUSH2 0x40D7 JUMP JUMPDEST PUSH2 0x3FA5 JUMP JUMPDEST SWAP1 POP DUP1 DUP4 DUP3 MSTORE PUSH1 0x20 DUP3 ADD SWAP1 POP PUSH1 0x20 DUP5 MUL DUP4 ADD DUP6 DUP2 GT ISZERO PUSH2 0x413B JUMPI PUSH2 0x413A PUSH2 0x4102 JUMP JUMPDEST JUMPDEST DUP4 JUMPDEST DUP2 DUP2 LT ISZERO PUSH2 0x4164 JUMPI DUP1 PUSH2 0x4150 DUP9 DUP3 PUSH2 0x3C9C JUMP JUMPDEST DUP5 MSTORE PUSH1 0x20 DUP5 ADD SWAP4 POP POP PUSH1 0x20 DUP2 ADD SWAP1 POP PUSH2 0x413D JUMP JUMPDEST POP POP POP SWAP4 SWAP3 POP POP POP JUMP JUMPDEST PUSH0 DUP3 PUSH1 0x1F DUP4 ADD SLT PUSH2 0x4182 JUMPI PUSH2 0x4181 PUSH2 0x3F3F JUMP JUMPDEST JUMPDEST DUP2 CALLDATALOAD PUSH2 0x4192 DUP5 DUP3 PUSH1 0x20 DUP7 ADD PUSH2 0x4106 JUMP JUMPDEST SWAP2 POP POP SWAP3 SWAP2 POP POP JUMP JUMPDEST PUSH0 PUSH8 0xFFFFFFFFFFFFFFFF DUP3 GT ISZERO PUSH2 0x41B5 JUMPI PUSH2 0x41B4 PUSH2 0x3F47 JUMP JUMPDEST JUMPDEST PUSH1 0x20 DUP3 MUL SWAP1 POP PUSH1 0x20 DUP2 ADD SWAP1 POP SWAP2 SWAP1 POP JUMP JUMPDEST PUSH0 PUSH2 0x41D8 PUSH2 0x41D3 DUP5 PUSH2 0x419B JUMP JUMPDEST PUSH2 0x3FA5 JUMP JUMPDEST SWAP1 POP DUP1 DUP4 DUP3 MSTORE PUSH1 0x20 DUP3 ADD SWAP1 POP PUSH1 0x20 DUP5 MUL DUP4 ADD DUP6 DUP2 GT ISZERO PUSH2 0x41FB JUMPI PUSH2 0x41FA PUSH2 0x4102 JUMP JUMPDEST JUMPDEST DUP4 JUMPDEST DUP2 DUP2 LT ISZERO PUSH2 0x4224 JUMPI DUP1 PUSH2 0x4210 DUP9 DUP3 PUSH2 0x38CC JUMP JUMPDEST DUP5 MSTORE PUSH1 0x20 DUP5 ADD SWAP4 POP POP PUSH1 0x20 DUP2 ADD SWAP1 POP PUSH2 0x41FD JUMP JUMPDEST POP POP POP SWAP4 SWAP3 POP POP POP JUMP JUMPDEST PUSH0 DUP3 PUSH1 0x1F DUP4 ADD SLT PUSH2 0x4242 JUMPI PUSH2 0x4241 PUSH2 0x3F3F JUMP JUMPDEST JUMPDEST DUP2 CALLDATALOAD PUSH2 0x4252 DUP5 DUP3 PUSH1 0x20 DUP7 ADD PUSH2 0x41C6 JUMP JUMPDEST SWAP2 POP POP SWAP3 SWAP2 POP POP JUMP JUMPDEST PUSH0 DUP1 PUSH0 DUP1 PUSH1 0x80 DUP6 DUP8 SUB SLT ISZERO PUSH2 0x4273 JUMPI PUSH2 0x4272 PUSH2 0x38A5 JUMP JUMPDEST JUMPDEST PUSH0 DUP6 ADD CALLDATALOAD PUSH8 0xFFFFFFFFFFFFFFFF DUP2 GT ISZERO PUSH2 0x4290 JUMPI PUSH2 0x428F PUSH2 0x38A9 JUMP JUMPDEST JUMPDEST PUSH2 0x429C DUP8 DUP3 DUP9 ADD PUSH2 0x403E JUMP JUMPDEST SWAP5 POP POP PUSH1 0x20 PUSH2 0x42AD DUP8 DUP3 DUP9 ADD PUSH2 0x38CC JUMP JUMPDEST SWAP4 POP POP PUSH1 0x40 DUP6 ADD CALLDATALOAD PUSH8 0xFFFFFFFFFFFFFFFF DUP2 GT ISZERO PUSH2 0x42CE JUMPI PUSH2 0x42CD PUSH2 0x38A9 JUMP JUMPDEST JUMPDEST PUSH2 0x42DA DUP8 DUP3 DUP9 ADD PUSH2 0x416E JUMP JUMPDEST SWAP3 POP POP PUSH1 0x60 DUP6 ADD CALLDATALOAD PUSH8 0xFFFFFFFFFFFFFFFF DUP2 GT ISZERO PUSH2 0x42FB JUMPI PUSH2 0x42FA PUSH2 0x38A9 JUMP JUMPDEST JUMPDEST PUSH2 0x4307 DUP8 DUP3 DUP9 ADD PUSH2 0x422E JUMP JUMPDEST SWAP2 POP POP SWAP3 SWAP6 SWAP2 SWAP5 POP SWAP3 POP JUMP JUMPDEST PUSH0 PUSH1 0x60 DUP3 ADD SWAP1 POP PUSH2 0x4326 PUSH0 DUP4 ADD DUP7 PUSH2 0x390B JUMP JUMPDEST PUSH2 0x4333 PUSH1 0x20 DUP4 ADD DUP6 PUSH2 0x390B JUMP JUMPDEST PUSH2 0x4340 PUSH1 0x40 DUP4 ADD DUP5 PUSH2 0x390B JUMP JUMPDEST SWAP5 SWAP4 POP POP POP POP JUMP JUMPDEST PUSH0 PUSH1 0x20 DUP3 DUP5 SUB SLT ISZERO PUSH2 0x435D JUMPI PUSH2 0x435C PUSH2 0x38A5 JUMP JUMPDEST JUMPDEST PUSH0 PUSH2 0x436A DUP5 DUP3 DUP6 ADD PUSH2 0x3D16 JUMP JUMPDEST SWAP2 POP POP SWAP3 SWAP2 POP POP JUMP JUMPDEST PUSH2 0x437C DUP2 PUSH2 0x3C75 JUMP JUMPDEST DUP3 MSTORE POP POP JUMP JUMPDEST PUSH0 PUSH2 0x120 DUP3 ADD SWAP1 POP PUSH2 0x4396 PUSH0 DUP4 ADD DUP13 PUSH2 0x390B JUMP JUMPDEST DUP2 DUP2 SUB PUSH1 0x20 DUP4 ADD MSTORE PUSH2 0x43A8 DUP2 DUP12 PUSH2 0x3991 JUMP JUMPDEST SWAP1 POP PUSH2 0x43B7 PUSH1 0x40 DUP4 ADD DUP11 PUSH2 0x4373 JUMP JUMPDEST PUSH2 0x43C4 PUSH1 0x60 DUP4 ADD DUP10 PUSH2 0x390B JUMP JUMPDEST PUSH2 0x43D1 PUSH1 0x80 DUP4 ADD DUP9 PUSH2 0x3AA1 JUMP JUMPDEST PUSH2 0x43DE PUSH1 0xA0 DUP4 ADD DUP8 PUSH2 0x390B JUMP JUMPDEST PUSH2 0x43EB PUSH1 0xC0 DUP4 ADD DUP7 PUSH2 0x390B JUMP JUMPDEST PUSH2 0x43F8 PUSH1 0xE0 DUP4 ADD DUP6 PUSH2 0x390B JUMP JUMPDEST PUSH2 0x4406 PUSH2 0x100 DUP4 ADD DUP5 PUSH2 0x390B JUMP JUMPDEST SWAP11 SWAP10 POP POP POP POP POP POP POP POP POP POP JUMP JUMPDEST PUSH32 0x50726F7065727479206E6F7420617661696C61626C6520666F72207075726368 PUSH0 DUP3 ADD MSTORE PUSH32 0x6173650000000000000000000000000000000000000000000000000000000000 PUSH1 0x20 DUP3 ADD MSTORE POP JUMP JUMPDEST PUSH0 PUSH2 0x446E PUSH1 0x23 DUP4 PUSH2 0x3963 JUMP JUMPDEST SWAP2 POP PUSH2 0x4479 DUP3 PUSH2 0x4414 JUMP JUMPDEST PUSH1 0x40 DUP3 ADD SWAP1 POP SWAP2 SWAP1 POP JUMP JUMPDEST PUSH0 PUSH1 0x20 DUP3 ADD SWAP1 POP DUP2 DUP2 SUB PUSH0 DUP4 ADD MSTORE PUSH2 0x449B DUP2 PUSH2 0x4462 JUMP JUMPDEST SWAP1 POP SWAP2 SWAP1 POP JUMP JUMPDEST PUSH32 0x4E6F74206120627579657220666F7220746869732070726F7065727479000000 PUSH0 DUP3 ADD MSTORE POP JUMP JUMPDEST PUSH0 PUSH2 0x44D6 PUSH1 0x1D DUP4 PUSH2 0x3963 JUMP JUMPDEST SWAP2 POP PUSH2 0x44E1 DUP3 PUSH2 0x44A2 JUMP JUMPDEST PUSH1 0x20 DUP3 ADD SWAP1 POP SWAP2 SWAP1 POP JUMP JUMPDEST PUSH0 PUSH1 0x20 DUP3 ADD SWAP1 POP DUP2 DUP2 SUB PUSH0 DUP4 ADD MSTORE PUSH2 0x4503 DUP2 PUSH2 0x44CA JUMP JUMPDEST SWAP1 POP SWAP2 SWAP1 POP JUMP JUMPDEST PUSH32 0x416C726561647920706169640000000000000000000000000000000000000000 PUSH0 DUP3 ADD MSTORE POP JUMP JUMPDEST PUSH0 PUSH2 0x453E PUSH1 0xC DUP4 PUSH2 0x3963 JUMP JUMPDEST SWAP2 POP PUSH2 0x4549 DUP3 PUSH2 0x450A JUMP JUMPDEST PUSH1 0x20 DUP3 ADD SWAP1 POP SWAP2 SWAP1 POP JUMP JUMPDEST PUSH0 PUSH1 0x20 DUP3 ADD SWAP1 POP DUP2 DUP2 SUB PUSH0 DUP4 ADD MSTORE PUSH2 0x456B DUP2 PUSH2 0x4532 JUMP JUMPDEST SWAP1 POP SWAP2 SWAP1 POP JUMP JUMPDEST PUSH32 0x4E6F7420616C6C20726F79616C747920686F6C64657273206861766520617070 PUSH0 DUP3 ADD MSTORE PUSH32 0x726F766564000000000000000000000000000000000000000000000000000000 PUSH1 0x20 DUP3 ADD MSTORE POP JUMP JUMPDEST PUSH0 PUSH2 0x45CC PUSH1 0x25 DUP4 PUSH2 0x3963 JUMP JUMPDEST SWAP2 POP PUSH2 0x45D7 DUP3 PUSH2 0x4572 JUMP JUMPDEST PUSH1 0x40 DUP3 ADD SWAP1 POP SWAP2 SWAP1 POP JUMP JUMPDEST PUSH0 PUSH1 0x20 DUP3 ADD SWAP1 POP DUP2 DUP2 SUB PUSH0 DUP4 ADD MSTORE PUSH2 0x45F9 DUP2 PUSH2 0x45C0 JUMP JUMPDEST SWAP1 POP SWAP2 SWAP1 POP JUMP JUMPDEST PUSH32 0x4E487B7100000000000000000000000000000000000000000000000000000000 PUSH0 MSTORE PUSH1 0x11 PUSH1 0x4 MSTORE PUSH1 0x24 PUSH0 REVERT JUMPDEST PUSH0 PUSH2 0x4637 DUP3 PUSH2 0x38AD JUMP JUMPDEST SWAP2 POP PUSH2 0x4642 DUP4 PUSH2 0x38AD JUMP JUMPDEST SWAP3 POP DUP3 DUP3 MUL PUSH2 0x4650 DUP2 PUSH2 0x38AD JUMP JUMPDEST SWAP2 POP DUP3 DUP3 DIV DUP5 EQ DUP4 ISZERO OR PUSH2 0x4667 JUMPI PUSH2 0x4666 PUSH2 0x4600 JUMP JUMPDEST JUMPDEST POP SWAP3 SWAP2 POP POP JUMP JUMPDEST PUSH32 0x4E487B7100000000000000000000000000000000000000000000000000000000 PUSH0 MSTORE PUSH1 0x12 PUSH1 0x4 MSTORE PUSH1 0x24 PUSH0 REVERT JUMPDEST PUSH0 PUSH2 0x46A5 DUP3 PUSH2 0x38AD JUMP JUMPDEST SWAP2 POP PUSH2 0x46B0 DUP4 PUSH2 0x38AD JUMP JUMPDEST SWAP3 POP DUP3 PUSH2 0x46C0 JUMPI PUSH2 0x46BF PUSH2 0x466E JUMP JUMPDEST JUMPDEST DUP3 DUP3 DIV SWAP1 POP SWAP3 SWAP2 POP POP JUMP JUMPDEST PUSH0 PUSH2 0x46D5 DUP3 PUSH2 0x38AD JUMP JUMPDEST SWAP2 POP PUSH2 0x46E0 DUP4 PUSH2 0x38AD JUMP JUMPDEST SWAP3 POP DUP3 DUP3 ADD SWAP1 POP DUP1 DUP3 GT ISZERO PUSH2 0x46F8 JUMPI PUSH2 0x46F7 PUSH2 0x4600 JUMP JUMPDEST JUMPDEST SWAP3 SWAP2 POP POP JUMP JUMPDEST PUSH32 0x496E73756666696369656E74207061796D656E74000000000000000000000000 PUSH0 DUP3 ADD MSTORE POP JUMP JUMPDEST PUSH0 PUSH2 0x4732 PUSH1 0x14 DUP4 PUSH2 0x3963 JUMP JUMPDEST SWAP2 POP PUSH2 0x473D DUP3 PUSH2 0x46FE JUMP JUMPDEST PUSH1 0x20 DUP3 ADD SWAP1 POP SWAP2 SWAP1 POP JUMP JUMPDEST PUSH0 PUSH1 0x20 DUP3 ADD SWAP1 POP DUP2 DUP2 SUB PUSH0 DUP4 ADD MSTORE PUSH2 0x475F DUP2 PUSH2 0x4726 JUMP JUMPDEST SWAP1 POP SWAP2 SWAP1 POP JUMP JUMPDEST PUSH0 PUSH2 0x4770 DUP3 PUSH2 0x38AD JUMP JUMPDEST SWAP2 POP PUSH2 0x477B DUP4 PUSH2 0x38AD JUMP JUMPDEST SWAP3 POP DUP3 DUP3 SUB SWAP1 POP DUP2 DUP2 GT ISZERO PUSH2 0x4793 JUMPI PUSH2 0x4792 PUSH2 0x4600 JUMP JUMPDEST JUMPDEST SWAP3 SWAP2 POP POP JUMP JUMPDEST PUSH0 PUSH1 0x40 DUP3 ADD SWAP1 POP PUSH2 0x47AC PUSH0 DUP4 ADD DUP6 PUSH2 0x390B JUMP JUMPDEST PUSH2 0x47B9 PUSH1 0x20 DUP4 ADD DUP5 PUSH2 0x3AA1 JUMP JUMPDEST SWAP4 SWAP3 POP POP POP JUMP JUMPDEST PUSH32 0x5472616E73616374696F6E20646F6573206E6F74206578697374000000000000 PUSH0 DUP3 ADD MSTORE POP JUMP JUMPDEST PUSH0 PUSH2 0x47F4 PUSH1 0x1A DUP4 PUSH2 0x3963 JUMP JUMPDEST SWAP2 POP PUSH2 0x47FF DUP3 PUSH2 0x47C0 JUMP JUMPDEST PUSH1 0x20 DUP3 ADD SWAP1 POP SWAP2 SWAP1 POP JUMP JUMPDEST PUSH0 PUSH1 0x20 DUP3 ADD SWAP1 POP DUP2 DUP2 SUB PUSH0 DUP4 ADD MSTORE PUSH2 0x4821 DUP2 PUSH2 0x47E8 JUMP JUMPDEST SWAP1 POP SWAP2 SWAP1 POP JUMP JUMPDEST PUSH32 0x4E487B7100000000000000000000000000000000000000000000000000000000 PUSH0 MSTORE PUSH1 0x22 PUSH1 0x4 MSTORE PUSH1 0x24 PUSH0 REVERT JUMPDEST PUSH0 PUSH1 0x2 DUP3 DIV SWAP1 POP PUSH1 0x1 DUP3 AND DUP1 PUSH2 0x486C JUMPI PUSH1 0x7F DUP3 AND SWAP2 POP JUMPDEST PUSH1 0x20 DUP3 LT DUP2 SUB PUSH2 0x487F JUMPI PUSH2 0x487E PUSH2 0x4828 JUMP JUMPDEST JUMPDEST POP SWAP2 SWAP1 POP JUMP JUMPDEST PUSH0 PUSH2 0x488F DUP3 PUSH2 0x38AD JUMP JUMPDEST SWAP2 POP PUSH32 0xFFFFFFFFFFFFFFFFFFFFFFFFFFFFFFFFFFFFFFFFFFFFFFFFFFFFFFFFFFFFFFFF DUP3 SUB PUSH2 0x48C1 JUMPI PUSH2 0x48C0 PUSH2 0x4600 JUMP JUMPDEST JUMPDEST PUSH1 0x1 DUP3 ADD SWAP1 POP SWAP2 SWAP1 POP JUMP JUMPDEST PUSH32 0x4E487B7100000000000000000000000000000000000000000000000000000000 PUSH0 MSTORE PUSH1 0x32 PUSH1 0x4 MSTORE PUSH1 0x24 PUSH0 REVERT JUMPDEST PUSH32 0x4F6E6C79206F776E6572206F722061646D696E2063616E2063616E63656C0000 PUSH0 DUP3 ADD MSTORE POP JUMP JUMPDEST PUSH0 PUSH2 0x492D PUSH1 0x1E DUP4 PUSH2 0x3963 JUMP JUMPDEST SWAP2 POP PUSH2 0x4938 DUP3 PUSH2 0x48F9 JUMP JUMPDEST PUSH1 0x20 DUP3 ADD SWAP1 POP SWAP2 SWAP1 POP JUMP JUMPDEST PUSH0 PUSH1 0x20 DUP3 ADD SWAP1 POP DUP2 DUP2 SUB PUSH0 DUP4 ADD MSTORE PUSH2 0x495A DUP2 PUSH2 0x4921 JUMP JUMPDEST SWAP1 POP SWAP2 SWAP1 POP JUMP JUMPDEST PUSH32 0x50726F7065727479206E6F7420696E20636F7272656374207374617465000000 PUSH0 DUP3 ADD MSTORE POP JUMP JUMPDEST PUSH0 PUSH2 0x4995 PUSH1 0x1D DUP4 PUSH2 0x3963 JUMP JUMPDEST SWAP2 POP PUSH2 0x49A0 DUP3 PUSH2 0x4961 JUMP JUMPDEST PUSH1 0x20 DUP3 ADD SWAP1 POP SWAP2 SWAP1 POP JUMP JUMPDEST PUSH0 PUSH1 0x20 DUP3 ADD SWAP1 POP DUP2 DUP2 SUB PUSH0 DUP4 ADD MSTORE PUSH2 0x49C2 DUP2 PUSH2 0x4989 JUMP JUMPDEST SWAP1 POP SWAP2 SWAP1 POP JUMP JUMPDEST PUSH32 0x43616E6E6F742063616E63656C3A20627579657273206861766520616C726561 PUSH0 DUP3 ADD MSTORE PUSH32 0x6479207061696400000000000000000000000000000000000000000000000000 PUSH1 0x20 DUP3 ADD MSTORE POP JUMP JUMPDEST PUSH0 PUSH2 0x4A23 PUSH1 0x27 DUP4 PUSH2 0x3963 JUMP JUMPDEST SWAP2 POP PUSH2 0x4A2E DUP3 PUSH2 0x49C9 JUMP JUMPDEST PUSH1 0x40 DUP3 ADD SWAP1 POP SWAP2 SWAP1 POP JUMP JUMPDEST PUSH0 PUSH1 0x20 DUP3 ADD SWAP1 POP DUP2 DUP2 SUB PUSH0 DUP4 ADD MSTORE PUSH2 0x4A50 DUP2 PUSH2 0x4A17 JUMP JUMPDEST SWAP1 POP SWAP2 SWAP1 POP JUMP JUMPDEST PUSH32 0x50726F7065727479206E6F74206C697374656400000000000000000000000000 PUSH0 DUP3 ADD MSTORE POP JUMP JUMPDEST PUSH0 PUSH2 0x4A8B PUSH1 0x13 DUP4 PUSH2 0x3963 JUMP JUMPDEST SWAP2 POP PUSH2 0x4A96 DUP3 PUSH2 0x4A57 JUMP JUMPDEST PUSH1 0x20 DUP3 ADD SWAP1 POP SWAP2 SWAP1 POP JUMP JUMPDEST PUSH0 PUSH1 0x20 DUP3 ADD SWAP1 POP DUP2 DUP2 SUB PUSH0 DUP4 ADD MSTORE PUSH2 0x4AB8 DUP2 PUSH2 0x4A7F JUMP JUMPDEST SWAP1 POP SWAP2 SWAP1 POP JUMP JUMPDEST PUSH32 0x4E6F74206120726F79616C747920686F6C64657220666F722074686973207072 PUSH0 DUP3 ADD MSTORE PUSH32 0x6F70657274790000000000000000000000000000000000000000000000000000 PUSH1 0x20 DUP3 ADD MSTORE POP JUMP JUMPDEST PUSH0 PUSH2 0x4B19 PUSH1 0x26 DUP4 PUSH2 0x3963 JUMP JUMPDEST SWAP2 POP PUSH2 0x4B24 DUP3 PUSH2 0x4ABF JUMP JUMPDEST PUSH1 0x40 DUP3 ADD SWAP1 POP SWAP2 SWAP1 POP JUMP JUMPDEST PUSH0 PUSH1 0x20 DUP3 ADD SWAP1 POP DUP2 DUP2 SUB PUSH0 DUP4 ADD MSTORE PUSH2 0x4B46 DUP2 PUSH2 0x4B0D JUMP JUMPDEST SWAP1 POP SWAP2 SWAP1 POP JUMP JUMPDEST PUSH32 0x416C726561647920617070726F76656400000000000000000000000000000000 PUSH0 DUP3 ADD MSTORE POP JUMP JUMPDEST PUSH0 PUSH2 0x4B81 PUSH1 0x10 DUP4 PUSH2 0x3963 JUMP JUMPDEST SWAP2 POP PUSH2 0x4B8C DUP3 PUSH2 0x4B4D JUMP JUMPDEST PUSH1 0x20 DUP3 ADD SWAP1 POP SWAP2 SWAP1 POP JUMP JUMPDEST PUSH0 PUSH1 0x20 DUP3 ADD SWAP1 POP DUP2 DUP2 SUB PUSH0 DUP4 ADD MSTORE PUSH2 0x4BAE DUP2 PUSH2 0x4B75 JUMP JUMPDEST SWAP1 POP SWAP2 SWAP1 POP JUMP JUMPDEST PUSH32 0x4D6178696D756D20332062757965727320616C6C6F7765640000000000000000 PUSH0 DUP3 ADD MSTORE POP JUMP JUMPDEST PUSH0 PUSH2 0x4BE9 PUSH1 0x18 DUP4 PUSH2 0x3963 JUMP JUMPDEST SWAP2 POP PUSH2 0x4BF4 DUP3 PUSH2 0x4BB5 JUMP JUMPDEST PUSH1 0x20 DUP3 ADD SWAP1 POP SWAP2 SWAP1 POP JUMP JUMPDEST PUSH0 PUSH1 0x20 DUP3 ADD SWAP1 POP DUP2 DUP2 SUB PUSH0 DUP4 ADD MSTORE PUSH2 0x4C16 DUP2 PUSH2 0x4BDD JUMP JUMPDEST SWAP1 POP SWAP2 SWAP1 POP JUMP JUMPDEST PUSH32 0x496E76616C69642073686172652070657263656E746167650000000000000000 PUSH0 DUP3 ADD MSTORE POP JUMP JUMPDEST PUSH0 PUSH2 0x4C51 PUSH1 0x18 DUP4 PUSH2 0x3963 JUMP JUMPDEST SWAP2 POP PUSH2 0x4C5C DUP3 PUSH2 0x4C1D JUMP JUMPDEST PUSH1 0x20 DUP3 ADD SWAP1 POP SWAP2 SWAP1 POP JUMP JUMPDEST PUSH0 PUSH1 0x20 DUP3 ADD SWAP1 POP DUP2 DUP2 SUB PUSH0 DUP4 ADD MSTORE PUSH2 0x4C7E DUP2 PUSH2 0x4C45 JUMP JUMPDEST SWAP1 POP SWAP2 SWAP1 POP JUMP JUMPDEST PUSH32 0x546F74616C2073686172652063616E6E6F742065786365656420313030250000 PUSH0 DUP3 ADD MSTORE POP JUMP JUMPDEST PUSH0 PUSH2 0x4CB9 PUSH1 0x1E DUP4 PUSH2 0x3963 JUMP JUMPDEST SWAP2 POP PUSH2 0x4CC4 DUP3 PUSH2 0x4C85 JUMP JUMPDEST PUSH1 0x20 DUP3 ADD SWAP1 POP SWAP2 SWAP1 POP JUMP JUMPDEST PUSH0 PUSH1 0x20 DUP3 ADD SWAP1 POP DUP2 DUP2 SUB PUSH0 DUP4 ADD MSTORE PUSH2 0x4CE6 DUP2 PUSH2 0x4CAD JUMP JUMPDEST SWAP1 POP SWAP2 SWAP1 POP JUMP JUMPDEST PUSH32 0x496E76616C696420686F6C64657220696E646578000000000000000000000000 PUSH0 DUP3 ADD MSTORE POP JUMP JUMPDEST PUSH0 PUSH2 0x4D21 PUSH1 0x14 DUP4 PUSH2 0x3963 JUMP JUMPDEST SWAP2 POP PUSH2 0x4D2C DUP3 PUSH2 0x4CED JUMP JUMPDEST PUSH1 0x20 DUP3 ADD SWAP1 POP SWAP2 SWAP1 POP JUMP JUMPDEST PUSH0 PUSH1 0x20 DUP3 ADD SWAP1 POP DUP2 DUP2 SUB PUSH0 DUP4 ADD MSTORE PUSH2 0x4D4E DUP2 PUSH2 0x4D15 JUMP JUMPDEST SWAP1 POP SWAP2 SWAP1 POP JUMP JUMPDEST PUSH32 0x496E76616C696420627579657220696E64657800000000000000000000000000 PUSH0 DUP3 ADD MSTORE POP JUMP JUMPDEST PUSH0 PUSH2 0x4D89 PUSH1 0x13 DUP4 PUSH2 0x3963 JUMP JUMPDEST SWAP2 POP PUSH2 0x4D94 DUP3 PUSH2 0x4D55 JUMP JUMPDEST PUSH1 0x20 DUP3 ADD SWAP1 POP SWAP2 SWAP1 POP JUMP JUMPDEST PUSH0 PUSH1 0x20 DUP3 ADD SWAP1 POP DUP2 DUP2 SUB PUSH0 DUP4 ADD MSTORE PUSH2 0x4DB6 DUP2 PUSH2 0x4D7D JUMP JUMPDEST SWAP1 POP SWAP2 SWAP1 POP JUMP JUMPDEST PUSH32 0x4665652063616E6E6F7420657863656564203130250000000000000000000000 PUSH0 DUP3 ADD MSTORE POP JUMP JUMPDEST PUSH0 PUSH2 0x4DF1 PUSH1 0x15 DUP4 PUSH2 0x3963 JUMP JUMPDEST SWAP2 POP PUSH2 0x4DFC DUP3 PUSH2 0x4DBD JUMP JUMPDEST PUSH1 0x20 DUP3 ADD SWAP1 POP SWAP2 SWAP1 POP JUMP JUMPDEST PUSH0 PUSH1 0x20 DUP3 ADD SWAP1 POP DUP2 DUP2 SUB PUSH0 DUP4 ADD MSTORE PUSH2 0x4E1E DUP2 PUSH2 0x4DE5 JUMP JUMPDEST SWAP1 POP SWAP2 SWAP1 POP JUMP JUMPDEST PUSH32 0x4F6E6C79206F776E65722063616E207570646174652070726F70657274790000 PUSH0 DUP3 ADD MSTORE POP JUMP JUMPDEST PUSH0 PUSH2 0x4E59 PUSH1 0x1E DUP4 PUSH2 0x3963 JUMP JUMPDEST SWAP2 POP PUSH2 0x4E64 DUP3 PUSH2 0x4E25 JUMP JUMPDEST PUSH1 0x20 DUP3 ADD SWAP1 POP SWAP2 SWAP1 POP JUMP JUMPDEST PUSH0 PUSH1 0x20 DUP3 ADD SWAP1 POP DUP2 DUP2 SUB PUSH0 DUP4 ADD MSTORE PUSH2 0x4E86 DUP2 PUSH2 0x4E4D JUMP JUMPDEST SWAP1 POP SWAP2 SWAP1 POP JUMP JUMPDEST PUSH0 DUP2 SWAP1 POP DUP2 PUSH0 MSTORE PUSH1 0x20 PUSH0 KECCAK256 SWAP1 POP SWAP2 SWAP1 POP JUMP JUMPDEST PUSH0 PUSH1 0x20 PUSH1 0x1F DUP4 ADD DIV SWAP1 POP SWAP2 SWAP1 POP JUMP JUMPDEST PUSH0 DUP3 DUP3 SHL SWAP1 POP SWAP3 SWAP2 POP POP JUMP JUMPDEST PUSH0 PUSH1 0x8 DUP4 MUL PUSH2 0x4EE9 PUSH32 0xFFFFFFFFFFFFFFFFFFFFFFFFFFFFFFFFFFFFFFFFFFFFFFFFFFFFFFFFFFFFFFFF DUP3 PUSH2 0x4EAE JUMP JUMPDEST PUSH2 0x4EF3 DUP7 DUP4 PUSH2 0x4EAE JUMP JUMPDEST SWAP6 POP DUP1 NOT DUP5 AND SWAP4 POP DUP1 DUP7 AND DUP5 OR SWAP3 POP POP POP SWAP4 SWAP3 POP POP POP JUMP JUMPDEST PUSH0 DUP2 SWAP1 POP SWAP2 SWAP1 POP JUMP JUMPDEST PUSH0 PUSH2 0x4F2E PUSH2 0x4F29 PUSH2 0x4F24 DUP5 PUSH2 0x38AD JUMP JUMPDEST PUSH2 0x4F0B JUMP JUMPDEST PUSH2 0x38AD JUMP JUMPDEST SWAP1 POP SWAP2 SWAP1 POP JUMP JUMPDEST PUSH0 DUP2 SWAP1 POP SWAP2 SWAP1 POP JUMP JUMPDEST PUSH2 0x4F47 DUP4 PUSH2 0x4F14 JUMP JUMPDEST PUSH2 0x4F5B PUSH2 0x4F53 DUP3 PUSH2 0x4F35 JUMP JUMPDEST DUP5 DUP5 SLOAD PUSH2 0x4EBA JUMP JUMPDEST DUP3 SSTORE POP POP POP POP JUMP JUMPDEST PUSH0 SWAP1 JUMP JUMPDEST PUSH2 0x4F6F PUSH2 0x4F63 JUMP JUMPDEST PUSH2 0x4F7A DUP2 DUP5 DUP5 PUSH2 0x4F3E JUMP JUMPDEST POP POP POP JUMP JUMPDEST JUMPDEST DUP2 DUP2 LT ISZERO PUSH2 0x4F9D JUMPI PUSH2 0x4F92 PUSH0 DUP3 PUSH2 0x4F67 JUMP JUMPDEST PUSH1 0x1 DUP2 ADD SWAP1 POP PUSH2 0x4F80 JUMP JUMPDEST POP POP JUMP JUMPDEST PUSH1 0x1F DUP3 GT ISZERO PUSH2 0x4FE2 JUMPI PUSH2 0x4FB3 DUP2 PUSH2 0x4E8D JUMP JUMPDEST PUSH2 0x4FBC DUP5 PUSH2 0x4E9F JUMP JUMPDEST DUP2 ADD PUSH1 0x20 DUP6 LT ISZERO PUSH2 0x4FCB JUMPI DUP2 SWAP1 POP JUMPDEST PUSH2 0x4FDF PUSH2 0x4FD7 DUP6 PUSH2 0x4E9F JUMP JUMPDEST DUP4 ADD DUP3 PUSH2 0x4F7F JUMP JUMPDEST POP POP JUMPDEST POP POP POP JUMP JUMPDEST PUSH0 DUP3 DUP3 SHR SWAP1 POP SWAP3 SWAP2 POP POP JUMP JUMPDEST PUSH0 PUSH2 0x5002 PUSH0 NOT DUP5 PUSH1 0x8 MUL PUSH2 0x4FE7 JUMP JUMPDEST NOT DUP1 DUP4 AND SWAP2 POP POP SWAP3 SWAP2 POP POP JUMP JUMPDEST PUSH0 PUSH2 0x501A DUP4 DUP4 PUSH2 0x4FF3 JUMP JUMPDEST SWAP2 POP DUP3 PUSH1 0x2 MUL DUP3 OR SWAP1 POP SWAP3 SWAP2 POP POP JUMP JUMPDEST PUSH2 0x5033 DUP3 PUSH2 0x3959 JUMP JUMPDEST PUSH8 0xFFFFFFFFFFFFFFFF DUP2 GT ISZERO PUSH2 0x504C JUMPI PUSH2 0x504B PUSH2 0x3F47 JUMP JUMPDEST JUMPDEST PUSH2 0x5056 DUP3 SLOAD PUSH2 0x4855 JUMP JUMPDEST PUSH2 0x5061 DUP3 DUP3 DUP6 PUSH2 0x4FA1 JUMP JUMPDEST PUSH0 PUSH1 0x20 SWAP1 POP PUSH1 0x1F DUP4 GT PUSH1 0x1 DUP2 EQ PUSH2 0x5092 JUMPI PUSH0 DUP5 ISZERO PUSH2 0x5080 JUMPI DUP3 DUP8 ADD MLOAD SWAP1 POP JUMPDEST PUSH2 0x508A DUP6 DUP3 PUSH2 0x500F JUMP JUMPDEST DUP7 SSTORE POP PUSH2 0x50F1 JUMP JUMPDEST PUSH1 0x1F NOT DUP5 AND PUSH2 0x50A0 DUP7 PUSH2 0x4E8D JUMP JUMPDEST PUSH0 JUMPDEST DUP3 DUP2 LT ISZERO PUSH2 0x50C7 JUMPI DUP5 DUP10 ADD MLOAD DUP3 SSTORE PUSH1 0x1 DUP3 ADD SWAP2 POP PUSH1 0x20 DUP6 ADD SWAP5 POP PUSH1 0x20 DUP2 ADD SWAP1 POP PUSH2 0x50A2 JUMP JUMPDEST DUP7 DUP4 LT ISZERO PUSH2 0x50E4 JUMPI DUP5 DUP10 ADD MLOAD PUSH2 0x50E0 PUSH1 0x1F DUP10 AND DUP3 PUSH2 0x4FF3 JUMP JUMPDEST DUP4 SSTORE POP JUMPDEST PUSH1 0x1 PUSH1 0x2 DUP9 MUL ADD DUP9 SSTORE POP POP POP JUMPDEST POP POP POP POP POP POP JUMP JUMPDEST PUSH32 0x4C697374696E6720666565206E6F742070726F76696465640000000000000000 PUSH0 DUP3 ADD MSTORE POP JUMP JUMPDEST PUSH0 PUSH2 0x512D PUSH1 0x18 DUP4 PUSH2 0x3963 JUMP JUMPDEST SWAP2 POP PUSH2 0x5138 DUP3 PUSH2 0x50F9 JUMP JUMPDEST PUSH1 0x20 DUP3 ADD SWAP1 POP SWAP2 SWAP1 POP JUMP JUMPDEST PUSH0 PUSH1 0x20 DUP3 ADD SWAP1 POP DUP2 DUP2 SUB PUSH0 DUP4 ADD MSTORE PUSH2 0x515A DUP2 PUSH2 0x5121 JUMP JUMPDEST SWAP1 POP SWAP2 SWAP1 POP JUMP JUMPDEST PUSH32 0x4D6178696D756D203320726F79616C747920686F6C6465727320616C6C6F7765 PUSH0 DUP3 ADD MSTORE PUSH32 0x6400000000000000000000000000000000000000000000000000000000000000 PUSH1 0x20 DUP3 ADD MSTORE POP JUMP JUMPDEST PUSH0 PUSH2 0x51BB PUSH1 0x21 DUP4 PUSH2 0x3963 JUMP JUMPDEST SWAP2 POP PUSH2 0x51C6 DUP3 PUSH2 0x5161 JUMP JUMPDEST PUSH1 0x40 DUP3 ADD SWAP1 POP SWAP2 SWAP1 POP JUMP JUMPDEST PUSH0 PUSH1 0x20 DUP3 ADD SWAP1 POP DUP2 DUP2 SUB PUSH0 DUP4 ADD MSTORE PUSH2 0x51E8 DUP2 PUSH2 0x51AF JUMP JUMPDEST SWAP1 POP SWAP2 SWAP1 POP JUMP JUMPDEST PUSH32 0x4172726179206C656E677468206D69736D617463680000000000000000000000 PUSH0 DUP3 ADD MSTORE POP JUMP JUMPDEST PUSH0 PUSH2 0x5223 PUSH1 0x15 DUP4 PUSH2 0x3963 JUMP JUMPDEST SWAP2 POP PUSH2 0x522E DUP3 PUSH2 0x51EF JUMP JUMPDEST PUSH1 0x20 DUP3 ADD SWAP1 POP SWAP2 SWAP1 POP JUMP JUMPDEST PUSH0 PUSH1 0x20 DUP3 ADD SWAP1 POP DUP2 DUP2 SUB PUSH0 DUP4 ADD MSTORE PUSH2 0x5250 DUP2 PUSH2 0x5217 JUMP JUMPDEST SWAP1 POP SWAP2 SWAP1 POP JUMP JUMPDEST PUSH32 0x546F74616C20726F79616C74792063616E6E6F74206578636565642035302500 PUSH0 DUP3 ADD MSTORE POP JUMP JUMPDEST PUSH0 PUSH2 0x528B PUSH1 0x1F DUP4 PUSH2 0x3963 JUMP JUMPDEST SWAP2 POP PUSH2 0x5296 DUP3 PUSH2 0x5257 JUMP JUMPDEST PUSH1 0x20 DUP3 ADD SWAP1 POP SWAP2 SWAP1 POP JUMP JUMPDEST PUSH0 PUSH1 0x20 DUP3 ADD SWAP1 POP DUP2 DUP2 SUB PUSH0 DUP4 ADD MSTORE PUSH2 0x52B8 DUP2 PUSH2 0x527F JUMP JUMPDEST SWAP1 POP SWAP2 SWAP1 POP JUMP JUMPDEST PUSH32 0x4E6F2045544820746F2077697468647261770000000000000000000000000000 PUSH0 DUP3 ADD MSTORE POP JUMP JUMPDEST PUSH0 PUSH2 0x52F3 PUSH1 0x12 DUP4 PUSH2 0x3963 JUMP JUMPDEST SWAP2 POP PUSH2 0x52FE DUP3 PUSH2 0x52BF JUMP JUMPDEST PUSH1 0x20 DUP3 ADD SWAP1 POP SWAP2 SWAP1 POP JUMP JUMPDEST PUSH0 PUSH1 0x20 DUP3 ADD SWAP1 POP DUP2 DUP2 SUB PUSH0 DUP4 ADD MSTORE PUSH2 0x5320 DUP2 PUSH2 0x52E7 JUMP JUMPDEST SWAP1 POP SWAP2 SWAP1 POP JUMP JUMPDEST PUSH0 DUP2 MLOAD SWAP1 POP PUSH2 0x5335 DUP2 PUSH2 0x38B6 JUMP JUMPDEST SWAP3 SWAP2 POP POP JUMP JUMPDEST PUSH0 PUSH1 0x20 DUP3 DUP5 SUB SLT ISZERO PUSH2 0x5350 JUMPI PUSH2 0x534F PUSH2 0x38A5 JUMP JUMPDEST JUMPDEST PUSH0 PUSH2 0x535D DUP5 DUP3 DUP6 ADD PUSH2 0x5327 JUMP JUMPDEST SWAP2 POP POP SWAP3 SWAP2 POP POP JUMP JUMPDEST PUSH32 0x4E6F20746F6B656E7320746F2077697468647261770000000000000000000000 PUSH0 DUP3 ADD MSTORE POP JUMP JUMPDEST PUSH0 PUSH2 0x539A PUSH1 0x15 DUP4 PUSH2 0x3963 JUMP JUMPDEST SWAP2 POP PUSH2 0x53A5 DUP3 PUSH2 0x5366 JUMP JUMPDEST PUSH1 0x20 DUP3 ADD SWAP1 POP SWAP2 SWAP1 POP JUMP JUMPDEST PUSH0 PUSH1 0x20 DUP3 ADD SWAP1 POP DUP2 DUP2 SUB PUSH0 DUP4 ADD MSTORE PUSH2 0x53C7 DUP2 PUSH2 0x538E JUMP JUMPDEST SWAP1 POP SWAP2 SWAP1 POP JUMP JUMPDEST PUSH0 PUSH1 0x40 DUP3 ADD SWAP1 POP PUSH2 0x53E1 PUSH0 DUP4 ADD DUP6 PUSH2 0x394A JUMP JUMPDEST PUSH2 0x53EE PUSH1 0x20 DUP4 ADD DUP5 PUSH2 0x390B JUMP JUMPDEST SWAP4 SWAP3 POP POP POP JUMP JUMPDEST PUSH2 0x53FE DUP2 PUSH2 0x3DB8 JUMP JUMPDEST DUP2 EQ PUSH2 0x5408 JUMPI PUSH0 DUP1 REVERT JUMPDEST POP JUMP JUMPDEST PUSH0 DUP2 MLOAD SWAP1 POP PUSH2 0x5419 DUP2 PUSH2 0x53F5 JUMP JUMPDEST SWAP3 SWAP2 POP POP JUMP JUMPDEST PUSH0 PUSH1 0x20 DUP3 DUP5 SUB SLT ISZERO PUSH2 0x5434 JUMPI PUSH2 0x5433 PUSH2 0x38A5 JUMP JUMPDEST JUMPDEST PUSH0 PUSH2 0x5441 DUP5 DUP3 DUP6 ADD PUSH2 0x540B JUMP JUMPDEST SWAP2 POP POP SWAP3 SWAP2 POP POP JUMP JUMPDEST PUSH32 0x5265656E7472616E637947756172643A207265656E7472616E742063616C6C00 PUSH0 DUP3 ADD MSTORE POP JUMP JUMPDEST PUSH0 PUSH2 0x547E PUSH1 0x1F DUP4 PUSH2 0x3963 JUMP JUMPDEST SWAP2 POP PUSH2 0x5489 DUP3 PUSH2 0x544A JUMP JUMPDEST PUSH1 0x20 DUP3 ADD SWAP1 POP SWAP2 SWAP1 POP JUMP JUMPDEST PUSH0 PUSH1 0x20 DUP3 ADD SWAP1 POP DUP2 DUP2 SUB PUSH0 DUP4 ADD MSTORE PUSH2 0x54AB DUP2 PUSH2 0x5472 JUMP JUMPDEST SWAP1 POP SWAP2 SWAP1 POP JUMP JUMPDEST PUSH0 PUSH1 0x20 DUP3 ADD SWAP1 POP DUP2 DUP2 SUB PUSH0 DUP4 ADD MSTORE PUSH2 0x54CA DUP2 DUP5 PUSH2 0x3991 JUMP JUMPDEST SWAP1 POP SWAP3 SWAP2 POP POP JUMP INVALID LOG2 PUSH5 0x6970667358 0x22 SLT KECCAK256 PUSH18 0xADDECAC3E89409B5757AEA3BAE342B9AB3E6 PUSH12 0x25254188B789F22ED7D7B283 PUSH5 0x736F6C6343 STOP ADDMOD BYTE STOP CALLER "
    },
    "gasEstimates": {
      "creation": {
        "codeDepositCost": "4353600",
        "executionCost": "infinite",
        "totalCost": "infinite"
      },
      "external": {
        "addBuyer(uint256,address,uint256)": "infinite",
        "approvePropertySale(uint256)": "infinite",
        "areAllApprovalsInPlace(uint256)": "infinite",
        "buyPropertyShare(uint256)": "infinite",
        "cancelListing(uint256)": "infinite",
        "getBuyerDetails(uint256,uint256)": "infinite",
        "getContractStatistics()": "infinite",
        "getPropertiesByBuyer(address,uint256,uint256)": "infinite",
        "getPropertiesByOwner(address,uint256,uint256)": "infinite",
        "getPropertiesByStatus(uint8,uint256,uint256)": "infinite",
        "getPropertyDetails(uint256)": "infinite",
        "getRoyaltyDistribution(uint256)": "infinite",
        "getRoyaltyHolderDetails(uint256,uint256)": "infinite",
        "getSharePaymentDetails(uint256,uint256)": "infinite",
        "getTotalProperties()": "2478",
        "getTotalTransactions()": "2477",
        "getTransactionDetails(uint256)": "infinite",
        "getTransactionsByProperty(uint256,uint256,uint256)": "infinite",
        "listProperty(string,uint256,address[],uint256[])": "infinite",
        "listingFee()": "2514",
        "owner()": "2605",
        "properties(uint256)": "infinite",
        "propertyCount()": "2536",
        "purchaseFee()": "2538",
        "renounceOwnership()": "infinite",
        "transactionCount()": "2492",
        "transactions(uint256)": "infinite",
        "transferOwnership(address)": "infinite",
        "updateListingFee(uint256)": "infinite",
        "updateProperty(uint256,uint256,string)": "infinite",
        "updatePurchaseFee(uint256)": "infinite",
        "withdrawERC20(address)": "infinite",
        "withdrawETH()": "infinite"
      },
      "internal": {
        "_allSharesPurchased(struct RealEstateDApp.Property storage pointer)": "infinite",
        "_recordTransaction(uint256,address,address,uint256,string memory)": "infinite"
      }
    },
    "methodIdentifiers": {
      "addBuyer(uint256,address,uint256)": "4e9798c3",
      "approvePropertySale(uint256)": "3e3ea547",
      "areAllApprovalsInPlace(uint256)": "572f5eed",
      "buyPropertyShare(uint256)": "06ea4e6a",
      "cancelListing(uint256)": "305a67a8",
      "getBuyerDetails(uint256,uint256)": "70e14734",
      "getContractStatistics()": "18089a0c",
      "getPropertiesByBuyer(address,uint256,uint256)": "53bcb3db",
      "getPropertiesByOwner(address,uint256,uint256)": "635e49e5",
      "getPropertiesByStatus(uint8,uint256,uint256)": "90cad32f",
      "getPropertyDetails(uint256)": "126dbe43",
      "getRoyaltyDistribution(uint256)": "27cc8b5d",
      "getRoyaltyHolderDetails(uint256,uint256)": "547ee4ac",
      "getSharePaymentDetails(uint256,uint256)": "bafadc3c",
      "getTotalProperties()": "17aaf5ed",
      "getTotalTransactions()": "b5c604ff",
      "getTransactionDetails(uint256)": "0fa683d3",
      "getTransactionsByProperty(uint256,uint256,uint256)": "7eff2769",
      "listProperty(string,uint256,address[],uint256[])": "b3cdcf21",
      "listingFee()": "6a1b7ecc",
      "owner()": "8da5cb5b",
      "properties(uint256)": "f7b10808",
      "propertyCount()": "c361a335",
      "purchaseFee()": "14b5e981",
      "renounceOwnership()": "715018a6",
      "transactionCount()": "b77bf600",
      "transactions(uint256)": "9ace38c2",
      "transferOwnership(address)": "f2fde38b",
      "updateListingFee(uint256)": "f79d91ae",
      "updateProperty(uint256,uint256,string)": "a9059be5",
      "updatePurchaseFee(uint256)": "9ca1f363",
      "withdrawERC20(address)": "f4f3b200",
      "withdrawETH()": "e086e5ec"
    }
  },
  "abi": [
    {
      "inputs": [
        {
          "internalType": "uint256",
          "name": "_listingFee",
          "type": "uint256"
        },
        {
          "internalType": "uint256",
          "name": "_purchaseFee",
          "type": "uint256"
        }
      ],
      "stateMutability": "nonpayable",
      "type": "constructor"
    },
    {
      "inputs": [
        {
          "internalType": "address",
          "name": "owner",
          "type": "address"
        }
      ],
      "name": "OwnableInvalidOwner",
      "type": "error"
    },
    {
      "inputs": [
        {
          "internalType": "address",
          "name": "account",
          "type": "address"
        }
      ],
      "name": "OwnableUnauthorizedAccount",
      "type": "error"
    },
    {
      "anonymous": false,
      "inputs": [
        {
          "indexed": true,
          "internalType": "uint256",
          "name": "propertyId",
          "type": "uint256"
        },
        {
          "indexed": true,
          "internalType": "address",
          "name": "buyer",
          "type": "address"
        },
        {
          "indexed": false,
          "internalType": "uint256",
          "name": "sharePercentage",
          "type": "uint256"
        }
      ],
      "name": "BuyerAdded",
      "type": "event"
    },
    {
      "anonymous": false,
      "inputs": [
        {
          "indexed": true,
          "internalType": "uint256",
          "name": "propertyId",
          "type": "uint256"
        },
        {
          "indexed": true,
          "internalType": "address",
          "name": "buyer",
          "type": "address"
        },
        {
          "indexed": false,
          "internalType": "uint256",
          "name": "amount",
          "type": "uint256"
        }
      ],
      "name": "BuyerPaid",
      "type": "event"
    },
    {
      "anonymous": false,
      "inputs": [
        {
          "indexed": false,
          "internalType": "uint256",
          "name": "newFee",
          "type": "uint256"
        }
      ],
      "name": "ListingFeeUpdated",
      "type": "event"
    },
    {
      "anonymous": false,
      "inputs": [
        {
          "indexed": true,
          "internalType": "address",
          "name": "previousOwner",
          "type": "address"
        },
        {
          "indexed": true,
          "internalType": "address",
          "name": "newOwner",
          "type": "address"
        }
      ],
      "name": "OwnershipTransferred",
      "type": "event"
    },
    {
      "anonymous": false,
      "inputs": [
        {
          "indexed": true,
          "internalType": "uint256",
          "name": "propertyId",
          "type": "uint256"
        },
        {
          "indexed": true,
          "internalType": "address",
          "name": "owner",
          "type": "address"
        },
        {
          "indexed": false,
          "internalType": "uint256",
          "name": "price",
          "type": "uint256"
        }
      ],
      "name": "PropertyListed",
      "type": "event"
    },
    {
      "anonymous": false,
      "inputs": [
        {
          "indexed": true,
          "internalType": "uint256",
          "name": "propertyId",
          "type": "uint256"
        },
        {
          "indexed": true,
          "internalType": "address",
          "name": "buyer",
          "type": "address"
        },
        {
          "indexed": false,
          "internalType": "uint256",
          "name": "amount",
          "type": "uint256"
        }
      ],
      "name": "PropertyPurchased",
      "type": "event"
    },
    {
      "anonymous": false,
      "inputs": [
        {
          "indexed": true,
          "internalType": "uint256",
          "name": "propertyId",
          "type": "uint256"
        },
        {
          "indexed": false,
          "internalType": "uint256",
          "name": "price",
          "type": "uint256"
        },
        {
          "indexed": false,
          "internalType": "enum RealEstateDApp.PropertyStatus",
          "name": "status",
          "type": "uint8"
        }
      ],
      "name": "PropertyUpdated",
      "type": "event"
    },
    {
      "anonymous": false,
      "inputs": [
        {
          "indexed": false,
          "internalType": "uint256",
          "name": "newFee",
          "type": "uint256"
        }
      ],
      "name": "PurchaseFeeUpdated",
      "type": "event"
    },
    {
      "anonymous": false,
      "inputs": [
        {
          "indexed": true,
          "internalType": "uint256",
          "name": "propertyId",
          "type": "uint256"
        },
        {
          "indexed": true,
          "internalType": "address",
          "name": "holder",
          "type": "address"
        },
        {
          "indexed": false,
          "internalType": "uint256",
          "name": "percentage",
          "type": "uint256"
        }
      ],
      "name": "RoyaltyApproved",
      "type": "event"
    },
    {
      "anonymous": false,
      "inputs": [
        {
          "indexed": true,
          "internalType": "uint256",
          "name": "propertyId",
          "type": "uint256"
        },
        {
          "indexed": true,
          "internalType": "address",
          "name": "holder",
          "type": "address"
        },
        {
          "indexed": false,
          "internalType": "uint256",
          "name": "amount",
          "type": "uint256"
        }
      ],
      "name": "RoyaltyPaid",
      "type": "event"
    },
    {
      "anonymous": false,
      "inputs": [
        {
          "indexed": true,
          "internalType": "uint256",
          "name": "transactionId",
          "type": "uint256"
        },
        {
          "indexed": false,
          "internalType": "string",
          "name": "transactionType",
          "type": "string"
        }
      ],
      "name": "TransactionRecorded",
      "type": "event"
    },
    {
      "inputs": [
        {
          "internalType": "uint256",
          "name": "_propertyId",
          "type": "uint256"
        },
        {
          "internalType": "address payable",
          "name": "_buyer",
          "type": "address"
        },
        {
          "internalType": "uint256",
          "name": "_sharePercentage",
          "type": "uint256"
        }
      ],
      "name": "addBuyer",
      "outputs": [],
      "stateMutability": "nonpayable",
      "type": "function"
    },
    {
      "inputs": [
        {
          "internalType": "uint256",
          "name": "_propertyId",
          "type": "uint256"
        }
      ],
      "name": "approvePropertySale",
      "outputs": [],
      "stateMutability": "nonpayable",
      "type": "function"
    },
    {
      "inputs": [
        {
          "internalType": "uint256",
          "name": "_propertyId",
          "type": "uint256"
        }
      ],
      "name": "areAllApprovalsInPlace",
      "outputs": [
        {
          "internalType": "bool",
          "name": "",
          "type": "bool"
        }
      ],
      "stateMutability": "view",
      "type": "function"
    },
    {
      "inputs": [
        {
          "internalType": "uint256",
          "name": "_propertyId",
          "type": "uint256"
        }
      ],
      "name": "buyPropertyShare",
      "outputs": [],
      "stateMutability": "payable",
      "type": "function"
    },
    {
      "inputs": [
        {
          "internalType": "uint256",
          "name": "_propertyId",
          "type": "uint256"
        }
      ],
      "name": "cancelListing",
      "outputs": [],
      "stateMutability": "nonpayable",
      "type": "function"
    },
    {
      "inputs": [
        {
          "internalType": "uint256",
          "name": "_propertyId",
          "type": "uint256"
        },
        {
          "internalType": "uint256",
          "name": "_buyerIndex",
          "type": "uint256"
        }
      ],
      "name": "getBuyerDetails",
      "outputs": [
        {
          "internalType": "address",
          "name": "buyerAddress",
          "type": "address"
        },
        {
          "internalType": "uint256",
          "name": "sharePercentage",
          "type": "uint256"
        },
        {
          "internalType": "uint256",
          "name": "amountPaid",
          "type": "uint256"
        },
        {
          "internalType": "bool",
          "name": "hasPaid",
          "type": "bool"
        }
      ],
      "stateMutability": "view",
      "type": "function"
    },
    {
      "inputs": [],
      "name": "getContractStatistics",
      "outputs": [
        {
          "internalType": "uint256",
          "name": "totalProperties",
          "type": "uint256"
        },
        {
          "internalType": "uint256",
          "name": "totalTransactions",
          "type": "uint256"
        },
        {
          "internalType": "uint256",
          "name": "listedProperties",
          "type": "uint256"
        },
        {
          "internalType": "uint256",
          "name": "soldProperties",
          "type": "uint256"
        }
      ],
      "stateMutability": "view",
      "type": "function"
    },
    {
      "inputs": [
        {
          "internalType": "address",
          "name": "_buyer",
          "type": "address"
        },
        {
          "internalType": "uint256",
          "name": "_limit",
          "type": "uint256"
        },
        {
          "internalType": "uint256",
          "name": "_offset",
          "type": "uint256"
        }
      ],
      "name": "getPropertiesByBuyer",
      "outputs": [
        {
          "internalType": "uint256[]",
          "name": "",
          "type": "uint256[]"
        }
      ],
      "stateMutability": "view",
      "type": "function"
    },
    {
      "inputs": [
        {
          "internalType": "address",
          "name": "_owner",
          "type": "address"
        },
        {
          "internalType": "uint256",
          "name": "_limit",
          "type": "uint256"
        },
        {
          "internalType": "uint256",
          "name": "_offset",
          "type": "uint256"
        }
      ],
      "name": "getPropertiesByOwner",
      "outputs": [
        {
          "internalType": "uint256[]",
          "name": "",
          "type": "uint256[]"
        }
      ],
      "stateMutability": "view",
      "type": "function"
    },
    {
      "inputs": [
        {
          "internalType": "enum RealEstateDApp.PropertyStatus",
          "name": "_status",
          "type": "uint8"
        },
        {
          "internalType": "uint256",
          "name": "_limit",
          "type": "uint256"
        },
        {
          "internalType": "uint256",
          "name": "_offset",
          "type": "uint256"
        }
      ],
      "name": "getPropertiesByStatus",
      "outputs": [
        {
          "internalType": "uint256[]",
          "name": "",
          "type": "uint256[]"
        }
      ],
      "stateMutability": "view",
      "type": "function"
    },
    {
      "inputs": [
        {
          "internalType": "uint256",
          "name": "_propertyId",
          "type": "uint256"
        }
      ],
      "name": "getPropertyDetails",
      "outputs": [
        {
          "internalType": "uint256",
          "name": "id",
          "type": "uint256"
        },
        {
          "internalType": "string",
          "name": "uri",
          "type": "string"
        },
        {
          "internalType": "address",
          "name": "owner",
          "type": "address"
        },
        {
          "internalType": "uint256",
          "name": "price",
          "type": "uint256"
        },
        {
          "internalType": "enum RealEstateDApp.PropertyStatus",
          "name": "status",
          "type": "uint8"
        },
        {
          "internalType": "uint256",
          "name": "royaltyHolderCount",
          "type": "uint256"
        },
        {
          "internalType": "uint256",
          "name": "buyerCount",
          "type": "uint256"
        },
        {
          "internalType": "uint256",
          "name": "createdAt",
          "type": "uint256"
        },
        {
          "internalType": "uint256",
          "name": "updatedAt",
          "type": "uint256"
        }
      ],
      "stateMutability": "view",
      "type": "function"
    },
    {
      "inputs": [
        {
          "internalType": "uint256",
          "name": "_propertyId",
          "type": "uint256"
        }
      ],
      "name": "getRoyaltyDistribution",
      "outputs": [
        {
          "internalType": "uint256[]",
          "name": "",
          "type": "uint256[]"
        }
      ],
      "stateMutability": "view",
      "type": "function"
    },
    {
      "inputs": [
        {
          "internalType": "uint256",
          "name": "_propertyId",
          "type": "uint256"
        },
        {
          "internalType": "uint256",
          "name": "_holderIndex",
          "type": "uint256"
        }
      ],
      "name": "getRoyaltyHolderDetails",
      "outputs": [
        {
          "internalType": "address",
          "name": "holderAddress",
          "type": "address"
        },
        {
          "internalType": "uint256",
          "name": "percentage",
          "type": "uint256"
        },
        {
          "internalType": "bool",
          "name": "hasApproved",
          "type": "bool"
        }
      ],
      "stateMutability": "view",
      "type": "function"
    },
    {
      "inputs": [
        {
          "internalType": "uint256",
          "name": "_propertyId",
          "type": "uint256"
        },
        {
          "internalType": "uint256",
          "name": "_buyerIndex",
          "type": "uint256"
        }
      ],
      "name": "getSharePaymentDetails",
      "outputs": [
        {
          "internalType": "uint256",
          "name": "shareAmount",
          "type": "uint256"
        },
        {
          "internalType": "uint256",
          "name": "feeAmount",
          "type": "uint256"
        },
        {
          "internalType": "uint256",
          "name": "totalAmount",
          "type": "uint256"
        }
      ],
      "stateMutability": "view",
      "type": "function"
    },
    {
      "inputs": [],
      "name": "getTotalProperties",
      "outputs": [
        {
          "internalType": "uint256",
          "name": "",
          "type": "uint256"
        }
      ],
      "stateMutability": "view",
      "type": "function"
    },
    {
      "inputs": [],
      "name": "getTotalTransactions",
      "outputs": [
        {
          "internalType": "uint256",
          "name": "",
          "type": "uint256"
        }
      ],
      "stateMutability": "view",
      "type": "function"
    },
    {
      "inputs": [
        {
          "internalType": "uint256",
          "name": "_transactionId",
          "type": "uint256"
        }
      ],
      "name": "getTransactionDetails",
      "outputs": [
        {
          "internalType": "uint256",
          "name": "id",
          "type": "uint256"
        },
        {
          "internalType": "uint256",
          "name": "propertyId",
          "type": "uint256"
        },
        {
          "internalType": "address",
          "name": "from",
          "type": "address"
        },
        {
          "internalType": "address",
          "name": "to",
          "type": "address"
        },
        {
          "internalType": "uint256",
          "name": "amount",
          "type": "uint256"
        },
        {
          "internalType": "uint256",
          "name": "timestamp",
          "type": "uint256"
        },
        {
          "internalType": "string",
          "name": "transactionType",
          "type": "string"
        }
      ],
      "stateMutability": "view",
      "type": "function"
    },
    {
      "inputs": [
        {
          "internalType": "uint256",
          "name": "_propertyId",
          "type": "uint256"
        },
        {
          "internalType": "uint256",
          "name": "_limit",
          "type": "uint256"
        },
        {
          "internalType": "uint256",
          "name": "_offset",
          "type": "uint256"
        }
      ],
      "name": "getTransactionsByProperty",
      "outputs": [
        {
          "internalType": "uint256[]",
          "name": "",
          "type": "uint256[]"
        }
      ],
      "stateMutability": "view",
      "type": "function"
    },
    {
      "inputs": [
        {
          "internalType": "string",
          "name": "_propertyUri",
          "type": "string"
        },
        {
          "internalType": "uint256",
          "name": "_price",
          "type": "uint256"
        },
        {
          "internalType": "address payable[]",
          "name": "_royaltyHolders",
          "type": "address[]"
        },
        {
          "internalType": "uint256[]",
          "name": "_royaltyPercentages",
          "type": "uint256[]"
        }
      ],
      "name": "listProperty",
      "outputs": [
        {
          "internalType": "uint256",
          "name": "",
          "type": "uint256"
        }
      ],
      "stateMutability": "payable",
      "type": "function"
    },
    {
      "inputs": [],
      "name": "listingFee",
      "outputs": [
        {
          "internalType": "uint256",
          "name": "",
          "type": "uint256"
        }
      ],
      "stateMutability": "view",
      "type": "function"
    },
    {
      "inputs": [],
      "name": "owner",
      "outputs": [
        {
          "internalType": "address",
          "name": "",
          "type": "address"
        }
      ],
      "stateMutability": "view",
      "type": "function"
    },
    {
      "inputs": [
        {
          "internalType": "uint256",
          "name": "",
          "type": "uint256"
        }
      ],
      "name": "properties",
      "outputs": [
        {
          "internalType": "uint256",
          "name": "propertyId",
          "type": "uint256"
        },
        {
          "internalType": "string",
          "name": "propertyUri",
          "type": "string"
        },
        {
          "internalType": "address payable",
          "name": "owner",
          "type": "address"
        },
        {
          "internalType": "uint256",
          "name": "price",
          "type": "uint256"
        },
        {
          "internalType": "enum RealEstateDApp.PropertyStatus",
          "name": "status",
          "type": "uint8"
        },
        {
          "internalType": "uint256",
          "name": "royaltyHolderCount",
          "type": "uint256"
        },
        {
          "internalType": "uint256",
          "name": "buyerCount",
          "type": "uint256"
        },
        {
          "internalType": "uint256",
          "name": "createdAt",
          "type": "uint256"
        },
        {
          "internalType": "uint256",
          "name": "updatedAt",
          "type": "uint256"
        }
      ],
      "stateMutability": "view",
      "type": "function"
    },
    {
      "inputs": [],
      "name": "propertyCount",
      "outputs": [
        {
          "internalType": "uint256",
          "name": "",
          "type": "uint256"
        }
      ],
      "stateMutability": "view",
      "type": "function"
    },
    {
      "inputs": [],
      "name": "purchaseFee",
      "outputs": [
        {
          "internalType": "uint256",
          "name": "",
          "type": "uint256"
        }
      ],
      "stateMutability": "view",
      "type": "function"
    },
    {
      "inputs": [],
      "name": "renounceOwnership",
      "outputs": [],
      "stateMutability": "nonpayable",
      "type": "function"
    },
    {
      "inputs": [],
      "name": "transactionCount",
      "outputs": [
        {
          "internalType": "uint256",
          "name": "",
          "type": "uint256"
        }
      ],
      "stateMutability": "view",
      "type": "function"
    },
    {
      "inputs": [
        {
          "internalType": "uint256",
          "name": "",
          "type": "uint256"
        }
      ],
      "name": "transactions",
      "outputs": [
        {
          "internalType": "uint256",
          "name": "transactionId",
          "type": "uint256"
        },
        {
          "internalType": "uint256",
          "name": "propertyId",
          "type": "uint256"
        },
        {
          "internalType": "address",
          "name": "from",
          "type": "address"
        },
        {
          "internalType": "address",
          "name": "to",
          "type": "address"
        },
        {
          "internalType": "uint256",
          "name": "amount",
          "type": "uint256"
        },
        {
          "internalType": "uint256",
          "name": "timestamp",
          "type": "uint256"
        },
        {
          "internalType": "string",
          "name": "transactionType",
          "type": "string"
        }
      ],
      "stateMutability": "view",
      "type": "function"
    },
    {
      "inputs": [
        {
          "internalType": "address",
          "name": "newOwner",
          "type": "address"
        }
      ],
      "name": "transferOwnership",
      "outputs": [],
      "stateMutability": "nonpayable",
      "type": "function"
    },
    {
      "inputs": [
        {
          "internalType": "uint256",
          "name": "_newListingFee",
          "type": "uint256"
        }
      ],
      "name": "updateListingFee",
      "outputs": [],
      "stateMutability": "nonpayable",
      "type": "function"
    },
    {
      "inputs": [
        {
          "internalType": "uint256",
          "name": "_propertyId",
          "type": "uint256"
        },
        {
          "internalType": "uint256",
          "name": "_price",
          "type": "uint256"
        },
        {
          "internalType": "string",
          "name": "_propertyUri",
          "type": "string"
        }
      ],
      "name": "updateProperty",
      "outputs": [],
      "stateMutability": "nonpayable",
      "type": "function"
    },
    {
      "inputs": [
        {
          "internalType": "uint256",
          "name": "_newPurchaseFee",
          "type": "uint256"
        }
      ],
      "name": "updatePurchaseFee",
      "outputs": [],
      "stateMutability": "nonpayable",
      "type": "function"
    },
    {
      "inputs": [
        {
          "internalType": "address",
          "name": "_tokenAddress",
          "type": "address"
        }
      ],
      "name": "withdrawERC20",
      "outputs": [],
      "stateMutability": "nonpayable",
      "type": "function"
    },
    {
      "inputs": [],
      "name": "withdrawETH",
      "outputs": [],
      "stateMutability": "nonpayable",
      "type": "function"
    }
  ]
}